{
  "_format": "hh-sol-artifact-1",
  "contractName": "Main",
  "sourceName": "contracts/main.sol",
  "abi": [
    {
      "inputs": [],
      "stateMutability": "nonpayable",
      "type": "constructor"
    },
    {
      "inputs": [],
      "name": "_electionId",
      "outputs": [
        {
          "internalType": "uint256",
          "name": "_value",
          "type": "uint256"
        }
      ],
      "stateMutability": "view",
      "type": "function"
    },
    {
      "inputs": [
        {
          "internalType": "address",
          "name": "_electionAddress",
          "type": "address"
        },
        {
          "internalType": "address",
          "name": "_candidateAddress",
          "type": "address"
        },
        {
          "internalType": "string",
          "name": "_candidateName",
          "type": "string"
        },
        {
          "internalType": "string",
          "name": "_candidateDescription",
          "type": "string"
        },
        {
          "internalType": "string",
          "name": "_candidateIPFS",
          "type": "string"
        }
      ],
      "name": "addCandidate",
      "outputs": [],
      "stateMutability": "nonpayable",
      "type": "function"
    },
    {
      "inputs": [],
      "name": "admin",
      "outputs": [
        {
          "internalType": "address",
          "name": "",
          "type": "address"
        }
      ],
      "stateMutability": "view",
      "type": "function"
    },
    {
      "inputs": [
        {
          "internalType": "string",
          "name": "_nameElection",
          "type": "string"
        },
        {
          "internalType": "string",
          "name": "_descriptionelection",
          "type": "string"
        },
        {
          "internalType": "string",
          "name": "_IPFS",
          "type": "string"
        }
      ],
      "name": "createElection",
      "outputs": [],
      "stateMutability": "nonpayable",
      "type": "function"
    },
    {
      "inputs": [
        {
          "internalType": "address",
          "name": "_electionAddress",
          "type": "address"
        }
      ],
      "name": "endElection",
      "outputs": [],
      "stateMutability": "nonpayable",
      "type": "function"
    },
    {
      "inputs": [
        {
          "internalType": "address",
          "name": "_electionAddress",
          "type": "address"
        },
        {
          "internalType": "address",
          "name": "_candidateAddress",
          "type": "address"
        }
      ],
      "name": "getCandidate",
      "outputs": [
        {
          "components": [
            {
              "internalType": "uint256",
              "name": "candidateId",
              "type": "uint256"
            },
            {
              "internalType": "address",
              "name": "candidateAddress",
              "type": "address"
            },
            {
              "internalType": "string",
              "name": "candidateName",
              "type": "string"
            },
            {
              "internalType": "string",
              "name": "candidateDescription",
              "type": "string"
            },
            {
              "internalType": "string",
              "name": "candidateIPFS",
              "type": "string"
            },
            {
              "internalType": "uint256",
              "name": "numberVoted",
              "type": "uint256"
            }
          ],
          "internalType": "struct Candidate",
          "name": "",
          "type": "tuple"
        }
      ],
      "stateMutability": "view",
      "type": "function"
    },
    {
      "inputs": [
        {
          "internalType": "address",
          "name": "_electionAddress",
          "type": "address"
        }
      ],
      "name": "getCandidates",
      "outputs": [
        {
          "components": [
            {
              "internalType": "uint256",
              "name": "candidateId",
              "type": "uint256"
            },
            {
              "internalType": "address",
              "name": "candidateAddress",
              "type": "address"
            },
            {
              "internalType": "string",
              "name": "candidateName",
              "type": "string"
            },
            {
              "internalType": "string",
              "name": "candidateDescription",
              "type": "string"
            },
            {
              "internalType": "string",
              "name": "candidateIPFS",
              "type": "string"
            },
            {
              "internalType": "uint256",
              "name": "numberVoted",
              "type": "uint256"
            }
          ],
          "internalType": "struct Candidate[]",
          "name": "",
          "type": "tuple[]"
        }
      ],
      "stateMutability": "view",
      "type": "function"
    },
    {
      "inputs": [
        {
          "internalType": "address",
          "name": "_electionAddress",
          "type": "address"
        }
      ],
      "name": "getElection",
      "outputs": [
        {
          "components": [
            {
              "internalType": "uint256",
              "name": "id",
              "type": "uint256"
            },
            {
              "internalType": "address",
              "name": "electionAddress",
              "type": "address"
            },
            {
              "internalType": "string",
              "name": "name",
              "type": "string"
            },
            {
              "internalType": "string",
              "name": "descriptionElection",
              "type": "string"
            },
            {
              "internalType": "address",
              "name": "controllerAddress",
              "type": "address"
            },
            {
              "internalType": "address",
              "name": "wonAddress",
              "type": "address"
            },
            {
              "internalType": "string",
              "name": "IPFS",
              "type": "string"
            },
            {
              "internalType": "uint256",
              "name": "numberCandidate",
              "type": "uint256"
            },
            {
              "internalType": "enum State",
              "name": "state",
              "type": "uint8"
            }
          ],
          "internalType": "struct ElectionModel",
          "name": "",
          "type": "tuple"
        }
      ],
      "stateMutability": "view",
      "type": "function"
    },
    {
      "inputs": [],
      "name": "getElections",
      "outputs": [
        {
          "components": [
            {
              "internalType": "uint256",
              "name": "id",
              "type": "uint256"
            },
            {
              "internalType": "address",
              "name": "electionAddress",
              "type": "address"
            },
            {
              "internalType": "string",
              "name": "name",
              "type": "string"
            },
            {
              "internalType": "string",
              "name": "descriptionElection",
              "type": "string"
            },
            {
              "internalType": "address",
              "name": "controllerAddress",
              "type": "address"
            },
            {
              "internalType": "address",
              "name": "wonAddress",
              "type": "address"
            },
            {
              "internalType": "string",
              "name": "IPFS",
              "type": "string"
            },
            {
              "internalType": "uint256",
              "name": "numberCandidate",
              "type": "uint256"
            },
            {
              "internalType": "enum State",
              "name": "state",
              "type": "uint8"
            }
          ],
          "internalType": "struct ElectionModel[]",
          "name": "",
          "type": "tuple[]"
        }
      ],
      "stateMutability": "view",
      "type": "function"
    },
    {
      "inputs": [
        {
          "internalType": "address",
          "name": "_electionAddress",
          "type": "address"
        }
      ],
      "name": "getUsers",
      "outputs": [
        {
          "internalType": "address[]",
          "name": "",
          "type": "address[]"
        }
      ],
      "stateMutability": "view",
      "type": "function"
    },
    {
      "inputs": [
        {
          "internalType": "address",
          "name": "_electionAddress",
          "type": "address"
        }
      ],
      "name": "getWonElection",
      "outputs": [
        {
          "components": [
            {
              "internalType": "uint256",
              "name": "candidateId",
              "type": "uint256"
            },
            {
              "internalType": "address",
              "name": "candidateAddress",
              "type": "address"
            },
            {
              "internalType": "string",
              "name": "candidateName",
              "type": "string"
            },
            {
              "internalType": "string",
              "name": "candidateDescription",
              "type": "string"
            },
            {
              "internalType": "string",
              "name": "candidateIPFS",
              "type": "string"
            },
            {
              "internalType": "uint256",
              "name": "numberVoted",
              "type": "uint256"
            }
          ],
          "internalType": "struct Candidate",
          "name": "",
          "type": "tuple"
        }
      ],
      "stateMutability": "nonpayable",
      "type": "function"
    },
    {
      "inputs": [
        {
          "internalType": "address",
          "name": "_electionAddress",
          "type": "address"
        }
      ],
      "name": "startElection",
      "outputs": [],
      "stateMutability": "nonpayable",
      "type": "function"
    },
    {
      "inputs": [
        {
          "internalType": "address",
          "name": "_electionAddress",
          "type": "address"
        },
        {
          "internalType": "address",
          "name": "_candidateAddress",
          "type": "address"
        },
        {
          "internalType": "address",
          "name": "_userAddress",
          "type": "address"
        }
      ],
      "name": "vote",
      "outputs": [
        {
          "internalType": "bool",
          "name": "",
          "type": "bool"
        }
      ],
      "stateMutability": "nonpayable",
      "type": "function"
    }
  ],
  "bytecode": "0x608060405234801561001057600080fd5b5033600160006101000a81548173ffffffffffffffffffffffffffffffffffffffff021916908373ffffffffffffffffffffffffffffffffffffffff1602179055506153a0806100616000396000f3fe60806040523480156200001157600080fd5b5060043610620000e25760003560e01c80639f3a7f521162000099578063e6a5e61d116200006f578063e6a5e61d1462000277578063f32656f81462000297578063f7610be014620002b9578063f851a44014620002ef57620000e2565b80639f3a7f5214620001e9578063a26ac665146200020b578063b275f308146200024157620000e2565b806307e4b70a14620000e75780633bd6b3dd14620001075780633eefa56b146200013d5780634a6cf3a91462000173578063602b386e14620001935780638ff04b4114620001c9575b600080fd5b620001056004803603810190620000ff919062000fa1565b62000311565b005b6200012560048036038101906200011f919062000fa1565b6200040f565b6040516200013491906200113c565b60405180910390f35b6200015b600480360381019062000155919062000fa1565b62000532565b6040516200016a9190620012d3565b60405180910390f35b6200019160048036038101906200018b919062001448565b620005b8565b005b620001b16004803603810190620001ab919062000fa1565b62000719565b604051620001c09190620015be565b60405180910390f35b620001e76004803603810190620001e19190620015e2565b62000831565b005b620001f36200099d565b604051620002029190620018fc565b60405180910390f35b62000229600480360381019062000223919062001920565b62000b11565b6040516200023891906200113c565b60405180910390f35b6200025f600480360381019062000259919062000fa1565b62000bad565b6040516200026e919062001a4c565b60405180910390f35b6200029560048036038101906200028f919062000fa1565b62000c41565b005b620002a162000d3f565b604051620002b0919062001a81565b60405180910390f35b620002d76004803603810190620002d1919062001a9e565b62000d4b565b604051620002e6919062001b17565b60405180910390f35b620002f962000de1565b60405162000308919062001b45565b60405180910390f35b3373ffffffffffffffffffffffffffffffffffffffff16600160009054906101000a900473ffffffffffffffffffffffffffffffffffffffff1673ffffffffffffffffffffffffffffffffffffffff1614620003a4576040517f08c379a00000000000000000000000000000000000000000000000000000000081526004016200039b9062001bc3565b60405180910390fd5b60008190508073ffffffffffffffffffffffffffffffffffffffff166359f784686040518163ffffffff1660e01b8152600401600060405180830381600087803b158015620003f257600080fd5b505af115801562000407573d6000803e3d6000fd5b505050505050565b6200041962000e2b565b3373ffffffffffffffffffffffffffffffffffffffff16600160009054906101000a900473ffffffffffffffffffffffffffffffffffffffff1673ffffffffffffffffffffffffffffffffffffffff1614620004ac576040517f08c379a0000000000000000000000000000000000000000000000000000000008152600401620004a39062001bc3565b60405180910390fd5b60008290508073ffffffffffffffffffffffffffffffffffffffff1663699f074c6040518163ffffffff1660e01b81526004016000604051808303816000875af1158015620004ff573d6000803e3d6000fd5b505050506040513d6000823e3d601f19601f820116820180604052508101906200052a919062001dc3565b915050919050565b606060008290508073ffffffffffffffffffffffffffffffffffffffff166306a49fce6040518163ffffffff1660e01b8152600401600060405180830381865afa15801562000585573d6000803e3d6000fd5b505050506040513d6000823e3d601f19601f82011682018060405250810190620005b0919062001f10565b915050919050565b3373ffffffffffffffffffffffffffffffffffffffff16600160009054906101000a900473ffffffffffffffffffffffffffffffffffffffff1673ffffffffffffffffffffffffffffffffffffffff16146200064b576040517f08c379a0000000000000000000000000000000000000000000000000000000008152600401620006429062001bc3565b60405180910390fd5b62000657600062000e07565b600062000665600062000e1d565b90506000813086868660006040516200067e9062000e77565b6200068f9695949392919062001fef565b604051809103906000f080158015620006ac573d6000803e3d6000fd5b5090506002819080600181540180825580915050600190039060005260206000200160009091909190916101000a81548173ffffffffffffffffffffffffffffffffffffffff021916908373ffffffffffffffffffffffffffffffffffffffff1602179055505050505050565b60603373ffffffffffffffffffffffffffffffffffffffff16600160009054906101000a900473ffffffffffffffffffffffffffffffffffffffff1673ffffffffffffffffffffffffffffffffffffffff1614620007ae576040517f08c379a0000000000000000000000000000000000000000000000000000000008152600401620007a59062001bc3565b60405180910390fd5b60008290508073ffffffffffffffffffffffffffffffffffffffff1662ce8e3e6040518163ffffffff1660e01b8152600401600060405180830381865afa158015620007fe573d6000803e3d6000fd5b505050506040513d6000823e3d601f19601f8201168201806040525081019062000829919062002147565b915050919050565b3373ffffffffffffffffffffffffffffffffffffffff16600160009054906101000a900473ffffffffffffffffffffffffffffffffffffffff1673ffffffffffffffffffffffffffffffffffffffff1614620008c4576040517f08c379a0000000000000000000000000000000000000000000000000000000008152600401620008bb9062001bc3565b60405180910390fd5b60006040518060c00160405280600081526020018673ffffffffffffffffffffffffffffffffffffffff1681526020018581526020018481526020018381526020016000815250905060008690508073ffffffffffffffffffffffffffffffffffffffff16635f9c6185836040518263ffffffff1660e01b81526004016200094d91906200113c565b6020604051808303816000875af11580156200096d573d6000803e3d6000fd5b505050506040513d601f19601f82011682018060405250810190620009939190620021c9565b5050505050505050565b6060600060028054905067ffffffffffffffff811115620009c357620009c262001301565b5b60405190808252806020026020018201604052801562000a0057816020015b620009ec62000e85565b815260200190600190039081620009e25790505b50905060005b60028054905081101562000b095760006002828154811062000a2d5762000a2c620021fb565b5b9060005260206000200160009054906101000a900473ffffffffffffffffffffffffffffffffffffffff1690508073ffffffffffffffffffffffffffffffffffffffff1663eceed3396040518163ffffffff1660e01b8152600401600060405180830381865afa15801562000aa6573d6000803e3d6000fd5b505050506040513d6000823e3d601f19601f8201168201806040525081019062000ad19190620023a6565b83838151811062000ae75762000ae6620021fb565b5b602002602001018190525050808062000b009062002426565b91505062000a06565b508091505090565b62000b1b62000e2b565b60008390508073ffffffffffffffffffffffffffffffffffffffff1663b7adcf1d846040518263ffffffff1660e01b815260040162000b5b919062001b45565b600060405180830381865afa15801562000b79573d6000803e3d6000fd5b505050506040513d6000823e3d601f19601f8201168201806040525081019062000ba4919062001dc3565b91505092915050565b62000bb762000e85565b600082905060008173ffffffffffffffffffffffffffffffffffffffff1663eceed3396040518163ffffffff1660e01b8152600401600060405180830381865afa15801562000c0a573d6000803e3d6000fd5b505050506040513d6000823e3d601f19601f8201168201806040525081019062000c359190620023a6565b90508092505050919050565b3373ffffffffffffffffffffffffffffffffffffffff16600160009054906101000a900473ffffffffffffffffffffffffffffffffffffffff1673ffffffffffffffffffffffffffffffffffffffff161462000cd4576040517f08c379a000000000000000000000000000000000000000000000000000000000815260040162000ccb9062001bc3565b60405180910390fd5b60008190508073ffffffffffffffffffffffffffffffffffffffff166362d73eb86040518163ffffffff1660e01b8152600401600060405180830381600087803b15801562000d2257600080fd5b505af115801562000d37573d6000803e3d6000fd5b505050505050565b60008060000154905081565b6000808490508073ffffffffffffffffffffffffffffffffffffffff16631afa74e585856040518363ffffffff1660e01b815260040162000d8e92919062002473565b6020604051808303816000875af115801562000dae573d6000803e3d6000fd5b505050506040513d601f19601f8201168201806040525081019062000dd49190620021c9565b5060019150509392505050565b600160009054906101000a900473ffffffffffffffffffffffffffffffffffffffff1681565b6001816000016000828254019250508190555050565b600081600001549050919050565b6040518060c0016040528060008152602001600073ffffffffffffffffffffffffffffffffffffffff168152602001606081526020016060815260200160608152602001600081525090565b612eca80620024a183390190565b60405180610120016040528060008152602001600073ffffffffffffffffffffffffffffffffffffffff1681526020016060815260200160608152602001600073ffffffffffffffffffffffffffffffffffffffff168152602001600073ffffffffffffffffffffffffffffffffffffffff16815260200160608152602001600081526020016000600281111562000f225762000f21620016f3565b5b81525090565b6000604051905090565b600080fd5b600080fd5b600073ffffffffffffffffffffffffffffffffffffffff82169050919050565b600062000f698262000f3c565b9050919050565b62000f7b8162000f5c565b811462000f8757600080fd5b50565b60008135905062000f9b8162000f70565b92915050565b60006020828403121562000fba5762000fb962000f32565b5b600062000fca8482850162000f8a565b91505092915050565b6000819050919050565b62000fe88162000fd3565b82525050565b62000ff98162000f5c565b82525050565b600081519050919050565b600082825260208201905092915050565b60005b838110156200103b5780820151818401526020810190506200101e565b60008484015250505050565b6000601f19601f8301169050919050565b6000620010658262000fff565b6200107181856200100a565b9350620010838185602086016200101b565b6200108e8162001047565b840191505092915050565b600060c083016000830151620010b3600086018262000fdd565b506020830151620010c8602086018262000fee565b5060408301518482036040860152620010e2828262001058565b91505060608301518482036060860152620010fe828262001058565b915050608083015184820360808601526200111a828262001058565b91505060a08301516200113160a086018262000fdd565b508091505092915050565b6000602082019050818103600083015262001158818462001099565b905092915050565b600081519050919050565b600082825260208201905092915050565b6000819050602082019050919050565b600060c083016000830151620011a6600086018262000fdd565b506020830151620011bb602086018262000fee565b5060408301518482036040860152620011d5828262001058565b91505060608301518482036060860152620011f1828262001058565b915050608083015184820360808601526200120d828262001058565b91505060a08301516200122460a086018262000fdd565b508091505092915050565b60006200123d83836200118c565b905092915050565b6000602082019050919050565b60006200125f8262001160565b6200126b81856200116b565b9350836020820285016200127f856200117c565b8060005b85811015620012c157848403895281516200129f85826200122f565b9450620012ac8362001245565b925060208a0199505060018101905062001283565b50829750879550505050505092915050565b60006020820190508181036000830152620012ef818462001252565b905092915050565b600080fd5b600080fd5b7f4e487b7100000000000000000000000000000000000000000000000000000000600052604160045260246000fd5b6200133b8262001047565b810181811067ffffffffffffffff821117156200135d576200135c62001301565b5b80604052505050565b60006200137262000f28565b905062001380828262001330565b919050565b600067ffffffffffffffff821115620013a357620013a262001301565b5b620013ae8262001047565b9050602081019050919050565b82818337600083830152505050565b6000620013e1620013db8462001385565b62001366565b9050828152602081018484840111156200140057620013ff620012fc565b5b6200140d848285620013bb565b509392505050565b600082601f8301126200142d576200142c620012f7565b5b81356200143f848260208601620013ca565b91505092915050565b60008060006060848603121562001464576200146362000f32565b5b600084013567ffffffffffffffff81111562001485576200148462000f37565b5b620014938682870162001415565b935050602084013567ffffffffffffffff811115620014b757620014b662000f37565b5b620014c58682870162001415565b925050604084013567ffffffffffffffff811115620014e957620014e862000f37565b5b620014f78682870162001415565b9150509250925092565b600081519050919050565b600082825260208201905092915050565b6000819050602082019050919050565b60006200153b838362000fee565b60208301905092915050565b6000602082019050919050565b6000620015618262001501565b6200156d81856200150c565b93506200157a836200151d565b8060005b83811015620015b15781516200159588826200152d565b9750620015a28362001547565b9250506001810190506200157e565b5085935050505092915050565b60006020820190508181036000830152620015da818462001554565b905092915050565b600080600080600060a0868803121562001601576200160062000f32565b5b6000620016118882890162000f8a565b9550506020620016248882890162000f8a565b945050604086013567ffffffffffffffff81111562001648576200164762000f37565b5b620016568882890162001415565b935050606086013567ffffffffffffffff8111156200167a576200167962000f37565b5b620016888882890162001415565b925050608086013567ffffffffffffffff811115620016ac57620016ab62000f37565b5b620016ba8882890162001415565b9150509295509295909350565b600081519050919050565b600082825260208201905092915050565b6000819050602082019050919050565b7f4e487b7100000000000000000000000000000000000000000000000000000000600052602160045260246000fd5b60038110620017365762001735620016f3565b5b50565b6000819050620017498262001722565b919050565b60006200175b8262001739565b9050919050565b6200176d816200174e565b82525050565b6000610120830160008301516200178e600086018262000fdd565b506020830151620017a3602086018262000fee565b5060408301518482036040860152620017bd828262001058565b91505060608301518482036060860152620017d9828262001058565b9150506080830151620017f0608086018262000fee565b5060a08301516200180560a086018262000fee565b5060c083015184820360c08601526200181f828262001058565b91505060e08301516200183660e086018262000fdd565b506101008301516200184d61010086018262001762565b508091505092915050565b600062001866838362001773565b905092915050565b6000602082019050919050565b60006200188882620016c7565b620018948185620016d2565b935083602082028501620018a885620016e3565b8060005b85811015620018ea5784840389528151620018c8858262001858565b9450620018d5836200186e565b925060208a01995050600181019050620018ac565b50829750879550505050505092915050565b600060208201905081810360008301526200191881846200187b565b905092915050565b600080604083850312156200193a576200193962000f32565b5b60006200194a8582860162000f8a565b92505060206200195d8582860162000f8a565b9150509250929050565b60006101208301600083015162001982600086018262000fdd565b50602083015162001997602086018262000fee565b5060408301518482036040860152620019b1828262001058565b91505060608301518482036060860152620019cd828262001058565b9150506080830151620019e4608086018262000fee565b5060a0830151620019f960a086018262000fee565b5060c083015184820360c086015262001a13828262001058565b91505060e083015162001a2a60e086018262000fdd565b5061010083015162001a4161010086018262001762565b508091505092915050565b6000602082019050818103600083015262001a68818462001967565b905092915050565b62001a7b8162000fd3565b82525050565b600060208201905062001a98600083018462001a70565b92915050565b60008060006060848603121562001aba5762001ab962000f32565b5b600062001aca8682870162000f8a565b935050602062001add8682870162000f8a565b925050604062001af08682870162000f8a565b9150509250925092565b60008115159050919050565b62001b118162001afa565b82525050565b600060208201905062001b2e600083018462001b06565b92915050565b62001b3f8162000f5c565b82525050565b600060208201905062001b5c600083018462001b34565b92915050565b600082825260208201905092915050565b7f526571756972652061646d696e20616363657373000000000000000000000000600082015250565b600062001bab60148362001b62565b915062001bb88262001b73565b602082019050919050565b6000602082019050818103600083015262001bde8162001b9c565b9050919050565b600080fd5b600080fd5b62001bfa8162000fd3565b811462001c0657600080fd5b50565b60008151905062001c1a8162001bef565b92915050565b60008151905062001c318162000f70565b92915050565b600062001c4e62001c488462001385565b62001366565b90508281526020810184848401111562001c6d5762001c6c620012fc565b5b62001c7a8482856200101b565b509392505050565b600082601f83011262001c9a5762001c99620012f7565b5b815162001cac84826020860162001c37565b91505092915050565b600060c0828403121562001cce5762001ccd62001be5565b5b62001cda60c062001366565b9050600062001cec8482850162001c09565b600083015250602062001d028482850162001c20565b602083015250604082015167ffffffffffffffff81111562001d295762001d2862001bea565b5b62001d378482850162001c82565b604083015250606082015167ffffffffffffffff81111562001d5e5762001d5d62001bea565b5b62001d6c8482850162001c82565b606083015250608082015167ffffffffffffffff81111562001d935762001d9262001bea565b5b62001da18482850162001c82565b60808301525060a062001db78482850162001c09565b60a08301525092915050565b60006020828403121562001ddc5762001ddb62000f32565b5b600082015167ffffffffffffffff81111562001dfd5762001dfc62000f37565b5b62001e0b8482850162001cb5565b91505092915050565b600067ffffffffffffffff82111562001e325762001e3162001301565b5b602082029050602081019050919050565b600080fd5b600062001e5f62001e598462001e14565b62001366565b9050808382526020820190506020840283018581111562001e855762001e8462001e43565b5b835b8181101562001ed357805167ffffffffffffffff81111562001eae5762001ead620012f7565b5b80860162001ebd898262001cb5565b8552602085019450505060208101905062001e87565b5050509392505050565b600082601f83011262001ef55762001ef4620012f7565b5b815162001f0784826020860162001e48565b91505092915050565b60006020828403121562001f295762001f2862000f32565b5b600082015167ffffffffffffffff81111562001f4a5762001f4962000f37565b5b62001f588482850162001edd565b91505092915050565b600062001f6e8262000fff565b62001f7a818562001b62565b935062001f8c8185602086016200101b565b62001f978162001047565b840191505092915050565b6000819050919050565b6000819050919050565b600062001fd762001fd162001fcb8462001fa2565b62001fac565b62000fd3565b9050919050565b62001fe98162001fb6565b82525050565b600060c08201905062002006600083018962001a70565b62002015602083018862001b34565b818103604083015262002029818762001f61565b905081810360608301526200203f818662001f61565b9050818103608083015262002055818562001f61565b90506200206660a083018462001fde565b979650505050505050565b600067ffffffffffffffff8211156200208f576200208e62001301565b5b602082029050602081019050919050565b6000620020b7620020b18462002071565b62001366565b90508083825260208201905060208402830185811115620020dd57620020dc62001e43565b5b835b818110156200210a5780620020f5888262001c20565b845260208401935050602081019050620020df565b5050509392505050565b600082601f8301126200212c576200212b620012f7565b5b81516200213e848260208601620020a0565b91505092915050565b60006020828403121562002160576200215f62000f32565b5b600082015167ffffffffffffffff81111562002181576200218062000f37565b5b6200218f8482850162002114565b91505092915050565b620021a38162001afa565b8114620021af57600080fd5b50565b600081519050620021c38162002198565b92915050565b600060208284031215620021e257620021e162000f32565b5b6000620021f284828501620021b2565b91505092915050565b7f4e487b7100000000000000000000000000000000000000000000000000000000600052603260045260246000fd5b600381106200223857600080fd5b50565b6000815190506200224c816200222a565b92915050565b600061012082840312156200226c576200226b62001be5565b5b6200227961012062001366565b905060006200228b8482850162001c09565b6000830152506020620022a18482850162001c20565b602083015250604082015167ffffffffffffffff811115620022c857620022c762001bea565b5b620022d68482850162001c82565b604083015250606082015167ffffffffffffffff811115620022fd57620022fc62001bea565b5b6200230b8482850162001c82565b6060830152506080620023218482850162001c20565b60808301525060a0620023378482850162001c20565b60a08301525060c082015167ffffffffffffffff8111156200235e576200235d62001bea565b5b6200236c8482850162001c82565b60c08301525060e0620023828482850162001c09565b60e08301525061010062002399848285016200223b565b6101008301525092915050565b600060208284031215620023bf57620023be62000f32565b5b600082015167ffffffffffffffff811115620023e057620023df62000f37565b5b620023ee8482850162002252565b91505092915050565b7f4e487b7100000000000000000000000000000000000000000000000000000000600052601160045260246000fd5b6000620024338262000fd3565b91507fffffffffffffffffffffffffffffffffffffffffffffffffffffffffffffffff8203620024685762002467620023f7565b5b600182019050919050565b60006040820190506200248a600083018562001b34565b62002499602083018462001b34565b939250505056fe60806040523480156200001157600080fd5b5060405162002eca38038062002eca8339818101604052810190620000379190620003c6565b856001600001819055506000600160080160006101000a81548160ff021916908360028111156200006d576200006c620004bf565b5b021790555084600160040160006101000a81548173ffffffffffffffffffffffffffffffffffffffff021916908373ffffffffffffffffffffffffffffffffffffffff1602179055508260016003019081620000ca91906200072f565b508360016002019081620000df91906200072f565b508160016006019081620000f491906200072f565b5080600160070181905550306001800160006101000a81548173ffffffffffffffffffffffffffffffffffffffff021916908373ffffffffffffffffffffffffffffffffffffffff1602179055506000600160050160006101000a81548173ffffffffffffffffffffffffffffffffffffffff021916908373ffffffffffffffffffffffffffffffffffffffff16021790555050505050505062000816565b6000604051905090565b600080fd5b600080fd5b6000819050919050565b620001bc81620001a7565b8114620001c857600080fd5b50565b600081519050620001dc81620001b1565b92915050565b600073ffffffffffffffffffffffffffffffffffffffff82169050919050565b60006200020f82620001e2565b9050919050565b620002218162000202565b81146200022d57600080fd5b50565b600081519050620002418162000216565b92915050565b600080fd5b600080fd5b6000601f19601f8301169050919050565b7f4e487b7100000000000000000000000000000000000000000000000000000000600052604160045260246000fd5b6200029c8262000251565b810181811067ffffffffffffffff82111715620002be57620002bd62000262565b5b80604052505050565b6000620002d362000193565b9050620002e1828262000291565b919050565b600067ffffffffffffffff82111562000304576200030362000262565b5b6200030f8262000251565b9050602081019050919050565b60005b838110156200033c5780820151818401526020810190506200031f565b60008484015250505050565b60006200035f6200035984620002e6565b620002c7565b9050828152602081018484840111156200037e576200037d6200024c565b5b6200038b8482856200031c565b509392505050565b600082601f830112620003ab57620003aa62000247565b5b8151620003bd84826020860162000348565b91505092915050565b60008060008060008060c08789031215620003e657620003e56200019d565b5b6000620003f689828a01620001cb565b96505060206200040989828a0162000230565b955050604087015167ffffffffffffffff8111156200042d576200042c620001a2565b5b6200043b89828a0162000393565b945050606087015167ffffffffffffffff8111156200045f576200045e620001a2565b5b6200046d89828a0162000393565b935050608087015167ffffffffffffffff811115620004915762000490620001a2565b5b6200049f89828a0162000393565b92505060a0620004b289828a01620001cb565b9150509295509295509295565b7f4e487b7100000000000000000000000000000000000000000000000000000000600052602160045260246000fd5b600081519050919050565b7f4e487b7100000000000000000000000000000000000000000000000000000000600052602260045260246000fd5b600060028204905060018216806200054157607f821691505b602082108103620005575762000556620004f9565b5b50919050565b60008190508160005260206000209050919050565b60006020601f8301049050919050565b600082821b905092915050565b600060088302620005c17fffffffffffffffffffffffffffffffffffffffffffffffffffffffffffffffff8262000582565b620005cd868362000582565b95508019841693508086168417925050509392505050565b6000819050919050565b6000620006106200060a6200060484620001a7565b620005e5565b620001a7565b9050919050565b6000819050919050565b6200062c83620005ef565b620006446200063b8262000617565b8484546200058f565b825550505050565b600090565b6200065b6200064c565b6200066881848462000621565b505050565b5b8181101562000690576200068460008262000651565b6001810190506200066e565b5050565b601f821115620006df57620006a9816200055d565b620006b48462000572565b81016020851015620006c4578190505b620006dc620006d38562000572565b8301826200066d565b50505b505050565b600082821c905092915050565b60006200070460001984600802620006e4565b1980831691505092915050565b60006200071f8383620006f1565b9150826002028217905092915050565b6200073a82620004ee565b67ffffffffffffffff81111562000756576200075562000262565b5b62000762825462000528565b6200076f82828562000694565b600060209050601f831160018114620007a7576000841562000792578287015190505b6200079e858262000711565b8655506200080e565b601f198416620007b7866200055d565b60005b82811015620007e157848901518255600182019150602085019450602081019050620007ba565b86831015620008015784890151620007fd601f891682620006f1565b8355505b6001600288020188555050505b505050505050565b6126a480620008266000396000f3fe608060405234801561001057600080fd5b506004361061009d5760003560e01c806362d73eb81161006657806362d73eb814610148578063699f074c14610152578063a738896714610170578063b7adcf1d1461018e578063eceed339146101be5761009d565b8062ce8e3e146100a257806306a49fce146100c05780631afa74e5146100de57806359f784681461010e5780635f9c618514610118575b600080fd5b6100aa6101dc565b6040516100b79190611941565b60405180910390f35b6100c861026a565b6040516100d59190611b65565b60405180910390f35b6100f860048036038101906100f39190611bc7565b6105c1565b6040516101059190611c22565b60405180910390f35b610116610782565b005b610132600480360381019061012d9190611e9c565b610845565b60405161013f9190611c22565b60405180910390f35b610150610a74565b005b61015a610b36565b6040516101679190611f7c565b60405180910390f35b610178610ff7565b6040516101859190611fad565b60405180910390f35b6101a860048036038101906101a39190611fc8565b611003565b6040516101b59190611f7c565b60405180910390f35b6101c661127c565b6040516101d3919061213f565b60405180910390f35b6060600b80548060200260200160405190810160405280929190818152602001828054801561026057602002820191906000526020600020905b8160009054906101000a900473ffffffffffffffffffffffffffffffffffffffff1673ffffffffffffffffffffffffffffffffffffffff1681526020019060010190808311610216575b5050505050905090565b60606000600a80549050905060008167ffffffffffffffff81111561029257610291611c42565b5b6040519080825280602002602001820160405280156102cb57816020015b6102b8611765565b8152602001906001900390816102b05790505b50905060005b828110156105b8576000600a82815481106102ef576102ee612161565b5b9060005260206000200160009054906101000a900473ffffffffffffffffffffffffffffffffffffffff169050600c60008273ffffffffffffffffffffffffffffffffffffffff1673ffffffffffffffffffffffffffffffffffffffff1681526020019081526020016000206040518060c0016040529081600082015481526020016001820160009054906101000a900473ffffffffffffffffffffffffffffffffffffffff1673ffffffffffffffffffffffffffffffffffffffff1673ffffffffffffffffffffffffffffffffffffffff1681526020016002820180546103d6906121bf565b80601f0160208091040260200160405190810160405280929190818152602001828054610402906121bf565b801561044f5780601f106104245761010080835404028352916020019161044f565b820191906000526020600020905b81548152906001019060200180831161043257829003601f168201915b50505050508152602001600382018054610468906121bf565b80601f0160208091040260200160405190810160405280929190818152602001828054610494906121bf565b80156104e15780601f106104b6576101008083540402835291602001916104e1565b820191906000526020600020905b8154815290600101906020018083116104c457829003601f168201915b505050505081526020016004820180546104fa906121bf565b80601f0160208091040260200160405190810160405280929190818152602001828054610526906121bf565b80156105735780601f1061054857610100808354040283529160200191610573565b820191906000526020600020905b81548152906001019060200180831161055657829003601f168201915b5050505050815260200160058201548152505083838151811061059957610598612161565b5b60200260200101819052505080806105b09061221f565b9150506102d1565b50809250505090565b6000600160028111156105d7576105d6611ff5565b5b600160080160009054906101000a900460ff1660028111156105fc576105fb611ff5565b5b1461063c576040517f08c379a0000000000000000000000000000000000000000000000000000000008152600401610633906122c4565b60405180910390fd5b60006106478361159e565b90506001151581151514610690576040517f08c379a000000000000000000000000000000000000000000000000000000000815260040161068790612330565b60405180910390fd5b61069983611648565b6000600d60008673ffffffffffffffffffffffffffffffffffffffff1673ffffffffffffffffffffffffffffffffffffffff16815260200190815260200160002054905080806106e89061221f565b91505080600d60008773ffffffffffffffffffffffffffffffffffffffff1673ffffffffffffffffffffffffffffffffffffffff1681526020019081526020016000208190555080600c60008773ffffffffffffffffffffffffffffffffffffffff1673ffffffffffffffffffffffffffffffffffffffff1681526020019081526020016000206005018190555060019250505092915050565b600160040160009054906101000a900473ffffffffffffffffffffffffffffffffffffffff1673ffffffffffffffffffffffffffffffffffffffff163373ffffffffffffffffffffffffffffffffffffffff1614610815576040517f08c379a000000000000000000000000000000000000000000000000000000000815260040161080c9061239c565b60405180910390fd5b6002600160080160006101000a81548160ff0219169083600281111561083e5761083d611ff5565b5b0217905550565b6000600160040160009054906101000a900473ffffffffffffffffffffffffffffffffffffffff1673ffffffffffffffffffffffffffffffffffffffff163373ffffffffffffffffffffffffffffffffffffffff16146108da576040517f08c379a00000000000000000000000000000000000000000000000000000000081526004016108d19061239c565b60405180910390fd5b6108e46000611741565b60006108f06000611757565b905060008360200151905081846000018181525050600a819080600181540180825580915050600190039060005260206000200160009091909190916101000a81548173ffffffffffffffffffffffffffffffffffffffff021916908373ffffffffffffffffffffffffffffffffffffffff16021790555083600c60008373ffffffffffffffffffffffffffffffffffffffff1673ffffffffffffffffffffffffffffffffffffffff1681526020019081526020016000206000820151816000015560208201518160010160006101000a81548173ffffffffffffffffffffffffffffffffffffffff021916908373ffffffffffffffffffffffffffffffffffffffff1602179055506040820151816002019081610a0e9190612568565b506060820151816003019081610a249190612568565b506080820151816004019081610a3a9190612568565b5060a0820151816005015590505060006001600701549050600181610a5f919061263a565b60016007018190555060019350505050919050565b600160040160009054906101000a900473ffffffffffffffffffffffffffffffffffffffff1673ffffffffffffffffffffffffffffffffffffffff163373ffffffffffffffffffffffffffffffffffffffff1614610b07576040517f08c379a0000000000000000000000000000000000000000000000000000000008152600401610afe9061239c565b60405180910390fd5b60018060080160006101000a81548160ff02191690836002811115610b2f57610b2e611ff5565b5b0217905550565b610b3e611765565b600160040160009054906101000a900473ffffffffffffffffffffffffffffffffffffffff1673ffffffffffffffffffffffffffffffffffffffff163373ffffffffffffffffffffffffffffffffffffffff1614610bd1576040517f08c379a0000000000000000000000000000000000000000000000000000000008152600401610bc89061239c565b60405180910390fd5b60008080600090505b600a80549050811015610d4157600d6000600a8381548110610bff57610bfe612161565b5b9060005260206000200160009054906101000a900473ffffffffffffffffffffffffffffffffffffffff1673ffffffffffffffffffffffffffffffffffffffff1673ffffffffffffffffffffffffffffffffffffffff16815260200190815260200160002054831015610d2e57600d6000600a8381548110610c8457610c83612161565b5b9060005260206000200160009054906101000a900473ffffffffffffffffffffffffffffffffffffffff1673ffffffffffffffffffffffffffffffffffffffff1673ffffffffffffffffffffffffffffffffffffffff168152602001908152602001600020549250600a8181548110610d0057610cff612161565b5b9060005260206000200160009054906101000a900473ffffffffffffffffffffffffffffffffffffffff1691505b8080610d399061221f565b915050610bda565b5080600160050160006101000a81548173ffffffffffffffffffffffffffffffffffffffff021916908373ffffffffffffffffffffffffffffffffffffffff160217905550600c60008273ffffffffffffffffffffffffffffffffffffffff1673ffffffffffffffffffffffffffffffffffffffff1681526020019081526020016000206040518060c0016040529081600082015481526020016001820160009054906101000a900473ffffffffffffffffffffffffffffffffffffffff1673ffffffffffffffffffffffffffffffffffffffff1673ffffffffffffffffffffffffffffffffffffffff168152602001600282018054610e40906121bf565b80601f0160208091040260200160405190810160405280929190818152602001828054610e6c906121bf565b8015610eb95780601f10610e8e57610100808354040283529160200191610eb9565b820191906000526020600020905b815481529060010190602001808311610e9c57829003601f168201915b50505050508152602001600382018054610ed2906121bf565b80601f0160208091040260200160405190810160405280929190818152602001828054610efe906121bf565b8015610f4b5780601f10610f2057610100808354040283529160200191610f4b565b820191906000526020600020905b815481529060010190602001808311610f2e57829003601f168201915b50505050508152602001600482018054610f64906121bf565b80601f0160208091040260200160405190810160405280929190818152602001828054610f90906121bf565b8015610fdd5780601f10610fb257610100808354040283529160200191610fdd565b820191906000526020600020905b815481529060010190602001808311610fc057829003601f168201915b505050505081526020016005820154815250509250505090565b60008060000154905081565b61100b611765565b600c60008373ffffffffffffffffffffffffffffffffffffffff1673ffffffffffffffffffffffffffffffffffffffff1681526020019081526020016000206040518060c0016040529081600082015481526020016001820160009054906101000a900473ffffffffffffffffffffffffffffffffffffffff1673ffffffffffffffffffffffffffffffffffffffff1673ffffffffffffffffffffffffffffffffffffffff1681526020016002820180546110c5906121bf565b80601f01602080910402602001604051908101604052809291908181526020018280546110f1906121bf565b801561113e5780601f106111135761010080835404028352916020019161113e565b820191906000526020600020905b81548152906001019060200180831161112157829003601f168201915b50505050508152602001600382018054611157906121bf565b80601f0160208091040260200160405190810160405280929190818152602001828054611183906121bf565b80156111d05780601f106111a5576101008083540402835291602001916111d0565b820191906000526020600020905b8154815290600101906020018083116111b357829003601f168201915b505050505081526020016004820180546111e9906121bf565b80601f0160208091040260200160405190810160405280929190818152602001828054611215906121bf565b80156112625780601f1061123757610100808354040283529160200191611262565b820191906000526020600020905b81548152906001019060200180831161124557829003601f168201915b505050505081526020016005820154815250509050919050565b6112846117b1565b600160405180610120016040529081600082015481526020016001820160009054906101000a900473ffffffffffffffffffffffffffffffffffffffff1673ffffffffffffffffffffffffffffffffffffffff1673ffffffffffffffffffffffffffffffffffffffff168152602001600282018054611302906121bf565b80601f016020809104026020016040519081016040528092919081815260200182805461132e906121bf565b801561137b5780601f106113505761010080835404028352916020019161137b565b820191906000526020600020905b81548152906001019060200180831161135e57829003601f168201915b50505050508152602001600382018054611394906121bf565b80601f01602080910402602001604051908101604052809291908181526020018280546113c0906121bf565b801561140d5780601f106113e25761010080835404028352916020019161140d565b820191906000526020600020905b8154815290600101906020018083116113f057829003601f168201915b505050505081526020016004820160009054906101000a900473ffffffffffffffffffffffffffffffffffffffff1673ffffffffffffffffffffffffffffffffffffffff1673ffffffffffffffffffffffffffffffffffffffff1681526020016005820160009054906101000a900473ffffffffffffffffffffffffffffffffffffffff1673ffffffffffffffffffffffffffffffffffffffff1673ffffffffffffffffffffffffffffffffffffffff1681526020016006820180546114d2906121bf565b80601f01602080910402602001604051908101604052809291908181526020018280546114fe906121bf565b801561154b5780601f106115205761010080835404028352916020019161154b565b820191906000526020600020905b81548152906001019060200180831161152e57829003601f168201915b50505050508152602001600782015481526020016008820160009054906101000a900460ff16600281111561158357611582611ff5565b5b600281111561159557611594611ff5565b5b81525050905090565b6000806001905060005b600b8054905081101561163e578373ffffffffffffffffffffffffffffffffffffffff16600b82815481106115e0576115df612161565b5b9060005260206000200160009054906101000a900473ffffffffffffffffffffffffffffffffffffffff1673ffffffffffffffffffffffffffffffffffffffff160361162b57600091505b80806116369061221f565b9150506115a8565b5080915050919050565b600160040160009054906101000a900473ffffffffffffffffffffffffffffffffffffffff1673ffffffffffffffffffffffffffffffffffffffff163373ffffffffffffffffffffffffffffffffffffffff16146116db576040517f08c379a00000000000000000000000000000000000000000000000000000000081526004016116d29061239c565b60405180910390fd5b600b819080600181540180825580915050600190039060005260206000200160009091909190916101000a81548173ffffffffffffffffffffffffffffffffffffffff021916908373ffffffffffffffffffffffffffffffffffffffff16021790555050565b6001816000016000828254019250508190555050565b600081600001549050919050565b6040518060c0016040528060008152602001600073ffffffffffffffffffffffffffffffffffffffff168152602001606081526020016060815260200160608152602001600081525090565b60405180610120016040528060008152602001600073ffffffffffffffffffffffffffffffffffffffff1681526020016060815260200160608152602001600073ffffffffffffffffffffffffffffffffffffffff168152602001600073ffffffffffffffffffffffffffffffffffffffff16815260200160608152602001600081526020016000600281111561184b5761184a611ff5565b5b81525090565b600081519050919050565b600082825260208201905092915050565b6000819050602082019050919050565b600073ffffffffffffffffffffffffffffffffffffffff82169050919050565b60006118a88261187d565b9050919050565b6118b88161189d565b82525050565b60006118ca83836118af565b60208301905092915050565b6000602082019050919050565b60006118ee82611851565b6118f8818561185c565b93506119038361186d565b8060005b8381101561193457815161191b88826118be565b9750611926836118d6565b925050600181019050611907565b5085935050505092915050565b6000602082019050818103600083015261195b81846118e3565b905092915050565b600081519050919050565b600082825260208201905092915050565b6000819050602082019050919050565b6000819050919050565b6119a28161198f565b82525050565b600081519050919050565b600082825260208201905092915050565b60005b838110156119e25780820151818401526020810190506119c7565b60008484015250505050565b6000601f19601f8301169050919050565b6000611a0a826119a8565b611a1481856119b3565b9350611a248185602086016119c4565b611a2d816119ee565b840191505092915050565b600060c083016000830151611a506000860182611999565b506020830151611a6360208601826118af565b5060408301518482036040860152611a7b82826119ff565b91505060608301518482036060860152611a9582826119ff565b91505060808301518482036080860152611aaf82826119ff565b91505060a0830151611ac460a0860182611999565b508091505092915050565b6000611adb8383611a38565b905092915050565b6000602082019050919050565b6000611afb82611963565b611b05818561196e565b935083602082028501611b178561197f565b8060005b85811015611b535784840389528151611b348582611acf565b9450611b3f83611ae3565b925060208a01995050600181019050611b1b565b50829750879550505050505092915050565b60006020820190508181036000830152611b7f8184611af0565b905092915050565b6000604051905090565b600080fd5b600080fd5b611ba48161189d565b8114611baf57600080fd5b50565b600081359050611bc181611b9b565b92915050565b60008060408385031215611bde57611bdd611b91565b5b6000611bec85828601611bb2565b9250506020611bfd85828601611bb2565b9150509250929050565b60008115159050919050565b611c1c81611c07565b82525050565b6000602082019050611c376000830184611c13565b92915050565b600080fd5b7f4e487b7100000000000000000000000000000000000000000000000000000000600052604160045260246000fd5b611c7a826119ee565b810181811067ffffffffffffffff82111715611c9957611c98611c42565b5b80604052505050565b6000611cac611b87565b9050611cb88282611c71565b919050565b600080fd5b611ccb8161198f565b8114611cd657600080fd5b50565b600081359050611ce881611cc2565b92915050565b600080fd5b600080fd5b600067ffffffffffffffff821115611d1357611d12611c42565b5b611d1c826119ee565b9050602081019050919050565b82818337600083830152505050565b6000611d4b611d4684611cf8565b611ca2565b905082815260208101848484011115611d6757611d66611cf3565b5b611d72848285611d29565b509392505050565b600082601f830112611d8f57611d8e611cee565b5b8135611d9f848260208601611d38565b91505092915050565b600060c08284031215611dbe57611dbd611c3d565b5b611dc860c0611ca2565b90506000611dd884828501611cd9565b6000830152506020611dec84828501611bb2565b602083015250604082013567ffffffffffffffff811115611e1057611e0f611cbd565b5b611e1c84828501611d7a565b604083015250606082013567ffffffffffffffff811115611e4057611e3f611cbd565b5b611e4c84828501611d7a565b606083015250608082013567ffffffffffffffff811115611e7057611e6f611cbd565b5b611e7c84828501611d7a565b60808301525060a0611e9084828501611cd9565b60a08301525092915050565b600060208284031215611eb257611eb1611b91565b5b600082013567ffffffffffffffff811115611ed057611ecf611b96565b5b611edc84828501611da8565b91505092915050565b600060c083016000830151611efd6000860182611999565b506020830151611f1060208601826118af565b5060408301518482036040860152611f2882826119ff565b91505060608301518482036060860152611f4282826119ff565b91505060808301518482036080860152611f5c82826119ff565b91505060a0830151611f7160a0860182611999565b508091505092915050565b60006020820190508181036000830152611f968184611ee5565b905092915050565b611fa78161198f565b82525050565b6000602082019050611fc26000830184611f9e565b92915050565b600060208284031215611fde57611fdd611b91565b5b6000611fec84828501611bb2565b91505092915050565b7f4e487b7100000000000000000000000000000000000000000000000000000000600052602160045260246000fd5b6003811061203557612034611ff5565b5b50565b600081905061204682612024565b919050565b600061205682612038565b9050919050565b6120668161204b565b82525050565b6000610120830160008301516120856000860182611999565b50602083015161209860208601826118af565b50604083015184820360408601526120b082826119ff565b915050606083015184820360608601526120ca82826119ff565b91505060808301516120df60808601826118af565b5060a08301516120f260a08601826118af565b5060c083015184820360c086015261210a82826119ff565b91505060e083015161211f60e0860182611999565b5061010083015161213461010086018261205d565b508091505092915050565b60006020820190508181036000830152612159818461206c565b905092915050565b7f4e487b7100000000000000000000000000000000000000000000000000000000600052603260045260246000fd5b7f4e487b7100000000000000000000000000000000000000000000000000000000600052602260045260246000fd5b600060028204905060018216806121d757607f821691505b6020821081036121ea576121e9612190565b5b50919050565b7f4e487b7100000000000000000000000000000000000000000000000000000000600052601160045260246000fd5b600061222a8261198f565b91507fffffffffffffffffffffffffffffffffffffffffffffffffffffffffffffffff820361225c5761225b6121f0565b5b600182019050919050565b600082825260208201905092915050565b7f5265717569726520656c656374696f6e20737461727400000000000000000000600082015250565b60006122ae601683612267565b91506122b982612278565b602082019050919050565b600060208201905081810360008301526122dd816122a1565b9050919050565b7f55736572206861766520616c726561647920766f746564000000000000000000600082015250565b600061231a601783612267565b9150612325826122e4565b602082019050919050565b600060208201905081810360008301526123498161230d565b9050919050565b7f5265717569726520636f6e74726163742063726561746f720000000000000000600082015250565b6000612386601883612267565b915061239182612350565b602082019050919050565b600060208201905081810360008301526123b581612379565b9050919050565b60008190508160005260206000209050919050565b60006020601f8301049050919050565b600082821b905092915050565b60006008830261241e7fffffffffffffffffffffffffffffffffffffffffffffffffffffffffffffffff826123e1565b61242886836123e1565b95508019841693508086168417925050509392505050565b6000819050919050565b600061246561246061245b8461198f565b612440565b61198f565b9050919050565b6000819050919050565b61247f8361244a565b61249361248b8261246c565b8484546123ee565b825550505050565b600090565b6124a861249b565b6124b3818484612476565b505050565b5b818110156124d7576124cc6000826124a0565b6001810190506124b9565b5050565b601f82111561251c576124ed816123bc565b6124f6846123d1565b81016020851015612505578190505b612519612511856123d1565b8301826124b8565b50505b505050565b600082821c905092915050565b600061253f60001984600802612521565b1980831691505092915050565b6000612558838361252e565b9150826002028217905092915050565b612571826119a8565b67ffffffffffffffff81111561258a57612589611c42565b5b61259482546121bf565b61259f8282856124db565b600060209050601f8311600181146125d257600084156125c0578287015190505b6125ca858261254c565b865550612632565b601f1984166125e0866123bc565b60005b82811015612608578489015182556001820191506020850194506020810190506125e3565b868310156126255784890151612621601f89168261252e565b8355505b6001600288020188555050505b505050505050565b60006126458261198f565b91506126508361198f565b9250828201905080821115612668576126676121f0565b5b9291505056fea2646970667358221220ad0152e7fd3bf9fe5e4738d03c1358855447199d7c4510bcfb646a9a8cf01a1364736f6c63430008110033a264697066735822122073601cc63e3d3abf0b7e15f5f7b6812bc6265f8ca86b72f854cff04c774ef80464736f6c63430008110033",
  "linkReferences": {},
  "deployedLinkReferences": {}
}