{
  "_format": "hh-sol-artifact-1",
  "contractName": "Main",
  "sourceName": "contracts/main.sol",
  "abi": [
    {
      "inputs": [],
      "stateMutability": "nonpayable",
      "type": "constructor"
    },
    {
      "inputs": [],
      "name": "_electionId",
      "outputs": [
        {
          "internalType": "uint256",
          "name": "_value",
          "type": "uint256"
        }
      ],
      "stateMutability": "view",
      "type": "function"
    },
    {
      "inputs": [
        {
          "internalType": "address",
          "name": "_electionAddress",
          "type": "address"
        },
        {
          "internalType": "address",
          "name": "_candidateAddress",
          "type": "address"
        },
        {
          "internalType": "string",
          "name": "_candidateName",
          "type": "string"
        },
        {
          "internalType": "string",
          "name": "_candidateDescription",
          "type": "string"
        },
        {
          "internalType": "string",
          "name": "_candidateIPFS",
          "type": "string"
        }
      ],
      "name": "addCandidate",
      "outputs": [],
      "stateMutability": "nonpayable",
      "type": "function"
    },
    {
      "inputs": [],
      "name": "admin",
      "outputs": [
        {
          "internalType": "address",
          "name": "",
          "type": "address"
        }
      ],
      "stateMutability": "view",
      "type": "function"
    },
    {
      "inputs": [
        {
          "internalType": "string",
          "name": "_nameElection",
          "type": "string"
        },
        {
          "internalType": "string",
          "name": "_descriptionelection",
          "type": "string"
        },
        {
          "internalType": "string",
          "name": "_IPFS",
          "type": "string"
        }
      ],
      "name": "createElection",
      "outputs": [],
      "stateMutability": "nonpayable",
      "type": "function"
    },
    {
      "inputs": [
        {
          "internalType": "address",
          "name": "_electionAddress",
          "type": "address"
        }
      ],
      "name": "endElection",
      "outputs": [],
      "stateMutability": "nonpayable",
      "type": "function"
    },
    {
      "inputs": [
        {
          "internalType": "address",
          "name": "_electionAddress",
          "type": "address"
        },
        {
          "internalType": "address",
          "name": "_candidateAddress",
          "type": "address"
        }
      ],
      "name": "getCandidate",
      "outputs": [
        {
          "components": [
            {
              "internalType": "uint256",
              "name": "candidateId",
              "type": "uint256"
            },
            {
              "internalType": "address",
              "name": "candidateAddress",
              "type": "address"
            },
            {
              "internalType": "string",
              "name": "candidateName",
              "type": "string"
            },
            {
              "internalType": "string",
              "name": "candidateDescription",
              "type": "string"
            },
            {
              "internalType": "string",
              "name": "candidateIPFS",
              "type": "string"
            },
            {
              "internalType": "uint256",
              "name": "numberVoted",
              "type": "uint256"
            }
          ],
          "internalType": "struct Candidate",
          "name": "",
          "type": "tuple"
        }
      ],
      "stateMutability": "view",
      "type": "function"
    },
    {
      "inputs": [
        {
          "internalType": "address",
          "name": "_electionAddress",
          "type": "address"
        }
      ],
      "name": "getCandidates",
      "outputs": [
        {
          "components": [
            {
              "internalType": "uint256",
              "name": "candidateId",
              "type": "uint256"
            },
            {
              "internalType": "address",
              "name": "candidateAddress",
              "type": "address"
            },
            {
              "internalType": "string",
              "name": "candidateName",
              "type": "string"
            },
            {
              "internalType": "string",
              "name": "candidateDescription",
              "type": "string"
            },
            {
              "internalType": "string",
              "name": "candidateIPFS",
              "type": "string"
            },
            {
              "internalType": "uint256",
              "name": "numberVoted",
              "type": "uint256"
            }
          ],
          "internalType": "struct Candidate[]",
          "name": "",
          "type": "tuple[]"
        }
      ],
      "stateMutability": "view",
      "type": "function"
    },
    {
      "inputs": [
        {
          "internalType": "address",
          "name": "_electionAddress",
          "type": "address"
        }
      ],
      "name": "getElection",
      "outputs": [
        {
          "components": [
            {
              "internalType": "uint256",
              "name": "id",
              "type": "uint256"
            },
            {
              "internalType": "address",
              "name": "electionAddress",
              "type": "address"
            },
            {
              "internalType": "string",
              "name": "name",
              "type": "string"
            },
            {
              "internalType": "string",
              "name": "descriptionElection",
              "type": "string"
            },
            {
              "internalType": "address",
              "name": "controllerAddress",
              "type": "address"
            },
            {
              "internalType": "address",
              "name": "wonAddress",
              "type": "address"
            },
            {
              "internalType": "string",
              "name": "IPFS",
              "type": "string"
            },
            {
              "internalType": "enum State",
              "name": "state",
              "type": "uint8"
            }
          ],
          "internalType": "struct ElectionModel",
          "name": "",
          "type": "tuple"
        }
      ],
      "stateMutability": "view",
      "type": "function"
    },
    {
      "inputs": [],
      "name": "getElections",
      "outputs": [
        {
          "components": [
            {
              "internalType": "uint256",
              "name": "id",
              "type": "uint256"
            },
            {
              "internalType": "address",
              "name": "electionAddress",
              "type": "address"
            },
            {
              "internalType": "string",
              "name": "name",
              "type": "string"
            },
            {
              "internalType": "string",
              "name": "descriptionElection",
              "type": "string"
            },
            {
              "internalType": "address",
              "name": "controllerAddress",
              "type": "address"
            },
            {
              "internalType": "address",
              "name": "wonAddress",
              "type": "address"
            },
            {
              "internalType": "string",
              "name": "IPFS",
              "type": "string"
            },
            {
              "internalType": "enum State",
              "name": "state",
              "type": "uint8"
            }
          ],
          "internalType": "struct ElectionModel[]",
          "name": "",
          "type": "tuple[]"
        }
      ],
      "stateMutability": "view",
      "type": "function"
    },
    {
      "inputs": [
        {
          "internalType": "address",
          "name": "_electionAddress",
          "type": "address"
        }
      ],
      "name": "getUsers",
      "outputs": [
        {
          "internalType": "address[]",
          "name": "",
          "type": "address[]"
        }
      ],
      "stateMutability": "view",
      "type": "function"
    },
    {
      "inputs": [
        {
          "internalType": "address",
          "name": "_electionAddress",
          "type": "address"
        }
      ],
      "name": "getWonElection",
      "outputs": [
        {
          "components": [
            {
              "internalType": "uint256",
              "name": "candidateId",
              "type": "uint256"
            },
            {
              "internalType": "address",
              "name": "candidateAddress",
              "type": "address"
            },
            {
              "internalType": "string",
              "name": "candidateName",
              "type": "string"
            },
            {
              "internalType": "string",
              "name": "candidateDescription",
              "type": "string"
            },
            {
              "internalType": "string",
              "name": "candidateIPFS",
              "type": "string"
            },
            {
              "internalType": "uint256",
              "name": "numberVoted",
              "type": "uint256"
            }
          ],
          "internalType": "struct Candidate",
          "name": "",
          "type": "tuple"
        }
      ],
      "stateMutability": "nonpayable",
      "type": "function"
    },
    {
      "inputs": [
        {
          "internalType": "address",
          "name": "_electionAddress",
          "type": "address"
        }
      ],
      "name": "startElection",
      "outputs": [],
      "stateMutability": "nonpayable",
      "type": "function"
    },
    {
      "inputs": [
        {
          "internalType": "address",
          "name": "_electionAddress",
          "type": "address"
        },
        {
          "internalType": "address",
          "name": "_candidateAddress",
          "type": "address"
        }
      ],
      "name": "vote",
      "outputs": [
        {
          "internalType": "bool",
          "name": "",
          "type": "bool"
        }
      ],
      "stateMutability": "nonpayable",
      "type": "function"
    }
  ],
  "bytecode": "0x608060405234801561001057600080fd5b5033600160006101000a81548173ffffffffffffffffffffffffffffffffffffffff021916908373ffffffffffffffffffffffffffffffffffffffff160217905550614dfe806100616000396000f3fe60806040523480156200001157600080fd5b5060043610620000e25760003560e01c80638ff04b411162000099578063b275f308116200006f578063b275f3081462000277578063e6a5e61d14620002ad578063f32656f814620002cd578063f851a44014620002ef57620000e2565b80638ff04b4114620001ff5780639f3a7f52146200021f578063a26ac665146200024157620000e2565b806307e4b70a14620000e75780631afa74e514620001075780633bd6b3dd146200013d5780633eefa56b14620001735780634a6cf3a914620001a9578063602b386e14620001c9575b600080fd5b620001056004803603810190620000ff919062000e6e565b62000311565b005b6200012560048036038101906200011f919062000ea0565b6200040f565b60405162000134919062000f04565b60405180910390f35b6200015b600480360381019062000155919062000e6e565b620004a2565b6040516200016a91906200108a565b60405180910390f35b6200019160048036038101906200018b919062000e6e565b62000532565b604051620001a0919062001221565b60405180910390f35b620001c76004803603810190620001c1919062001396565b620005b8565b005b620001e76004803603810190620001e1919062000e6e565b62000716565b604051620001f691906200150c565b60405180910390f35b6200021d600480360381019062000217919062001530565b6200079b565b005b6200022962000907565b60405162000238919062001833565b60405180910390f35b6200025f600480360381019062000259919062000ea0565b62000a7b565b6040516200026e91906200108a565b60405180910390f35b6200029560048036038101906200028f919062000e6e565b62000b17565b604051620002a4919062001925565b60405180910390f35b620002cb6004803603810190620002c5919062000e6e565b62000bab565b005b620002d762000ca9565b604051620002e691906200195a565b60405180910390f35b620002f962000cb5565b60405162000308919062001988565b60405180910390f35b3373ffffffffffffffffffffffffffffffffffffffff16600160009054906101000a900473ffffffffffffffffffffffffffffffffffffffff1673ffffffffffffffffffffffffffffffffffffffff1614620003a4576040517f08c379a00000000000000000000000000000000000000000000000000000000081526004016200039b9062001a06565b60405180910390fd5b60008190508073ffffffffffffffffffffffffffffffffffffffff166359f784686040518163ffffffff1660e01b8152600401600060405180830381600087803b158015620003f257600080fd5b505af115801562000407573d6000803e3d6000fd5b505050505050565b6000808390508073ffffffffffffffffffffffffffffffffffffffff16636dd7d8ea846040518263ffffffff1660e01b815260040162000450919062001988565b6020604051808303816000875af115801562000470573d6000803e3d6000fd5b505050506040513d601f19601f8201168201806040525081019062000496919062001a59565b50600191505092915050565b620004ac62000cff565b60008290508073ffffffffffffffffffffffffffffffffffffffff1663699f074c6040518163ffffffff1660e01b81526004016000604051808303816000875af1158015620004ff573d6000803e3d6000fd5b505050506040513d6000823e3d601f19601f820116820180604052508101906200052a919062001c69565b915050919050565b606060008290508073ffffffffffffffffffffffffffffffffffffffff166306a49fce6040518163ffffffff1660e01b8152600401600060405180830381865afa15801562000585573d6000803e3d6000fd5b505050506040513d6000823e3d601f19601f82011682018060405250810190620005b0919062001db6565b915050919050565b3373ffffffffffffffffffffffffffffffffffffffff16600160009054906101000a900473ffffffffffffffffffffffffffffffffffffffff1673ffffffffffffffffffffffffffffffffffffffff16146200064b576040517f08c379a0000000000000000000000000000000000000000000000000000000008152600401620006429062001a06565b60405180910390fd5b62000657600062000cdb565b600062000665600062000cf1565b9050600081308686866040516200067c9062000d4b565b6200068c95949392919062001e48565b604051809103906000f080158015620006a9573d6000803e3d6000fd5b5090506002819080600181540180825580915050600190039060005260206000200160009091909190916101000a81548173ffffffffffffffffffffffffffffffffffffffff021916908373ffffffffffffffffffffffffffffffffffffffff1602179055505050505050565b606060008290508073ffffffffffffffffffffffffffffffffffffffff1662ce8e3e6040518163ffffffff1660e01b8152600401600060405180830381865afa15801562000768573d6000803e3d6000fd5b505050506040513d6000823e3d601f19601f8201168201806040525081019062000793919062001f90565b915050919050565b3373ffffffffffffffffffffffffffffffffffffffff16600160009054906101000a900473ffffffffffffffffffffffffffffffffffffffff1673ffffffffffffffffffffffffffffffffffffffff16146200082e576040517f08c379a0000000000000000000000000000000000000000000000000000000008152600401620008259062001a06565b60405180910390fd5b60006040518060c00160405280600081526020018673ffffffffffffffffffffffffffffffffffffffff1681526020018581526020018481526020018381526020016000815250905060008690508073ffffffffffffffffffffffffffffffffffffffff16635f9c6185836040518263ffffffff1660e01b8152600401620008b791906200108a565b6020604051808303816000875af1158015620008d7573d6000803e3d6000fd5b505050506040513d601f19601f82011682018060405250810190620008fd919062001a59565b5050505050505050565b6060600060028054905067ffffffffffffffff8111156200092d576200092c6200124f565b5b6040519080825280602002602001820160405280156200096a57816020015b6200095662000d59565b8152602001906001900390816200094c5790505b50905060005b60028054905081101562000a735760006002828154811062000997576200099662001fe1565b5b9060005260206000200160009054906101000a900473ffffffffffffffffffffffffffffffffffffffff1690508073ffffffffffffffffffffffffffffffffffffffff1663eceed3396040518163ffffffff1660e01b8152600401600060405180830381865afa15801562000a10573d6000803e3d6000fd5b505050506040513d6000823e3d601f19601f8201168201806040525081019062000a3b919062002174565b83838151811062000a515762000a5062001fe1565b5b602002602001018190525050808062000a6a90620021f4565b91505062000970565b508091505090565b62000a8562000cff565b60008390508073ffffffffffffffffffffffffffffffffffffffff1663b7adcf1d846040518263ffffffff1660e01b815260040162000ac5919062001988565b600060405180830381865afa15801562000ae3573d6000803e3d6000fd5b505050506040513d6000823e3d601f19601f8201168201806040525081019062000b0e919062001c69565b91505092915050565b62000b2162000d59565b600082905060008173ffffffffffffffffffffffffffffffffffffffff1663eceed3396040518163ffffffff1660e01b8152600401600060405180830381865afa15801562000b74573d6000803e3d6000fd5b505050506040513d6000823e3d601f19601f8201168201806040525081019062000b9f919062002174565b90508092505050919050565b3373ffffffffffffffffffffffffffffffffffffffff16600160009054906101000a900473ffffffffffffffffffffffffffffffffffffffff1673ffffffffffffffffffffffffffffffffffffffff161462000c3e576040517f08c379a000000000000000000000000000000000000000000000000000000000815260040162000c359062001a06565b60405180910390fd5b60008190508073ffffffffffffffffffffffffffffffffffffffff166362d73eb86040518163ffffffff1660e01b8152600401600060405180830381600087803b15801562000c8c57600080fd5b505af115801562000ca1573d6000803e3d6000fd5b505050505050565b60008060000154905081565b600160009054906101000a900473ffffffffffffffffffffffffffffffffffffffff1681565b6001816000016000828254019250508190555050565b600081600001549050919050565b6040518060c0016040528060008152602001600073ffffffffffffffffffffffffffffffffffffffff168152602001606081526020016060815260200160608152602001600081525090565b612b87806200224283390190565b60405180610100016040528060008152602001600073ffffffffffffffffffffffffffffffffffffffff1681526020016060815260200160608152602001600073ffffffffffffffffffffffffffffffffffffffff168152602001600073ffffffffffffffffffffffffffffffffffffffff168152602001606081526020016000600281111562000def5762000dee62001641565b5b81525090565b6000604051905090565b600080fd5b600080fd5b600073ffffffffffffffffffffffffffffffffffffffff82169050919050565b600062000e368262000e09565b9050919050565b62000e488162000e29565b811462000e5457600080fd5b50565b60008135905062000e688162000e3d565b92915050565b60006020828403121562000e875762000e8662000dff565b5b600062000e978482850162000e57565b91505092915050565b6000806040838503121562000eba5762000eb962000dff565b5b600062000eca8582860162000e57565b925050602062000edd8582860162000e57565b9150509250929050565b60008115159050919050565b62000efe8162000ee7565b82525050565b600060208201905062000f1b600083018462000ef3565b92915050565b6000819050919050565b62000f368162000f21565b82525050565b62000f478162000e29565b82525050565b600081519050919050565b600082825260208201905092915050565b60005b8381101562000f8957808201518184015260208101905062000f6c565b60008484015250505050565b6000601f19601f8301169050919050565b600062000fb38262000f4d565b62000fbf818562000f58565b935062000fd181856020860162000f69565b62000fdc8162000f95565b840191505092915050565b600060c08301600083015162001001600086018262000f2b565b50602083015162001016602086018262000f3c565b506040830151848203604086015262001030828262000fa6565b915050606083015184820360608601526200104c828262000fa6565b9150506080830151848203608086015262001068828262000fa6565b91505060a08301516200107f60a086018262000f2b565b508091505092915050565b60006020820190508181036000830152620010a6818462000fe7565b905092915050565b600081519050919050565b600082825260208201905092915050565b6000819050602082019050919050565b600060c083016000830151620010f4600086018262000f2b565b50602083015162001109602086018262000f3c565b506040830151848203604086015262001123828262000fa6565b915050606083015184820360608601526200113f828262000fa6565b915050608083015184820360808601526200115b828262000fa6565b91505060a08301516200117260a086018262000f2b565b508091505092915050565b60006200118b8383620010da565b905092915050565b6000602082019050919050565b6000620011ad82620010ae565b620011b98185620010b9565b935083602082028501620011cd85620010ca565b8060005b858110156200120f5784840389528151620011ed85826200117d565b9450620011fa8362001193565b925060208a01995050600181019050620011d1565b50829750879550505050505092915050565b600060208201905081810360008301526200123d8184620011a0565b905092915050565b600080fd5b600080fd5b7f4e487b7100000000000000000000000000000000000000000000000000000000600052604160045260246000fd5b620012898262000f95565b810181811067ffffffffffffffff82111715620012ab57620012aa6200124f565b5b80604052505050565b6000620012c062000df5565b9050620012ce82826200127e565b919050565b600067ffffffffffffffff821115620012f157620012f06200124f565b5b620012fc8262000f95565b9050602081019050919050565b82818337600083830152505050565b60006200132f6200132984620012d3565b620012b4565b9050828152602081018484840111156200134e576200134d6200124a565b5b6200135b84828562001309565b509392505050565b600082601f8301126200137b576200137a62001245565b5b81356200138d84826020860162001318565b91505092915050565b600080600060608486031215620013b257620013b162000dff565b5b600084013567ffffffffffffffff811115620013d357620013d262000e04565b5b620013e18682870162001363565b935050602084013567ffffffffffffffff81111562001405576200140462000e04565b5b620014138682870162001363565b925050604084013567ffffffffffffffff81111562001437576200143662000e04565b5b620014458682870162001363565b9150509250925092565b600081519050919050565b600082825260208201905092915050565b6000819050602082019050919050565b600062001489838362000f3c565b60208301905092915050565b6000602082019050919050565b6000620014af826200144f565b620014bb81856200145a565b9350620014c8836200146b565b8060005b83811015620014ff578151620014e388826200147b565b9750620014f08362001495565b925050600181019050620014cc565b5085935050505092915050565b60006020820190508181036000830152620015288184620014a2565b905092915050565b600080600080600060a086880312156200154f576200154e62000dff565b5b60006200155f8882890162000e57565b9550506020620015728882890162000e57565b945050604086013567ffffffffffffffff81111562001596576200159562000e04565b5b620015a48882890162001363565b935050606086013567ffffffffffffffff811115620015c857620015c762000e04565b5b620015d68882890162001363565b925050608086013567ffffffffffffffff811115620015fa57620015f962000e04565b5b620016088882890162001363565b9150509295509295909350565b600081519050919050565b600082825260208201905092915050565b6000819050602082019050919050565b7f4e487b7100000000000000000000000000000000000000000000000000000000600052602160045260246000fd5b6003811062001684576200168362001641565b5b50565b6000819050620016978262001670565b919050565b6000620016a98262001687565b9050919050565b620016bb816200169c565b82525050565b600061010083016000830151620016dc600086018262000f2b565b506020830151620016f1602086018262000f3c565b50604083015184820360408601526200170b828262000fa6565b9150506060830151848203606086015262001727828262000fa6565b91505060808301516200173e608086018262000f3c565b5060a08301516200175360a086018262000f3c565b5060c083015184820360c08601526200176d828262000fa6565b91505060e08301516200178460e0860182620016b0565b508091505092915050565b60006200179d8383620016c1565b905092915050565b6000602082019050919050565b6000620017bf8262001615565b620017cb818562001620565b935083602082028501620017df8562001631565b8060005b85811015620018215784840389528151620017ff85826200178f565b94506200180c83620017a5565b925060208a01995050600181019050620017e3565b50829750879550505050505092915050565b600060208201905081810360008301526200184f8184620017b2565b905092915050565b60006101008301600083015162001872600086018262000f2b565b50602083015162001887602086018262000f3c565b5060408301518482036040860152620018a1828262000fa6565b91505060608301518482036060860152620018bd828262000fa6565b9150506080830151620018d4608086018262000f3c565b5060a0830151620018e960a086018262000f3c565b5060c083015184820360c086015262001903828262000fa6565b91505060e08301516200191a60e0860182620016b0565b508091505092915050565b6000602082019050818103600083015262001941818462001857565b905092915050565b620019548162000f21565b82525050565b600060208201905062001971600083018462001949565b92915050565b620019828162000e29565b82525050565b60006020820190506200199f600083018462001977565b92915050565b600082825260208201905092915050565b7f526571756972652061646d696e20616363657373000000000000000000000000600082015250565b6000620019ee601483620019a5565b9150620019fb82620019b6565b602082019050919050565b6000602082019050818103600083015262001a2181620019df565b9050919050565b62001a338162000ee7565b811462001a3f57600080fd5b50565b60008151905062001a538162001a28565b92915050565b60006020828403121562001a725762001a7162000dff565b5b600062001a828482850162001a42565b91505092915050565b600080fd5b600080fd5b62001aa08162000f21565b811462001aac57600080fd5b50565b60008151905062001ac08162001a95565b92915050565b60008151905062001ad78162000e3d565b92915050565b600062001af462001aee84620012d3565b620012b4565b90508281526020810184848401111562001b135762001b126200124a565b5b62001b2084828562000f69565b509392505050565b600082601f83011262001b405762001b3f62001245565b5b815162001b5284826020860162001add565b91505092915050565b600060c0828403121562001b745762001b7362001a8b565b5b62001b8060c0620012b4565b9050600062001b928482850162001aaf565b600083015250602062001ba88482850162001ac6565b602083015250604082015167ffffffffffffffff81111562001bcf5762001bce62001a90565b5b62001bdd8482850162001b28565b604083015250606082015167ffffffffffffffff81111562001c045762001c0362001a90565b5b62001c128482850162001b28565b606083015250608082015167ffffffffffffffff81111562001c395762001c3862001a90565b5b62001c478482850162001b28565b60808301525060a062001c5d8482850162001aaf565b60a08301525092915050565b60006020828403121562001c825762001c8162000dff565b5b600082015167ffffffffffffffff81111562001ca35762001ca262000e04565b5b62001cb18482850162001b5b565b91505092915050565b600067ffffffffffffffff82111562001cd85762001cd76200124f565b5b602082029050602081019050919050565b600080fd5b600062001d0562001cff8462001cba565b620012b4565b9050808382526020820190506020840283018581111562001d2b5762001d2a62001ce9565b5b835b8181101562001d7957805167ffffffffffffffff81111562001d545762001d5362001245565b5b80860162001d63898262001b5b565b8552602085019450505060208101905062001d2d565b5050509392505050565b600082601f83011262001d9b5762001d9a62001245565b5b815162001dad84826020860162001cee565b91505092915050565b60006020828403121562001dcf5762001dce62000dff565b5b600082015167ffffffffffffffff81111562001df05762001def62000e04565b5b62001dfe8482850162001d83565b91505092915050565b600062001e148262000f4d565b62001e208185620019a5565b935062001e3281856020860162000f69565b62001e3d8162000f95565b840191505092915050565b600060a08201905062001e5f600083018862001949565b62001e6e602083018762001977565b818103604083015262001e82818662001e07565b9050818103606083015262001e98818562001e07565b9050818103608083015262001eae818462001e07565b90509695505050505050565b600067ffffffffffffffff82111562001ed85762001ed76200124f565b5b602082029050602081019050919050565b600062001f0062001efa8462001eba565b620012b4565b9050808382526020820190506020840283018581111562001f265762001f2562001ce9565b5b835b8181101562001f53578062001f3e888262001ac6565b84526020840193505060208101905062001f28565b5050509392505050565b600082601f83011262001f755762001f7462001245565b5b815162001f8784826020860162001ee9565b91505092915050565b60006020828403121562001fa95762001fa862000dff565b5b600082015167ffffffffffffffff81111562001fca5762001fc962000e04565b5b62001fd88482850162001f5d565b91505092915050565b7f4e487b7100000000000000000000000000000000000000000000000000000000600052603260045260246000fd5b600381106200201e57600080fd5b50565b600081519050620020328162002010565b92915050565b6000610100828403121562002052576200205162001a8b565b5b6200205f610100620012b4565b90506000620020718482850162001aaf565b6000830152506020620020878482850162001ac6565b602083015250604082015167ffffffffffffffff811115620020ae57620020ad62001a90565b5b620020bc8482850162001b28565b604083015250606082015167ffffffffffffffff811115620020e357620020e262001a90565b5b620020f18482850162001b28565b6060830152506080620021078482850162001ac6565b60808301525060a06200211d8482850162001ac6565b60a08301525060c082015167ffffffffffffffff81111562002144576200214362001a90565b5b620021528482850162001b28565b60c08301525060e0620021688482850162002021565b60e08301525092915050565b6000602082840312156200218d576200218c62000dff565b5b600082015167ffffffffffffffff811115620021ae57620021ad62000e04565b5b620021bc8482850162002038565b91505092915050565b7f4e487b7100000000000000000000000000000000000000000000000000000000600052601160045260246000fd5b6000620022018262000f21565b91507fffffffffffffffffffffffffffffffffffffffffffffffffffffffffffffffff8203620022365762002235620021c5565b5b60018201905091905056fe60806040523480156200001157600080fd5b5060405162002b8738038062002b878339818101604052810190620000379190620003bb565b846001600001819055506000600160070160006101000a81548160ff021916908360028111156200006d576200006c620004a0565b5b021790555083600160040160006101000a81548173ffffffffffffffffffffffffffffffffffffffff021916908373ffffffffffffffffffffffffffffffffffffffff1602179055508160016003019081620000ca919062000710565b508260016002019081620000df919062000710565b508060016006019081620000f4919062000710565b50306001800160006101000a81548173ffffffffffffffffffffffffffffffffffffffff021916908373ffffffffffffffffffffffffffffffffffffffff1602179055506000600160050160006101000a81548173ffffffffffffffffffffffffffffffffffffffff021916908373ffffffffffffffffffffffffffffffffffffffff1602179055505050505050620007f7565b6000604051905090565b600080fd5b600080fd5b6000819050919050565b620001b1816200019c565b8114620001bd57600080fd5b50565b600081519050620001d181620001a6565b92915050565b600073ffffffffffffffffffffffffffffffffffffffff82169050919050565b60006200020482620001d7565b9050919050565b6200021681620001f7565b81146200022257600080fd5b50565b60008151905062000236816200020b565b92915050565b600080fd5b600080fd5b6000601f19601f8301169050919050565b7f4e487b7100000000000000000000000000000000000000000000000000000000600052604160045260246000fd5b620002918262000246565b810181811067ffffffffffffffff82111715620002b357620002b262000257565b5b80604052505050565b6000620002c862000188565b9050620002d6828262000286565b919050565b600067ffffffffffffffff821115620002f957620002f862000257565b5b620003048262000246565b9050602081019050919050565b60005b838110156200033157808201518184015260208101905062000314565b60008484015250505050565b6000620003546200034e84620002db565b620002bc565b90508281526020810184848401111562000373576200037262000241565b5b6200038084828562000311565b509392505050565b600082601f830112620003a0576200039f6200023c565b5b8151620003b28482602086016200033d565b91505092915050565b600080600080600060a08688031215620003da57620003d962000192565b5b6000620003ea88828901620001c0565b9550506020620003fd8882890162000225565b945050604086015167ffffffffffffffff81111562000421576200042062000197565b5b6200042f8882890162000388565b935050606086015167ffffffffffffffff81111562000453576200045262000197565b5b620004618882890162000388565b925050608086015167ffffffffffffffff81111562000485576200048462000197565b5b620004938882890162000388565b9150509295509295909350565b7f4e487b7100000000000000000000000000000000000000000000000000000000600052602160045260246000fd5b600081519050919050565b7f4e487b7100000000000000000000000000000000000000000000000000000000600052602260045260246000fd5b600060028204905060018216806200052257607f821691505b602082108103620005385762000537620004da565b5b50919050565b60008190508160005260206000209050919050565b60006020601f8301049050919050565b600082821b905092915050565b600060088302620005a27fffffffffffffffffffffffffffffffffffffffffffffffffffffffffffffffff8262000563565b620005ae868362000563565b95508019841693508086168417925050509392505050565b6000819050919050565b6000620005f1620005eb620005e5846200019c565b620005c6565b6200019c565b9050919050565b6000819050919050565b6200060d83620005d0565b620006256200061c82620005f8565b84845462000570565b825550505050565b600090565b6200063c6200062d565b6200064981848462000602565b505050565b5b8181101562000671576200066560008262000632565b6001810190506200064f565b5050565b601f821115620006c0576200068a816200053e565b620006958462000553565b81016020851015620006a5578190505b620006bd620006b48562000553565b8301826200064e565b50505b505050565b600082821c905092915050565b6000620006e560001984600802620006c5565b1980831691505092915050565b6000620007008383620006d2565b9150826002028217905092915050565b6200071b82620004cf565b67ffffffffffffffff81111562000737576200073662000257565b5b62000743825462000509565b6200075082828562000675565b600060209050601f83116001811462000788576000841562000773578287015190505b6200077f8582620006f2565b865550620007ef565b601f19841662000798866200053e565b60005b82811015620007c2578489015182556001820191506020850194506020810190506200079b565b86831015620007e25784890151620007de601f891682620006d2565b8355505b6001600288020188555050505b505050505050565b61238080620008076000396000f3fe608060405234801561001057600080fd5b50600436106100b35760003560e01c8063699f074c11610071578063699f074c146101545780636dd7d8ea14610172578063a7388967146101a2578063b7adcf1d146101c0578063cbff75cb146101f0578063eceed33914610220576100b3565b8062ce8e3e146100b857806306a49fce146100d657806316e7a45e146100f457806359f78468146101105780635f9c61851461011a57806362d73eb81461014a575b600080fd5b6100c061023e565b6040516100cd9190611712565b60405180910390f35b6100de6102cc565b6040516100eb9190611936565b60405180910390f35b61010e60048036038101906101099190611998565b610623565b005b610118610689565b005b610134600480360381019061012f9190611c24565b61074c565b6040516101419190611c88565b60405180910390f35b6101526108c7565b005b61015c610989565b6040516101699190611d3a565b60405180910390f35b61018c60048036038101906101879190611998565b610db7565b6040516101999190611c88565b60405180910390f35b6101aa610ed2565b6040516101b79190611d6b565b60405180910390f35b6101da60048036038101906101d59190611998565b610ede565b6040516101e79190611d3a565b60405180910390f35b61020a60048036038101906102059190611998565b611157565b6040516102179190611c88565b60405180910390f35b610228611201565b6040516102359190611ebb565b60405180910390f35b6060600a8054806020026020016040519081016040528092919081815260200182805480156102c257602002820191906000526020600020905b8160009054906101000a900473ffffffffffffffffffffffffffffffffffffffff1673ffffffffffffffffffffffffffffffffffffffff1681526020019060010190808311610278575b5050505050905090565b60606000600980549050905060008167ffffffffffffffff8111156102f4576102f36119ca565b5b60405190808252806020026020018201604052801561032d57816020015b61031a61153d565b8152602001906001900390816103125790505b50905060005b8281101561061a5760006009828154811061035157610350611edd565b5b9060005260206000200160009054906101000a900473ffffffffffffffffffffffffffffffffffffffff169050600b60008273ffffffffffffffffffffffffffffffffffffffff1673ffffffffffffffffffffffffffffffffffffffff1681526020019081526020016000206040518060c0016040529081600082015481526020016001820160009054906101000a900473ffffffffffffffffffffffffffffffffffffffff1673ffffffffffffffffffffffffffffffffffffffff1673ffffffffffffffffffffffffffffffffffffffff16815260200160028201805461043890611f3b565b80601f016020809104026020016040519081016040528092919081815260200182805461046490611f3b565b80156104b15780601f10610486576101008083540402835291602001916104b1565b820191906000526020600020905b81548152906001019060200180831161049457829003601f168201915b505050505081526020016003820180546104ca90611f3b565b80601f01602080910402602001604051908101604052809291908181526020018280546104f690611f3b565b80156105435780601f1061051857610100808354040283529160200191610543565b820191906000526020600020905b81548152906001019060200180831161052657829003601f168201915b5050505050815260200160048201805461055c90611f3b565b80601f016020809104026020016040519081016040528092919081815260200182805461058890611f3b565b80156105d55780601f106105aa576101008083540402835291602001916105d5565b820191906000526020600020905b8154815290600101906020018083116105b857829003601f168201915b505050505081526020016005820154815250508383815181106105fb576105fa611edd565b5b602002602001018190525050808061061290611f9b565b915050610333565b50809250505090565b600a819080600181540180825580915050600190039060005260206000200160009091909190916101000a81548173ffffffffffffffffffffffffffffffffffffffff021916908373ffffffffffffffffffffffffffffffffffffffff16021790555050565b600160040160009054906101000a900473ffffffffffffffffffffffffffffffffffffffff1673ffffffffffffffffffffffffffffffffffffffff163373ffffffffffffffffffffffffffffffffffffffff161461071c576040517f08c379a000000000000000000000000000000000000000000000000000000000815260040161071390612040565b60405180910390fd5b6002600160070160006101000a81548160ff0219169083600281111561074557610744611d86565b5b0217905550565b60006107586000611519565b6000610764600061152f565b9050600083602001519050818460000181815250506009819080600181540180825580915050600190039060005260206000200160009091909190916101000a81548173ffffffffffffffffffffffffffffffffffffffff021916908373ffffffffffffffffffffffffffffffffffffffff16021790555083600b60008373ffffffffffffffffffffffffffffffffffffffff1673ffffffffffffffffffffffffffffffffffffffff1681526020019081526020016000206000820151816000015560208201518160010160006101000a81548173ffffffffffffffffffffffffffffffffffffffff021916908373ffffffffffffffffffffffffffffffffffffffff1602179055506040820151816002019081610882919061220c565b506060820151816003019081610898919061220c565b5060808201518160040190816108ae919061220c565b5060a08201518160050155905050600192505050919050565b600160040160009054906101000a900473ffffffffffffffffffffffffffffffffffffffff1673ffffffffffffffffffffffffffffffffffffffff163373ffffffffffffffffffffffffffffffffffffffff161461095a576040517f08c379a000000000000000000000000000000000000000000000000000000000815260040161095190612040565b60405180910390fd5b60018060070160006101000a81548160ff0219169083600281111561098257610981611d86565b5b0217905550565b61099161153d565b60008080600090505b600980549050811015610b0157600c6000600983815481106109bf576109be611edd565b5b9060005260206000200160009054906101000a900473ffffffffffffffffffffffffffffffffffffffff1673ffffffffffffffffffffffffffffffffffffffff1673ffffffffffffffffffffffffffffffffffffffff16815260200190815260200160002054831015610aee57600c600060098381548110610a4457610a43611edd565b5b9060005260206000200160009054906101000a900473ffffffffffffffffffffffffffffffffffffffff1673ffffffffffffffffffffffffffffffffffffffff1673ffffffffffffffffffffffffffffffffffffffff16815260200190815260200160002054925060098181548110610ac057610abf611edd565b5b9060005260206000200160009054906101000a900473ffffffffffffffffffffffffffffffffffffffff1691505b8080610af990611f9b565b91505061099a565b5080600160050160006101000a81548173ffffffffffffffffffffffffffffffffffffffff021916908373ffffffffffffffffffffffffffffffffffffffff160217905550600b60008273ffffffffffffffffffffffffffffffffffffffff1673ffffffffffffffffffffffffffffffffffffffff1681526020019081526020016000206040518060c0016040529081600082015481526020016001820160009054906101000a900473ffffffffffffffffffffffffffffffffffffffff1673ffffffffffffffffffffffffffffffffffffffff1673ffffffffffffffffffffffffffffffffffffffff168152602001600282018054610c0090611f3b565b80601f0160208091040260200160405190810160405280929190818152602001828054610c2c90611f3b565b8015610c795780601f10610c4e57610100808354040283529160200191610c79565b820191906000526020600020905b815481529060010190602001808311610c5c57829003601f168201915b50505050508152602001600382018054610c9290611f3b565b80601f0160208091040260200160405190810160405280929190818152602001828054610cbe90611f3b565b8015610d0b5780601f10610ce057610100808354040283529160200191610d0b565b820191906000526020600020905b815481529060010190602001808311610cee57829003601f168201915b50505050508152602001600482018054610d2490611f3b565b80601f0160208091040260200160405190810160405280929190818152602001828054610d5090611f3b565b8015610d9d5780601f10610d7257610100808354040283529160200191610d9d565b820191906000526020600020905b815481529060010190602001808311610d8057829003601f168201915b505050505081526020016005820154815250509250505090565b600060016002811115610dcd57610dcc611d86565b5b600160070160009054906101000a900460ff166002811115610df257610df1611d86565b5b14610e32576040517f08c379a0000000000000000000000000000000000000000000000000000000008152600401610e299061232a565b60405180910390fd5b6000600c60008473ffffffffffffffffffffffffffffffffffffffff1673ffffffffffffffffffffffffffffffffffffffff1681526020019081526020016000205490508080610e8190611f9b565b91505080600c60008573ffffffffffffffffffffffffffffffffffffffff1673ffffffffffffffffffffffffffffffffffffffff168152602001908152602001600020819055506001915050919050565b60008060000154905081565b610ee661153d565b600b60008373ffffffffffffffffffffffffffffffffffffffff1673ffffffffffffffffffffffffffffffffffffffff1681526020019081526020016000206040518060c0016040529081600082015481526020016001820160009054906101000a900473ffffffffffffffffffffffffffffffffffffffff1673ffffffffffffffffffffffffffffffffffffffff1673ffffffffffffffffffffffffffffffffffffffff168152602001600282018054610fa090611f3b565b80601f0160208091040260200160405190810160405280929190818152602001828054610fcc90611f3b565b80156110195780601f10610fee57610100808354040283529160200191611019565b820191906000526020600020905b815481529060010190602001808311610ffc57829003601f168201915b5050505050815260200160038201805461103290611f3b565b80601f016020809104026020016040519081016040528092919081815260200182805461105e90611f3b565b80156110ab5780601f10611080576101008083540402835291602001916110ab565b820191906000526020600020905b81548152906001019060200180831161108e57829003601f168201915b505050505081526020016004820180546110c490611f3b565b80601f01602080910402602001604051908101604052809291908181526020018280546110f090611f3b565b801561113d5780601f106111125761010080835404028352916020019161113d565b820191906000526020600020905b81548152906001019060200180831161112057829003601f168201915b505050505081526020016005820154815250509050919050565b6000806001905060005b600a805490508110156111f7578373ffffffffffffffffffffffffffffffffffffffff16600a828154811061119957611198611edd565b5b9060005260206000200160009054906101000a900473ffffffffffffffffffffffffffffffffffffffff1673ffffffffffffffffffffffffffffffffffffffff16036111e457600091505b80806111ef90611f9b565b915050611161565b5080915050919050565b611209611589565b600160405180610100016040529081600082015481526020016001820160009054906101000a900473ffffffffffffffffffffffffffffffffffffffff1673ffffffffffffffffffffffffffffffffffffffff1673ffffffffffffffffffffffffffffffffffffffff16815260200160028201805461128790611f3b565b80601f01602080910402602001604051908101604052809291908181526020018280546112b390611f3b565b80156113005780601f106112d557610100808354040283529160200191611300565b820191906000526020600020905b8154815290600101906020018083116112e357829003601f168201915b5050505050815260200160038201805461131990611f3b565b80601f016020809104026020016040519081016040528092919081815260200182805461134590611f3b565b80156113925780601f1061136757610100808354040283529160200191611392565b820191906000526020600020905b81548152906001019060200180831161137557829003601f168201915b505050505081526020016004820160009054906101000a900473ffffffffffffffffffffffffffffffffffffffff1673ffffffffffffffffffffffffffffffffffffffff1673ffffffffffffffffffffffffffffffffffffffff1681526020016005820160009054906101000a900473ffffffffffffffffffffffffffffffffffffffff1673ffffffffffffffffffffffffffffffffffffffff1673ffffffffffffffffffffffffffffffffffffffff16815260200160068201805461145790611f3b565b80601f016020809104026020016040519081016040528092919081815260200182805461148390611f3b565b80156114d05780601f106114a5576101008083540402835291602001916114d0565b820191906000526020600020905b8154815290600101906020018083116114b357829003601f168201915b505050505081526020016007820160009054906101000a900460ff1660028111156114fe576114fd611d86565b5b60028111156115105761150f611d86565b5b81525050905090565b6001816000016000828254019250508190555050565b600081600001549050919050565b6040518060c0016040528060008152602001600073ffffffffffffffffffffffffffffffffffffffff168152602001606081526020016060815260200160608152602001600081525090565b60405180610100016040528060008152602001600073ffffffffffffffffffffffffffffffffffffffff1681526020016060815260200160608152602001600073ffffffffffffffffffffffffffffffffffffffff168152602001600073ffffffffffffffffffffffffffffffffffffffff168152602001606081526020016000600281111561161c5761161b611d86565b5b81525090565b600081519050919050565b600082825260208201905092915050565b6000819050602082019050919050565b600073ffffffffffffffffffffffffffffffffffffffff82169050919050565b60006116798261164e565b9050919050565b6116898161166e565b82525050565b600061169b8383611680565b60208301905092915050565b6000602082019050919050565b60006116bf82611622565b6116c9818561162d565b93506116d48361163e565b8060005b838110156117055781516116ec888261168f565b97506116f7836116a7565b9250506001810190506116d8565b5085935050505092915050565b6000602082019050818103600083015261172c81846116b4565b905092915050565b600081519050919050565b600082825260208201905092915050565b6000819050602082019050919050565b6000819050919050565b61177381611760565b82525050565b600081519050919050565b600082825260208201905092915050565b60005b838110156117b3578082015181840152602081019050611798565b60008484015250505050565b6000601f19601f8301169050919050565b60006117db82611779565b6117e58185611784565b93506117f5818560208601611795565b6117fe816117bf565b840191505092915050565b600060c083016000830151611821600086018261176a565b5060208301516118346020860182611680565b506040830151848203604086015261184c82826117d0565b9150506060830151848203606086015261186682826117d0565b9150506080830151848203608086015261188082826117d0565b91505060a083015161189560a086018261176a565b508091505092915050565b60006118ac8383611809565b905092915050565b6000602082019050919050565b60006118cc82611734565b6118d6818561173f565b9350836020820285016118e885611750565b8060005b85811015611924578484038952815161190585826118a0565b9450611910836118b4565b925060208a019950506001810190506118ec565b50829750879550505050505092915050565b6000602082019050818103600083015261195081846118c1565b905092915050565b6000604051905090565b600080fd5b600080fd5b6119758161166e565b811461198057600080fd5b50565b6000813590506119928161196c565b92915050565b6000602082840312156119ae576119ad611962565b5b60006119bc84828501611983565b91505092915050565b600080fd5b7f4e487b7100000000000000000000000000000000000000000000000000000000600052604160045260246000fd5b611a02826117bf565b810181811067ffffffffffffffff82111715611a2157611a206119ca565b5b80604052505050565b6000611a34611958565b9050611a4082826119f9565b919050565b600080fd5b611a5381611760565b8114611a5e57600080fd5b50565b600081359050611a7081611a4a565b92915050565b600080fd5b600080fd5b600067ffffffffffffffff821115611a9b57611a9a6119ca565b5b611aa4826117bf565b9050602081019050919050565b82818337600083830152505050565b6000611ad3611ace84611a80565b611a2a565b905082815260208101848484011115611aef57611aee611a7b565b5b611afa848285611ab1565b509392505050565b600082601f830112611b1757611b16611a76565b5b8135611b27848260208601611ac0565b91505092915050565b600060c08284031215611b4657611b456119c5565b5b611b5060c0611a2a565b90506000611b6084828501611a61565b6000830152506020611b7484828501611983565b602083015250604082013567ffffffffffffffff811115611b9857611b97611a45565b5b611ba484828501611b02565b604083015250606082013567ffffffffffffffff811115611bc857611bc7611a45565b5b611bd484828501611b02565b606083015250608082013567ffffffffffffffff811115611bf857611bf7611a45565b5b611c0484828501611b02565b60808301525060a0611c1884828501611a61565b60a08301525092915050565b600060208284031215611c3a57611c39611962565b5b600082013567ffffffffffffffff811115611c5857611c57611967565b5b611c6484828501611b30565b91505092915050565b60008115159050919050565b611c8281611c6d565b82525050565b6000602082019050611c9d6000830184611c79565b92915050565b600060c083016000830151611cbb600086018261176a565b506020830151611cce6020860182611680565b5060408301518482036040860152611ce682826117d0565b91505060608301518482036060860152611d0082826117d0565b91505060808301518482036080860152611d1a82826117d0565b91505060a0830151611d2f60a086018261176a565b508091505092915050565b60006020820190508181036000830152611d548184611ca3565b905092915050565b611d6581611760565b82525050565b6000602082019050611d806000830184611d5c565b92915050565b7f4e487b7100000000000000000000000000000000000000000000000000000000600052602160045260246000fd5b60038110611dc657611dc5611d86565b5b50565b6000819050611dd782611db5565b919050565b6000611de782611dc9565b9050919050565b611df781611ddc565b82525050565b600061010083016000830151611e16600086018261176a565b506020830151611e296020860182611680565b5060408301518482036040860152611e4182826117d0565b91505060608301518482036060860152611e5b82826117d0565b9150506080830151611e706080860182611680565b5060a0830151611e8360a0860182611680565b5060c083015184820360c0860152611e9b82826117d0565b91505060e0830151611eb060e0860182611dee565b508091505092915050565b60006020820190508181036000830152611ed58184611dfd565b905092915050565b7f4e487b7100000000000000000000000000000000000000000000000000000000600052603260045260246000fd5b7f4e487b7100000000000000000000000000000000000000000000000000000000600052602260045260246000fd5b60006002820490506001821680611f5357607f821691505b602082108103611f6657611f65611f0c565b5b50919050565b7f4e487b7100000000000000000000000000000000000000000000000000000000600052601160045260246000fd5b6000611fa682611760565b91507fffffffffffffffffffffffffffffffffffffffffffffffffffffffffffffffff8203611fd857611fd7611f6c565b5b600182019050919050565b600082825260208201905092915050565b7f5265717569726520636f6e74726163742063726561746f720000000000000000600082015250565b600061202a601883611fe3565b915061203582611ff4565b602082019050919050565b600060208201905081810360008301526120598161201d565b9050919050565b60008190508160005260206000209050919050565b60006020601f8301049050919050565b600082821b905092915050565b6000600883026120c27fffffffffffffffffffffffffffffffffffffffffffffffffffffffffffffffff82612085565b6120cc8683612085565b95508019841693508086168417925050509392505050565b6000819050919050565b60006121096121046120ff84611760565b6120e4565b611760565b9050919050565b6000819050919050565b612123836120ee565b61213761212f82612110565b848454612092565b825550505050565b600090565b61214c61213f565b61215781848461211a565b505050565b5b8181101561217b57612170600082612144565b60018101905061215d565b5050565b601f8211156121c05761219181612060565b61219a84612075565b810160208510156121a9578190505b6121bd6121b585612075565b83018261215c565b50505b505050565b600082821c905092915050565b60006121e3600019846008026121c5565b1980831691505092915050565b60006121fc83836121d2565b9150826002028217905092915050565b61221582611779565b67ffffffffffffffff81111561222e5761222d6119ca565b5b6122388254611f3b565b61224382828561217f565b600060209050601f8311600181146122765760008415612264578287015190505b61226e85826121f0565b8655506122d6565b601f19841661228486612060565b60005b828110156122ac57848901518255600182019150602085019450602081019050612287565b868310156122c957848901516122c5601f8916826121d2565b8355505b6001600288020188555050505b505050505050565b7f5265717569726520656c656374696f6e20737461727400000000000000000000600082015250565b6000612314601683611fe3565b915061231f826122de565b602082019050919050565b6000602082019050818103600083015261234381612307565b905091905056fea2646970667358221220df3f611992903bd50f7d45e0d60adaa3697815f645afe94e6e49814c69ceaffe64736f6c63430008110033a26469706673582212200d6841b66b2ac531c59fddb780994cb7732796a274759643f2986e964cb84bc264736f6c63430008110033",
  "linkReferences": {},
  "deployedLinkReferences": {}
}