{
  "_format": "hh-sol-artifact-1",
  "contractName": "Voting",
  "sourceName": "contracts/Voting.sol",
  "abi": [
    {
      "inputs": [],
      "stateMutability": "nonpayable",
      "type": "constructor"
    },
    {
      "anonymous": false,
      "inputs": [
        {
          "indexed": true,
          "internalType": "uint256",
          "name": "candidateId",
          "type": "uint256"
        },
        {
          "indexed": false,
          "internalType": "string",
          "name": "age",
          "type": "string"
        },
        {
          "indexed": false,
          "internalType": "string",
          "name": "name",
          "type": "string"
        },
        {
          "indexed": false,
          "internalType": "string",
          "name": "image",
          "type": "string"
        },
        {
          "indexed": false,
          "internalType": "uint256",
          "name": "voteCount",
          "type": "uint256"
        },
        {
          "indexed": false,
          "internalType": "address",
          "name": "_address",
          "type": "address"
        },
        {
          "indexed": false,
          "internalType": "string",
          "name": "ipfs",
          "type": "string"
        }
      ],
      "name": "CandidateCreate",
      "type": "event"
    },
    {
      "anonymous": false,
      "inputs": [
        {
          "indexed": true,
          "internalType": "uint256",
          "name": "voter_VoterId",
          "type": "uint256"
        },
        {
          "indexed": false,
          "internalType": "string",
          "name": "voter_Name",
          "type": "string"
        },
        {
          "indexed": false,
          "internalType": "string",
          "name": "voter_Image",
          "type": "string"
        },
        {
          "indexed": false,
          "internalType": "address",
          "name": "voter_Address",
          "type": "address"
        },
        {
          "indexed": false,
          "internalType": "uint256",
          "name": "voter_Allowed",
          "type": "uint256"
        },
        {
          "indexed": false,
          "internalType": "bool",
          "name": "voter_Voted",
          "type": "bool"
        },
        {
          "indexed": false,
          "internalType": "uint256",
          "name": "voter_Vote",
          "type": "uint256"
        },
        {
          "indexed": false,
          "internalType": "string",
          "name": "voter_IPFS",
          "type": "string"
        }
      ],
      "name": "VoterCreated",
      "type": "event"
    },
    {
      "inputs": [],
      "name": "_candidateId",
      "outputs": [
        {
          "internalType": "uint256",
          "name": "_value",
          "type": "uint256"
        }
      ],
      "stateMutability": "view",
      "type": "function"
    },
    {
      "inputs": [],
      "name": "_voterId",
      "outputs": [
        {
          "internalType": "uint256",
          "name": "_value",
          "type": "uint256"
        }
      ],
      "stateMutability": "view",
      "type": "function"
    },
    {
      "inputs": [
        {
          "internalType": "uint256",
          "name": "",
          "type": "uint256"
        }
      ],
      "name": "candidateAddress",
      "outputs": [
        {
          "internalType": "address",
          "name": "",
          "type": "address"
        }
      ],
      "stateMutability": "view",
      "type": "function"
    },
    {
      "inputs": [
        {
          "internalType": "address",
          "name": "",
          "type": "address"
        }
      ],
      "name": "candidates",
      "outputs": [
        {
          "internalType": "uint256",
          "name": "candidateId",
          "type": "uint256"
        },
        {
          "internalType": "string",
          "name": "age",
          "type": "string"
        },
        {
          "internalType": "string",
          "name": "name",
          "type": "string"
        },
        {
          "internalType": "string",
          "name": "image",
          "type": "string"
        },
        {
          "internalType": "uint256",
          "name": "voteCount",
          "type": "uint256"
        },
        {
          "internalType": "address",
          "name": "_address",
          "type": "address"
        },
        {
          "internalType": "string",
          "name": "ipfs",
          "type": "string"
        }
      ],
      "stateMutability": "view",
      "type": "function"
    },
    {
      "inputs": [],
      "name": "getCandidate",
      "outputs": [
        {
          "internalType": "address[]",
          "name": "",
          "type": "address[]"
        }
      ],
      "stateMutability": "view",
      "type": "function"
    },
    {
      "inputs": [
        {
          "internalType": "address",
          "name": "_address",
          "type": "address"
        }
      ],
      "name": "getCandidateData",
      "outputs": [
        {
          "internalType": "string",
          "name": "",
          "type": "string"
        },
        {
          "internalType": "string",
          "name": "",
          "type": "string"
        },
        {
          "internalType": "uint256",
          "name": "",
          "type": "uint256"
        },
        {
          "internalType": "string",
          "name": "",
          "type": "string"
        },
        {
          "internalType": "uint256",
          "name": "",
          "type": "uint256"
        },
        {
          "internalType": "string",
          "name": "",
          "type": "string"
        },
        {
          "internalType": "address",
          "name": "",
          "type": "address"
        }
      ],
      "stateMutability": "view",
      "type": "function"
    },
    {
      "inputs": [],
      "name": "getCandidateLength",
      "outputs": [
        {
          "internalType": "uint256",
          "name": "",
          "type": "uint256"
        }
      ],
      "stateMutability": "view",
      "type": "function"
    },
    {
      "inputs": [],
      "name": "getVoteVoterList",
      "outputs": [
        {
          "internalType": "address[]",
          "name": "",
          "type": "address[]"
        }
      ],
      "stateMutability": "view",
      "type": "function"
    },
    {
      "inputs": [
        {
          "internalType": "address",
          "name": "_address",
          "type": "address"
        }
      ],
      "name": "getVoterData",
      "outputs": [
        {
          "internalType": "uint256",
          "name": "",
          "type": "uint256"
        },
        {
          "internalType": "string",
          "name": "",
          "type": "string"
        },
        {
          "internalType": "string",
          "name": "",
          "type": "string"
        },
        {
          "internalType": "address",
          "name": "",
          "type": "address"
        },
        {
          "internalType": "string",
          "name": "",
          "type": "string"
        },
        {
          "internalType": "uint256",
          "name": "",
          "type": "uint256"
        },
        {
          "internalType": "bool",
          "name": "",
          "type": "bool"
        }
      ],
      "stateMutability": "view",
      "type": "function"
    },
    {
      "inputs": [],
      "name": "getVoterLength",
      "outputs": [
        {
          "internalType": "uint256",
          "name": "",
          "type": "uint256"
        }
      ],
      "stateMutability": "view",
      "type": "function"
    },
    {
      "inputs": [],
      "name": "getVoterList",
      "outputs": [
        {
          "internalType": "address[]",
          "name": "",
          "type": "address[]"
        }
      ],
      "stateMutability": "view",
      "type": "function"
    },
    {
      "inputs": [
        {
          "internalType": "address",
          "name": "_address",
          "type": "address"
        },
        {
          "internalType": "string",
          "name": "_age",
          "type": "string"
        },
        {
          "internalType": "string",
          "name": "_name",
          "type": "string"
        },
        {
          "internalType": "string",
          "name": "_image",
          "type": "string"
        },
        {
          "internalType": "string",
          "name": "_ipfs",
          "type": "string"
        }
      ],
      "name": "setCandidate",
      "outputs": [],
      "stateMutability": "nonpayable",
      "type": "function"
    },
    {
      "inputs": [
        {
          "internalType": "address",
          "name": "_candidateAddress",
          "type": "address"
        },
        {
          "internalType": "uint256",
          "name": "_candidateVoteId",
          "type": "uint256"
        }
      ],
      "name": "vote",
      "outputs": [],
      "stateMutability": "nonpayable",
      "type": "function"
    },
    {
      "inputs": [
        {
          "internalType": "uint256",
          "name": "",
          "type": "uint256"
        }
      ],
      "name": "votedVoters",
      "outputs": [
        {
          "internalType": "address",
          "name": "",
          "type": "address"
        }
      ],
      "stateMutability": "view",
      "type": "function"
    },
    {
      "inputs": [
        {
          "internalType": "address",
          "name": "_address",
          "type": "address"
        },
        {
          "internalType": "string",
          "name": "_name",
          "type": "string"
        },
        {
          "internalType": "string",
          "name": "_image",
          "type": "string"
        },
        {
          "internalType": "string",
          "name": "_ifps",
          "type": "string"
        }
      ],
      "name": "voterRight",
      "outputs": [],
      "stateMutability": "nonpayable",
      "type": "function"
    },
    {
      "inputs": [
        {
          "internalType": "address",
          "name": "",
          "type": "address"
        }
      ],
      "name": "voters",
      "outputs": [
        {
          "internalType": "uint256",
          "name": "voter_VoterId",
          "type": "uint256"
        },
        {
          "internalType": "string",
          "name": "voter_Name",
          "type": "string"
        },
        {
          "internalType": "string",
          "name": "voter_Image",
          "type": "string"
        },
        {
          "internalType": "address",
          "name": "voter_Address",
          "type": "address"
        },
        {
          "internalType": "uint256",
          "name": "voter_Allowed",
          "type": "uint256"
        },
        {
          "internalType": "bool",
          "name": "voter_Voted",
          "type": "bool"
        },
        {
          "internalType": "uint256",
          "name": "voter_Vote",
          "type": "uint256"
        },
        {
          "internalType": "string",
          "name": "voter_IPFS",
          "type": "string"
        }
      ],
      "stateMutability": "view",
      "type": "function"
    },
    {
      "inputs": [
        {
          "internalType": "uint256",
          "name": "",
          "type": "uint256"
        }
      ],
      "name": "votersAddress",
      "outputs": [
        {
          "internalType": "address",
          "name": "",
          "type": "address"
        }
      ],
      "stateMutability": "view",
      "type": "function"
    },
    {
      "inputs": [],
      "name": "votingOrganizer",
      "outputs": [
        {
          "internalType": "address",
          "name": "",
          "type": "address"
        }
      ],
      "stateMutability": "view",
      "type": "function"
    }
  ],
  "bytecode": "0x608060405234801561001057600080fd5b5033600260006101000a81548173ffffffffffffffffffffffffffffffffffffffff021916908373ffffffffffffffffffffffffffffffffffffffff1602179055506128f8806100616000396000f3fe608060405234801561001057600080fd5b50600436106101165760003560e01c80638ab66a90116100a2578063b28d92ae11610071578063b28d92ae14610334578063b2c11e7214610352578063b9be315214610370578063c91ec7121461038e578063f7522a83146103aa57610116565b80638ab66a90146102735780638fb4cd80146102a9578063a3ec138d146102df578063a73889671461031657610116565b806343242daa116100e957806343242daa146101bb5780635cc48aa7146101eb5780635f74bbde1461020957806370218b85146102255780637831ffb31461024357610116565b80630361419e1461011b57806305ad45a4146101375780632a466ac7146101555780633a88251a1461018b575b600080fd5b61013560048036038101906101309190611ba7565b6103c8565b005b61013f610676565b60405161014c9190611c7b565b60405180910390f35b61016f600480360381019061016a9190611c96565b610683565b6040516101829796959493929190611d51565b60405180910390f35b6101a560048036038101906101a09190611e08565b610aca565b6040516101b29190611e35565b60405180910390f35b6101d560048036038101906101d09190611e08565b610b09565b6040516101e29190611e35565b60405180910390f35b6101f3610b48565b6040516102009190611e35565b60405180910390f35b610223600480360381019061021e9190611e50565b610b6e565b005b61022d610d35565b60405161023a9190611f4e565b60405180910390f35b61025d60048036038101906102589190611e08565b610dc3565b60405161026a9190611e35565b60405180910390f35b61028d60048036038101906102889190611c96565b610e02565b6040516102a09796959493929190611f70565b60405180910390f35b6102c360048036038101906102be9190611c96565b611084565b6040516102d69796959493929190612016565b60405180910390f35b6102f960048036038101906102f49190611c96565b61144c565b60405161030d98979695949392919061209a565b60405180910390f35b61031e611659565b60405161032b9190611c7b565b60405180910390f35b61033c611665565b6040516103499190611f4e565b60405180910390f35b61035a6116f3565b6040516103679190611f4e565b60405180910390f35b610378611781565b6040516103859190611c7b565b60405180910390f35b6103a860048036038101906103a3919061212d565b61178d565b005b6103b26119be565b6040516103bf9190611c7b565b60405180910390f35b3373ffffffffffffffffffffffffffffffffffffffff16600260009054906101000a900473ffffffffffffffffffffffffffffffffffffffff1673ffffffffffffffffffffffffffffffffffffffff1614610458576040517f08c379a000000000000000000000000000000000000000000000000000000000815260040161044f9061228a565b60405180910390fd5b61046260006119cb565b600061046e60006119e1565b90506000600760008773ffffffffffffffffffffffffffffffffffffffff1673ffffffffffffffffffffffffffffffffffffffff168152602001908152602001600020905060008160040154146104fa576040517f08c379a00000000000000000000000000000000000000000000000000000000081526004016104f1906122f6565b60405180910390fd5b60018160040181905550848160010190816105159190612522565b50838160020190816105279190612522565b50828160070190816105399190612522565b50858160030160006101000a81548173ffffffffffffffffffffffffffffffffffffffff021916908373ffffffffffffffffffffffffffffffffffffffff1602179055508181600001819055506103e8816006018190555060008160050160006101000a81548160ff0219169083151502179055506006869080600181540180825580915050600190039060005260206000200160009091909190916101000a81548173ffffffffffffffffffffffffffffffffffffffff021916908373ffffffffffffffffffffffffffffffffffffffff160217905550817ff5f39971dd62d9929e3a9feaa6bb77fe7c7da0001babff8a65a7e51ad0201c1986868985600401548660050160009054906101000a900460ff1687600601548a60405161066697969594939291906125f4565b60405180910390a2505050505050565b6000600680549050905090565b60608060006060600060606000600460008973ffffffffffffffffffffffffffffffffffffffff1673ffffffffffffffffffffffffffffffffffffffff168152602001908152602001600020600101600460008a73ffffffffffffffffffffffffffffffffffffffff1673ffffffffffffffffffffffffffffffffffffffff168152602001908152602001600020600201600460008b73ffffffffffffffffffffffffffffffffffffffff1673ffffffffffffffffffffffffffffffffffffffff16815260200190815260200160002060000154600460008c73ffffffffffffffffffffffffffffffffffffffff1673ffffffffffffffffffffffffffffffffffffffff168152602001908152602001600020600301600460008d73ffffffffffffffffffffffffffffffffffffffff1673ffffffffffffffffffffffffffffffffffffffff16815260200190815260200160002060040154600460008e73ffffffffffffffffffffffffffffffffffffffff1673ffffffffffffffffffffffffffffffffffffffff168152602001908152602001600020600601600460008f73ffffffffffffffffffffffffffffffffffffffff1673ffffffffffffffffffffffffffffffffffffffff16815260200190815260200160002060050160009054906101000a900473ffffffffffffffffffffffffffffffffffffffff1686805461088d90612345565b80601f01602080910402602001604051908101604052809291908181526020018280546108b990612345565b80156109065780601f106108db57610100808354040283529160200191610906565b820191906000526020600020905b8154815290600101906020018083116108e957829003601f168201915b5050505050965085805461091990612345565b80601f016020809104026020016040519081016040528092919081815260200182805461094590612345565b80156109925780601f1061096757610100808354040283529160200191610992565b820191906000526020600020905b81548152906001019060200180831161097557829003601f168201915b505050505095508380546109a590612345565b80601f01602080910402602001604051908101604052809291908181526020018280546109d190612345565b8015610a1e5780601f106109f357610100808354040283529160200191610a1e565b820191906000526020600020905b815481529060010190602001808311610a0157829003601f168201915b50505050509350818054610a3190612345565b80601f0160208091040260200160405190810160405280929190818152602001828054610a5d90612345565b8015610aaa5780601f10610a7f57610100808354040283529160200191610aaa565b820191906000526020600020905b815481529060010190602001808311610a8d57829003601f168201915b505050505091509650965096509650965096509650919395979092949650565b60038181548110610ada57600080fd5b906000526020600020016000915054906101000a900473ffffffffffffffffffffffffffffffffffffffff1681565b60068181548110610b1957600080fd5b906000526020600020016000915054906101000a900473ffffffffffffffffffffffffffffffffffffffff1681565b600260009054906101000a900473ffffffffffffffffffffffffffffffffffffffff1681565b6000600760003373ffffffffffffffffffffffffffffffffffffffff1673ffffffffffffffffffffffffffffffffffffffff16815260200190815260200160002090508060050160009054906101000a900460ff1615610c03576040517f08c379a0000000000000000000000000000000000000000000000000000000008152600401610bfa906126c4565b60405180910390fd5b6000816004015403610c4a576040517f08c379a0000000000000000000000000000000000000000000000000000000008152600401610c4190612730565b60405180910390fd5b60018160050160006101000a81548160ff0219169083151502179055508181600601819055506005339080600181540180825580915050600190039060005260206000200160009091909190916101000a81548173ffffffffffffffffffffffffffffffffffffffff021916908373ffffffffffffffffffffffffffffffffffffffff1602179055508060040154600460008573ffffffffffffffffffffffffffffffffffffffff1673ffffffffffffffffffffffffffffffffffffffff1681526020019081526020016000206004016000828254610d29919061277f565b92505081905550505050565b60606003805480602002602001604051908101604052809291908181526020018280548015610db957602002820191906000526020600020905b8160009054906101000a900473ffffffffffffffffffffffffffffffffffffffff1673ffffffffffffffffffffffffffffffffffffffff1681526020019060010190808311610d6f575b5050505050905090565b60058181548110610dd357600080fd5b906000526020600020016000915054906101000a900473ffffffffffffffffffffffffffffffffffffffff1681565b6004602052806000526040600020600091509050806000015490806001018054610e2b90612345565b80601f0160208091040260200160405190810160405280929190818152602001828054610e5790612345565b8015610ea45780601f10610e7957610100808354040283529160200191610ea4565b820191906000526020600020905b815481529060010190602001808311610e8757829003601f168201915b505050505090806002018054610eb990612345565b80601f0160208091040260200160405190810160405280929190818152602001828054610ee590612345565b8015610f325780601f10610f0757610100808354040283529160200191610f32565b820191906000526020600020905b815481529060010190602001808311610f1557829003601f168201915b505050505090806003018054610f4790612345565b80601f0160208091040260200160405190810160405280929190818152602001828054610f7390612345565b8015610fc05780601f10610f9557610100808354040283529160200191610fc0565b820191906000526020600020905b815481529060010190602001808311610fa357829003601f168201915b5050505050908060040154908060050160009054906101000a900473ffffffffffffffffffffffffffffffffffffffff169080600601805461100190612345565b80601f016020809104026020016040519081016040528092919081815260200182805461102d90612345565b801561107a5780601f1061104f5761010080835404028352916020019161107a565b820191906000526020600020905b81548152906001019060200180831161105d57829003601f168201915b5050505050905087565b600060608060006060600080600760008973ffffffffffffffffffffffffffffffffffffffff1673ffffffffffffffffffffffffffffffffffffffff16815260200190815260200160002060000154600760008a73ffffffffffffffffffffffffffffffffffffffff1673ffffffffffffffffffffffffffffffffffffffff168152602001908152602001600020600101600760008b73ffffffffffffffffffffffffffffffffffffffff1673ffffffffffffffffffffffffffffffffffffffff168152602001908152602001600020600201600760008c73ffffffffffffffffffffffffffffffffffffffff1673ffffffffffffffffffffffffffffffffffffffff16815260200190815260200160002060030160009054906101000a900473ffffffffffffffffffffffffffffffffffffffff16600760008d73ffffffffffffffffffffffffffffffffffffffff1673ffffffffffffffffffffffffffffffffffffffff168152602001908152602001600020600701600760008e73ffffffffffffffffffffffffffffffffffffffff1673ffffffffffffffffffffffffffffffffffffffff16815260200190815260200160002060040154600760008f73ffffffffffffffffffffffffffffffffffffffff1673ffffffffffffffffffffffffffffffffffffffff16815260200190815260200160002060050160009054906101000a900460ff1685805461129b90612345565b80601f01602080910402602001604051908101604052809291908181526020018280546112c790612345565b80156113145780601f106112e957610100808354040283529160200191611314565b820191906000526020600020905b8154815290600101906020018083116112f757829003601f168201915b5050505050955084805461132790612345565b80601f016020809104026020016040519081016040528092919081815260200182805461135390612345565b80156113a05780601f10611375576101008083540402835291602001916113a0565b820191906000526020600020905b81548152906001019060200180831161138357829003601f168201915b505050505094508280546113b390612345565b80601f01602080910402602001604051908101604052809291908181526020018280546113df90612345565b801561142c5780601f106114015761010080835404028352916020019161142c565b820191906000526020600020905b81548152906001019060200180831161140f57829003601f168201915b505050505092509650965096509650965096509650919395979092949650565b600760205280600052604060002060009150905080600001549080600101805461147590612345565b80601f01602080910402602001604051908101604052809291908181526020018280546114a190612345565b80156114ee5780601f106114c3576101008083540402835291602001916114ee565b820191906000526020600020905b8154815290600101906020018083116114d157829003601f168201915b50505050509080600201805461150390612345565b80601f016020809104026020016040519081016040528092919081815260200182805461152f90612345565b801561157c5780601f106115515761010080835404028352916020019161157c565b820191906000526020600020905b81548152906001019060200180831161155f57829003601f168201915b5050505050908060030160009054906101000a900473ffffffffffffffffffffffffffffffffffffffff16908060040154908060050160009054906101000a900460ff16908060060154908060070180546115d690612345565b80601f016020809104026020016040519081016040528092919081815260200182805461160290612345565b801561164f5780601f106116245761010080835404028352916020019161164f565b820191906000526020600020905b81548152906001019060200180831161163257829003601f168201915b5050505050905088565b60018060000154905081565b606060068054806020026020016040519081016040528092919081815260200182805480156116e957602002820191906000526020600020905b8160009054906101000a900473ffffffffffffffffffffffffffffffffffffffff1673ffffffffffffffffffffffffffffffffffffffff168152602001906001019080831161169f575b5050505050905090565b6060600580548060200260200160405190810160405280929190818152602001828054801561177757602002820191906000526020600020905b8160009054906101000a900473ffffffffffffffffffffffffffffffffffffffff1673ffffffffffffffffffffffffffffffffffffffff168152602001906001019080831161172d575b5050505050905090565b60008060000154905081565b3373ffffffffffffffffffffffffffffffffffffffff16600260009054906101000a900473ffffffffffffffffffffffffffffffffffffffff1673ffffffffffffffffffffffffffffffffffffffff161461181d576040517f08c379a000000000000000000000000000000000000000000000000000000000815260040161181490612825565b60405180910390fd5b61182760016119cb565b600061183360016119e1565b90506000600460008873ffffffffffffffffffffffffffffffffffffffff1673ffffffffffffffffffffffffffffffffffffffff1681526020019081526020016000209050858160010190816118899190612522565b508481600201908161189b9190612522565b50818160000181905550838160030190816118b69190612522565b50828160060190816118c89190612522565b50868160050160006101000a81548173ffffffffffffffffffffffffffffffffffffffff021916908373ffffffffffffffffffffffffffffffffffffffff1602179055506003879080600181540180825580915050600190039060005260206000200160009091909190916101000a81548173ffffffffffffffffffffffffffffffffffffffff021916908373ffffffffffffffffffffffffffffffffffffffff160217905550817fd297f12b256bb8485a6013fb5e302017018123e99a0ebb20756c09e1707b4b9087878785600401548c896040516119ad96959493929190612845565b60405180910390a250505050505050565b6000600380549050905090565b6001816000016000828254019250508190555050565b600081600001549050919050565b6000604051905090565b600080fd5b600080fd5b600073ffffffffffffffffffffffffffffffffffffffff82169050919050565b6000611a2e82611a03565b9050919050565b611a3e81611a23565b8114611a4957600080fd5b50565b600081359050611a5b81611a35565b92915050565b600080fd5b600080fd5b6000601f19601f8301169050919050565b7f4e487b7100000000000000000000000000000000000000000000000000000000600052604160045260246000fd5b611ab482611a6b565b810181811067ffffffffffffffff82111715611ad357611ad2611a7c565b5b80604052505050565b6000611ae66119ef565b9050611af28282611aab565b919050565b600067ffffffffffffffff821115611b1257611b11611a7c565b5b611b1b82611a6b565b9050602081019050919050565b82818337600083830152505050565b6000611b4a611b4584611af7565b611adc565b905082815260208101848484011115611b6657611b65611a66565b5b611b71848285611b28565b509392505050565b600082601f830112611b8e57611b8d611a61565b5b8135611b9e848260208601611b37565b91505092915050565b60008060008060808587031215611bc157611bc06119f9565b5b6000611bcf87828801611a4c565b945050602085013567ffffffffffffffff811115611bf057611bef6119fe565b5b611bfc87828801611b79565b935050604085013567ffffffffffffffff811115611c1d57611c1c6119fe565b5b611c2987828801611b79565b925050606085013567ffffffffffffffff811115611c4a57611c496119fe565b5b611c5687828801611b79565b91505092959194509250565b6000819050919050565b611c7581611c62565b82525050565b6000602082019050611c906000830184611c6c565b92915050565b600060208284031215611cac57611cab6119f9565b5b6000611cba84828501611a4c565b91505092915050565b600081519050919050565b600082825260208201905092915050565b60005b83811015611cfd578082015181840152602081019050611ce2565b60008484015250505050565b6000611d1482611cc3565b611d1e8185611cce565b9350611d2e818560208601611cdf565b611d3781611a6b565b840191505092915050565b611d4b81611a23565b82525050565b600060e0820190508181036000830152611d6b818a611d09565b90508181036020830152611d7f8189611d09565b9050611d8e6040830188611c6c565b8181036060830152611da08187611d09565b9050611daf6080830186611c6c565b81810360a0830152611dc18185611d09565b9050611dd060c0830184611d42565b98975050505050505050565b611de581611c62565b8114611df057600080fd5b50565b600081359050611e0281611ddc565b92915050565b600060208284031215611e1e57611e1d6119f9565b5b6000611e2c84828501611df3565b91505092915050565b6000602082019050611e4a6000830184611d42565b92915050565b60008060408385031215611e6757611e666119f9565b5b6000611e7585828601611a4c565b9250506020611e8685828601611df3565b9150509250929050565b600081519050919050565b600082825260208201905092915050565b6000819050602082019050919050565b611ec581611a23565b82525050565b6000611ed78383611ebc565b60208301905092915050565b6000602082019050919050565b6000611efb82611e90565b611f058185611e9b565b9350611f1083611eac565b8060005b83811015611f41578151611f288882611ecb565b9750611f3383611ee3565b925050600181019050611f14565b5085935050505092915050565b60006020820190508181036000830152611f688184611ef0565b905092915050565b600060e082019050611f85600083018a611c6c565b8181036020830152611f978189611d09565b90508181036040830152611fab8188611d09565b90508181036060830152611fbf8187611d09565b9050611fce6080830186611c6c565b611fdb60a0830185611d42565b81810360c0830152611fed8184611d09565b905098975050505050505050565b60008115159050919050565b61201081611ffb565b82525050565b600060e08201905061202b600083018a611c6c565b818103602083015261203d8189611d09565b905081810360408301526120518188611d09565b90506120606060830187611d42565b81810360808301526120728186611d09565b905061208160a0830185611c6c565b61208e60c0830184612007565b98975050505050505050565b6000610100820190506120b0600083018b611c6c565b81810360208301526120c2818a611d09565b905081810360408301526120d68189611d09565b90506120e56060830188611d42565b6120f26080830187611c6c565b6120ff60a0830186612007565b61210c60c0830185611c6c565b81810360e083015261211e8184611d09565b90509998505050505050505050565b600080600080600060a08688031215612149576121486119f9565b5b600061215788828901611a4c565b955050602086013567ffffffffffffffff811115612178576121776119fe565b5b61218488828901611b79565b945050604086013567ffffffffffffffff8111156121a5576121a46119fe565b5b6121b188828901611b79565b935050606086013567ffffffffffffffff8111156121d2576121d16119fe565b5b6121de88828901611b79565b925050608086013567ffffffffffffffff8111156121ff576121fe6119fe565b5b61220b88828901611b79565b9150509295509295909350565b7f4f6e6c796520766f74696e67206f7267616e697a65642063616e20637265617460008201527f65206120766f74696e6700000000000000000000000000000000000000000000602082015250565b6000612274602a83611cce565b915061227f82612218565b604082019050919050565b600060208201905081810360008301526122a381612267565b9050919050565b7f557365722063616e206f6e6c7920766f7465206f6e6365000000000000000000600082015250565b60006122e0601783611cce565b91506122eb826122aa565b602082019050919050565b6000602082019050818103600083015261230f816122d3565b9050919050565b7f4e487b7100000000000000000000000000000000000000000000000000000000600052602260045260246000fd5b6000600282049050600182168061235d57607f821691505b6020821081036123705761236f612316565b5b50919050565b60008190508160005260206000209050919050565b60006020601f8301049050919050565b600082821b905092915050565b6000600883026123d87fffffffffffffffffffffffffffffffffffffffffffffffffffffffffffffffff8261239b565b6123e2868361239b565b95508019841693508086168417925050509392505050565b6000819050919050565b600061241f61241a61241584611c62565b6123fa565b611c62565b9050919050565b6000819050919050565b61243983612404565b61244d61244582612426565b8484546123a8565b825550505050565b600090565b612462612455565b61246d818484612430565b505050565b5b818110156124915761248660008261245a565b600181019050612473565b5050565b601f8211156124d6576124a781612376565b6124b08461238b565b810160208510156124bf578190505b6124d36124cb8561238b565b830182612472565b50505b505050565b600082821c905092915050565b60006124f9600019846008026124db565b1980831691505092915050565b600061251283836124e8565b9150826002028217905092915050565b61252b82611cc3565b67ffffffffffffffff81111561254457612543611a7c565b5b61254e8254612345565b612559828285612495565b600060209050601f83116001811461258c576000841561257a578287015190505b6125848582612506565b8655506125ec565b601f19841661259a86612376565b60005b828110156125c25784890151825560018201915060208501945060208101905061259d565b868310156125df57848901516125db601f8916826124e8565b8355505b6001600288020188555050505b505050505050565b600060e082019050818103600083015261260e818a611d09565b905081810360208301526126228189611d09565b90506126316040830188611d42565b61263e6060830187611c6c565b61264b6080830186612007565b61265860a0830185611c6c565b81810360c083015261266a8184611d09565b905098975050505050505050565b7f596f75206861766520616c726561647920766f74657200000000000000000000600082015250565b60006126ae601683611cce565b91506126b982612678565b602082019050919050565b600060208201905081810360008301526126dd816126a1565b9050919050565b7f596f752068617665206e6f20726967687420746f20766f746500000000000000600082015250565b600061271a601983611cce565b9150612725826126e4565b602082019050919050565b600060208201905081810360008301526127498161270d565b9050919050565b7f4e487b7100000000000000000000000000000000000000000000000000000000600052601160045260246000fd5b600061278a82611c62565b915061279583611c62565b92508282019050808211156127ad576127ac612750565b5b92915050565b7f4f6e6c7920766f74696e67204f7267616e697a65722063616e2063726561746560008201527f20766f74696e6700000000000000000000000000000000000000000000000000602082015250565b600061280f602783611cce565b915061281a826127b3565b604082019050919050565b6000602082019050818103600083015261283e81612802565b9050919050565b600060c082019050818103600083015261285f8189611d09565b905081810360208301526128738188611d09565b905081810360408301526128878187611d09565b90506128966060830186611c6c565b6128a36080830185611d42565b81810360a08301526128b58184611d09565b905097965050505050505056fea2646970667358221220ad50d570431407510214af8bc928c0a4ec98d0ded10a9aa8fc4e482863e1d96864736f6c63430008110033",
  "linkReferences": {},
  "deployedLinkReferences": {}
}