{
    "_format": "hh-sol-artifact-1",
    "contractName": "Election",
    "sourceName": "contracts/election.sol",
    "abi": [
        {
            "inputs": [
                {
                    "internalType": "uint256",
                    "name": "_id",
                    "type": "uint256"
                },
                {
                    "internalType": "address",
                    "name": "_contractController",
                    "type": "address"
                },
                {
                    "internalType": "string",
                    "name": "_name",
                    "type": "string"
                },
                {
                    "internalType": "string",
                    "name": "_descriptionElection",
                    "type": "string"
                },
                {
                    "internalType": "string",
                    "name": "_IPFS",
                    "type": "string"
                },
                {
                    "internalType": "uint256",
                    "name": "_numberCandidate",
                    "type": "uint256"
                }
            ],
            "stateMutability": "nonpayable",
            "type": "constructor"
        },
        {
            "anonymous": false,
            "inputs": [
                {
                    "indexed": false,
                    "internalType": "uint256",
                    "name": "_candidateId",
                    "type": "uint256"
                },
                {
                    "indexed": true,
                    "internalType": "address",
                    "name": "_electionAddress",
                    "type": "address"
                },
                {
                    "indexed": true,
                    "internalType": "address",
                    "name": "_candidateAddress",
                    "type": "address"
                },
                {
                    "indexed": false,
                    "internalType": "string",
                    "name": "_candidateName",
                    "type": "string"
                },
                {
                    "indexed": false,
                    "internalType": "string",
                    "name": "_candidateDescription",
                    "type": "string"
                },
                {
                    "indexed": false,
                    "internalType": "string",
                    "name": "_candidateIPFS",
                    "type": "string"
                }
            ],
            "name": "AddCandidate",
            "type": "event"
        },
        {
            "inputs": [],
            "name": "_candidateId",
            "outputs": [
                {
                    "internalType": "uint256",
                    "name": "_value",
                    "type": "uint256"
                }
            ],
            "stateMutability": "view",
            "type": "function"
        },
        {
            "inputs": [
                {
                    "components": [
                        {
                            "internalType": "uint256",
                            "name": "candidateId",
                            "type": "uint256"
                        },
                        {
                            "internalType": "address",
                            "name": "candidateAddress",
                            "type": "address"
                        },
                        {
                            "internalType": "string",
                            "name": "candidateName",
                            "type": "string"
                        },
                        {
                            "internalType": "string",
                            "name": "candidateDescription",
                            "type": "string"
                        },
                        {
                            "internalType": "string",
                            "name": "candidateIPFS",
                            "type": "string"
                        },
                        {
                            "internalType": "uint256",
                            "name": "numberVoted",
                            "type": "uint256"
                        }
                    ],
                    "internalType": "struct Candidate",
                    "name": "_candidate",
                    "type": "tuple"
                }
            ],
            "name": "addCandidate",
            "outputs": [
                {
                    "internalType": "bool",
                    "name": "",
                    "type": "bool"
                }
            ],
            "stateMutability": "nonpayable",
            "type": "function"
        },
        {
            "inputs": [],
            "name": "endElection",
            "outputs": [],
            "stateMutability": "nonpayable",
            "type": "function"
        },
        {
            "inputs": [
                {
                    "internalType": "address",
                    "name": "_candidateAddress",
                    "type": "address"
                }
            ],
            "name": "getCandidate",
            "outputs": [
                {
                    "components": [
                        {
                            "internalType": "uint256",
                            "name": "candidateId",
                            "type": "uint256"
                        },
                        {
                            "internalType": "address",
                            "name": "candidateAddress",
                            "type": "address"
                        },
                        {
                            "internalType": "string",
                            "name": "candidateName",
                            "type": "string"
                        },
                        {
                            "internalType": "string",
                            "name": "candidateDescription",
                            "type": "string"
                        },
                        {
                            "internalType": "string",
                            "name": "candidateIPFS",
                            "type": "string"
                        },
                        {
                            "internalType": "uint256",
                            "name": "numberVoted",
                            "type": "uint256"
                        }
                    ],
                    "internalType": "struct Candidate",
                    "name": "",
                    "type": "tuple"
                }
            ],
            "stateMutability": "view",
            "type": "function"
        },
        {
            "inputs": [],
            "name": "getCandidates",
            "outputs": [
                {
                    "components": [
                        {
                            "internalType": "uint256",
                            "name": "candidateId",
                            "type": "uint256"
                        },
                        {
                            "internalType": "address",
                            "name": "candidateAddress",
                            "type": "address"
                        },
                        {
                            "internalType": "string",
                            "name": "candidateName",
                            "type": "string"
                        },
                        {
                            "internalType": "string",
                            "name": "candidateDescription",
                            "type": "string"
                        },
                        {
                            "internalType": "string",
                            "name": "candidateIPFS",
                            "type": "string"
                        },
                        {
                            "internalType": "uint256",
                            "name": "numberVoted",
                            "type": "uint256"
                        }
                    ],
                    "internalType": "struct Candidate[]",
                    "name": "",
                    "type": "tuple[]"
                }
            ],
            "stateMutability": "view",
            "type": "function"
        },
        {
            "inputs": [],
            "name": "getElection",
            "outputs": [
                {
                    "components": [
                        {
                            "internalType": "uint256",
                            "name": "id",
                            "type": "uint256"
                        },
                        {
                            "internalType": "address",
                            "name": "electionAddress",
                            "type": "address"
                        },
                        {
                            "internalType": "string",
                            "name": "name",
                            "type": "string"
                        },
                        {
                            "internalType": "string",
                            "name": "descriptionElection",
                            "type": "string"
                        },
                        {
                            "internalType": "address",
                            "name": "controllerAddress",
                            "type": "address"
                        },
                        {
                            "internalType": "address",
                            "name": "wonAddress",
                            "type": "address"
                        },
                        {
                            "internalType": "string",
                            "name": "IPFS",
                            "type": "string"
                        },
                        {
                            "internalType": "uint256",
                            "name": "numberCandidate",
                            "type": "uint256"
                        },
                        {
                            "internalType": "enum State",
                            "name": "state",
                            "type": "uint8"
                        }
                    ],
                    "internalType": "struct ElectionModel",
                    "name": "",
                    "type": "tuple"
                }
            ],
            "stateMutability": "view",
            "type": "function"
        },
        {
            "inputs": [],
            "name": "getUsers",
            "outputs": [
                {
                    "internalType": "address[]",
                    "name": "",
                    "type": "address[]"
                }
            ],
            "stateMutability": "view",
            "type": "function"
        },
        {
            "inputs": [],
            "name": "getWonElection",
            "outputs": [
                {
                    "components": [
                        {
                            "internalType": "uint256",
                            "name": "candidateId",
                            "type": "uint256"
                        },
                        {
                            "internalType": "address",
                            "name": "candidateAddress",
                            "type": "address"
                        },
                        {
                            "internalType": "string",
                            "name": "candidateName",
                            "type": "string"
                        },
                        {
                            "internalType": "string",
                            "name": "candidateDescription",
                            "type": "string"
                        },
                        {
                            "internalType": "string",
                            "name": "candidateIPFS",
                            "type": "string"
                        },
                        {
                            "internalType": "uint256",
                            "name": "numberVoted",
                            "type": "uint256"
                        }
                    ],
                    "internalType": "struct Candidate",
                    "name": "",
                    "type": "tuple"
                }
            ],
            "stateMutability": "nonpayable",
            "type": "function"
        },
        {
            "inputs": [],
            "name": "startElection",
            "outputs": [],
            "stateMutability": "nonpayable",
            "type": "function"
        },
        {
            "inputs": [
                {
                    "internalType": "address",
                    "name": "_addressCandidate",
                    "type": "address"
                },
                {
                    "internalType": "address",
                    "name": "_userCandidate",
                    "type": "address"
                }
            ],
            "name": "vote",
            "outputs": [
                {
                    "internalType": "bool",
                    "name": "",
                    "type": "bool"
                }
            ],
            "stateMutability": "nonpayable",
            "type": "function"
        }
    ],
    "bytecode": "0x60806040523480156200001157600080fd5b5060405162002fd838038062002fd88339818101604052810190620000379190620003c6565b856001600001819055506000600160080160006101000a81548160ff021916908360028111156200006d576200006c620004bf565b5b021790555084600160040160006101000a81548173ffffffffffffffffffffffffffffffffffffffff021916908373ffffffffffffffffffffffffffffffffffffffff1602179055508260016003019081620000ca91906200072f565b508360016002019081620000df91906200072f565b508160016006019081620000f491906200072f565b5080600160070181905550306001800160006101000a81548173ffffffffffffffffffffffffffffffffffffffff021916908373ffffffffffffffffffffffffffffffffffffffff1602179055506000600160050160006101000a81548173ffffffffffffffffffffffffffffffffffffffff021916908373ffffffffffffffffffffffffffffffffffffffff16021790555050505050505062000816565b6000604051905090565b600080fd5b600080fd5b6000819050919050565b620001bc81620001a7565b8114620001c857600080fd5b50565b600081519050620001dc81620001b1565b92915050565b600073ffffffffffffffffffffffffffffffffffffffff82169050919050565b60006200020f82620001e2565b9050919050565b620002218162000202565b81146200022d57600080fd5b50565b600081519050620002418162000216565b92915050565b600080fd5b600080fd5b6000601f19601f8301169050919050565b7f4e487b7100000000000000000000000000000000000000000000000000000000600052604160045260246000fd5b6200029c8262000251565b810181811067ffffffffffffffff82111715620002be57620002bd62000262565b5b80604052505050565b6000620002d362000193565b9050620002e1828262000291565b919050565b600067ffffffffffffffff82111562000304576200030362000262565b5b6200030f8262000251565b9050602081019050919050565b60005b838110156200033c5780820151818401526020810190506200031f565b60008484015250505050565b60006200035f6200035984620002e6565b620002c7565b9050828152602081018484840111156200037e576200037d6200024c565b5b6200038b8482856200031c565b509392505050565b600082601f830112620003ab57620003aa62000247565b5b8151620003bd84826020860162000348565b91505092915050565b60008060008060008060c08789031215620003e657620003e56200019d565b5b6000620003f689828a01620001cb565b96505060206200040989828a0162000230565b955050604087015167ffffffffffffffff8111156200042d576200042c620001a2565b5b6200043b89828a0162000393565b945050606087015167ffffffffffffffff8111156200045f576200045e620001a2565b5b6200046d89828a0162000393565b935050608087015167ffffffffffffffff811115620004915762000490620001a2565b5b6200049f89828a0162000393565b92505060a0620004b289828a01620001cb565b9150509295509295509295565b7f4e487b7100000000000000000000000000000000000000000000000000000000600052602160045260246000fd5b600081519050919050565b7f4e487b7100000000000000000000000000000000000000000000000000000000600052602260045260246000fd5b600060028204905060018216806200054157607f821691505b602082108103620005575762000556620004f9565b5b50919050565b60008190508160005260206000209050919050565b60006020601f8301049050919050565b600082821b905092915050565b600060088302620005c17fffffffffffffffffffffffffffffffffffffffffffffffffffffffffffffffff8262000582565b620005cd868362000582565b95508019841693508086168417925050509392505050565b6000819050919050565b6000620006106200060a6200060484620001a7565b620005e5565b620001a7565b9050919050565b6000819050919050565b6200062c83620005ef565b620006446200063b8262000617565b8484546200058f565b825550505050565b600090565b6200065b6200064c565b6200066881848462000621565b505050565b5b8181101562000690576200068460008262000651565b6001810190506200066e565b5050565b601f821115620006df57620006a9816200055d565b620006b48462000572565b81016020851015620006c4578190505b620006dc620006d38562000572565b8301826200066d565b50505b505050565b600082821c905092915050565b60006200070460001984600802620006e4565b1980831691505092915050565b60006200071f8383620006f1565b9150826002028217905092915050565b6200073a82620004ee565b67ffffffffffffffff81111562000756576200075562000262565b5b62000762825462000528565b6200076f82828562000694565b600060209050601f831160018114620007a7576000841562000792578287015190505b6200079e858262000711565b8655506200080e565b601f198416620007b7866200055d565b60005b82811015620007e157848901518255600182019150602085019450602081019050620007ba565b86831015620008015784890151620007fd601f891682620006f1565b8355505b6001600288020188555050505b505050505050565b6127b280620008266000396000f3fe608060405234801561001057600080fd5b506004361061009d5760003560e01c806362d73eb81161006657806362d73eb814610148578063699f074c14610152578063a738896714610170578063b7adcf1d1461018e578063eceed339146101be5761009d565b8062ce8e3e146100a257806306a49fce146100c05780631afa74e5146100de57806359f784681461010e5780635f9c618514610118575b600080fd5b6100aa6101dc565b6040516100b791906119bc565b60405180910390f35b6100c861026a565b6040516100d59190611be0565b60405180910390f35b6100f860048036038101906100f39190611c42565b6105c1565b6040516101059190611c9d565b60405180910390f35b610116610782565b005b610132600480360381019061012d9190611f17565b610845565b60405161013f9190611c9d565b60405180910390f35b610150610aef565b005b61015a610bb1565b6040516101679190611ff7565b60405180910390f35b610178611072565b6040516101859190612028565b60405180910390f35b6101a860048036038101906101a39190612043565b61107e565b6040516101b59190611ff7565b60405180910390f35b6101c66112f7565b6040516101d391906121ba565b60405180910390f35b6060600b80548060200260200160405190810160405280929190818152602001828054801561026057602002820191906000526020600020905b8160009054906101000a900473ffffffffffffffffffffffffffffffffffffffff1673ffffffffffffffffffffffffffffffffffffffff1681526020019060010190808311610216575b5050505050905090565b60606000600a80549050905060008167ffffffffffffffff81111561029257610291611cbd565b5b6040519080825280602002602001820160405280156102cb57816020015b6102b86117e0565b8152602001906001900390816102b05790505b50905060005b828110156105b8576000600a82815481106102ef576102ee6121dc565b5b9060005260206000200160009054906101000a900473ffffffffffffffffffffffffffffffffffffffff169050600c60008273ffffffffffffffffffffffffffffffffffffffff1673ffffffffffffffffffffffffffffffffffffffff1681526020019081526020016000206040518060c0016040529081600082015481526020016001820160009054906101000a900473ffffffffffffffffffffffffffffffffffffffff1673ffffffffffffffffffffffffffffffffffffffff1673ffffffffffffffffffffffffffffffffffffffff1681526020016002820180546103d69061223a565b80601f01602080910402602001604051908101604052809291908181526020018280546104029061223a565b801561044f5780601f106104245761010080835404028352916020019161044f565b820191906000526020600020905b81548152906001019060200180831161043257829003601f168201915b505050505081526020016003820180546104689061223a565b80601f01602080910402602001604051908101604052809291908181526020018280546104949061223a565b80156104e15780601f106104b6576101008083540402835291602001916104e1565b820191906000526020600020905b8154815290600101906020018083116104c457829003601f168201915b505050505081526020016004820180546104fa9061223a565b80601f01602080910402602001604051908101604052809291908181526020018280546105269061223a565b80156105735780601f1061054857610100808354040283529160200191610573565b820191906000526020600020905b81548152906001019060200180831161055657829003601f168201915b50505050508152602001600582015481525050838381518110610599576105986121dc565b5b60200260200101819052505080806105b09061229a565b9150506102d1565b50809250505090565b6000600160028111156105d7576105d6612070565b5b600160080160009054906101000a900460ff1660028111156105fc576105fb612070565b5b1461063c576040517f08c379a00000000000000000000000000000000000000000000000000000000081526004016106339061233f565b60405180910390fd5b600061064783611619565b90506001151581151514610690576040517f08c379a0000000000000000000000000000000000000000000000000000000008152600401610687906123ab565b60405180910390fd5b610699836116c3565b6000600d60008673ffffffffffffffffffffffffffffffffffffffff1673ffffffffffffffffffffffffffffffffffffffff16815260200190815260200160002054905080806106e89061229a565b91505080600d60008773ffffffffffffffffffffffffffffffffffffffff1673ffffffffffffffffffffffffffffffffffffffff1681526020019081526020016000208190555080600c60008773ffffffffffffffffffffffffffffffffffffffff1673ffffffffffffffffffffffffffffffffffffffff1681526020019081526020016000206005018190555060019250505092915050565b600160040160009054906101000a900473ffffffffffffffffffffffffffffffffffffffff1673ffffffffffffffffffffffffffffffffffffffff163373ffffffffffffffffffffffffffffffffffffffff1614610815576040517f08c379a000000000000000000000000000000000000000000000000000000000815260040161080c90612417565b60405180910390fd5b6002600160080160006101000a81548160ff0219169083600281111561083e5761083d612070565b5b0217905550565b6000600160040160009054906101000a900473ffffffffffffffffffffffffffffffffffffffff1673ffffffffffffffffffffffffffffffffffffffff163373ffffffffffffffffffffffffffffffffffffffff16146108da576040517f08c379a00000000000000000000000000000000000000000000000000000000081526004016108d190612417565b60405180910390fd5b6108e460006117bc565b60006108f060006117d2565b905060008360200151905081846000018181525050600a819080600181540180825580915050600190039060005260206000200160009091909190916101000a81548173ffffffffffffffffffffffffffffffffffffffff021916908373ffffffffffffffffffffffffffffffffffffffff16021790555083600c60008373ffffffffffffffffffffffffffffffffffffffff1673ffffffffffffffffffffffffffffffffffffffff1681526020019081526020016000206000820151816000015560208201518160010160006101000a81548173ffffffffffffffffffffffffffffffffffffffff021916908373ffffffffffffffffffffffffffffffffffffffff1602179055506040820151816002019081610a0e91906125e3565b506060820151816003019081610a2491906125e3565b506080820151816004019081610a3a91906125e3565b5060a0820151816005015590505060006001600701549050600181610a5f91906126b5565b600160070181905550846020015173ffffffffffffffffffffffffffffffffffffffff163073ffffffffffffffffffffffffffffffffffffffff167f573cc6d4f25132c88bb92c351a84060d943d95788fa8bc0033a0330fa97f68eb85886040015189606001518a60800151604051610adb9493929190612722565b60405180910390a360019350505050919050565b600160040160009054906101000a900473ffffffffffffffffffffffffffffffffffffffff1673ffffffffffffffffffffffffffffffffffffffff163373ffffffffffffffffffffffffffffffffffffffff1614610b82576040517f08c379a0000000000000000000000000000000000000000000000000000000008152600401610b7990612417565b60405180910390fd5b60018060080160006101000a81548160ff02191690836002811115610baa57610ba9612070565b5b0217905550565b610bb96117e0565b600160040160009054906101000a900473ffffffffffffffffffffffffffffffffffffffff1673ffffffffffffffffffffffffffffffffffffffff163373ffffffffffffffffffffffffffffffffffffffff1614610c4c576040517f08c379a0000000000000000000000000000000000000000000000000000000008152600401610c4390612417565b60405180910390fd5b60008080600090505b600a80549050811015610dbc57600d6000600a8381548110610c7a57610c796121dc565b5b9060005260206000200160009054906101000a900473ffffffffffffffffffffffffffffffffffffffff1673ffffffffffffffffffffffffffffffffffffffff1673ffffffffffffffffffffffffffffffffffffffff16815260200190815260200160002054831015610da957600d6000600a8381548110610cff57610cfe6121dc565b5b9060005260206000200160009054906101000a900473ffffffffffffffffffffffffffffffffffffffff1673ffffffffffffffffffffffffffffffffffffffff1673ffffffffffffffffffffffffffffffffffffffff168152602001908152602001600020549250600a8181548110610d7b57610d7a6121dc565b5b9060005260206000200160009054906101000a900473ffffffffffffffffffffffffffffffffffffffff1691505b8080610db49061229a565b915050610c55565b5080600160050160006101000a81548173ffffffffffffffffffffffffffffffffffffffff021916908373ffffffffffffffffffffffffffffffffffffffff160217905550600c60008273ffffffffffffffffffffffffffffffffffffffff1673ffffffffffffffffffffffffffffffffffffffff1681526020019081526020016000206040518060c0016040529081600082015481526020016001820160009054906101000a900473ffffffffffffffffffffffffffffffffffffffff1673ffffffffffffffffffffffffffffffffffffffff1673ffffffffffffffffffffffffffffffffffffffff168152602001600282018054610ebb9061223a565b80601f0160208091040260200160405190810160405280929190818152602001828054610ee79061223a565b8015610f345780601f10610f0957610100808354040283529160200191610f34565b820191906000526020600020905b815481529060010190602001808311610f1757829003601f168201915b50505050508152602001600382018054610f4d9061223a565b80601f0160208091040260200160405190810160405280929190818152602001828054610f799061223a565b8015610fc65780601f10610f9b57610100808354040283529160200191610fc6565b820191906000526020600020905b815481529060010190602001808311610fa957829003601f168201915b50505050508152602001600482018054610fdf9061223a565b80601f016020809104026020016040519081016040528092919081815260200182805461100b9061223a565b80156110585780601f1061102d57610100808354040283529160200191611058565b820191906000526020600020905b81548152906001019060200180831161103b57829003601f168201915b505050505081526020016005820154815250509250505090565b60008060000154905081565b6110866117e0565b600c60008373ffffffffffffffffffffffffffffffffffffffff1673ffffffffffffffffffffffffffffffffffffffff1681526020019081526020016000206040518060c0016040529081600082015481526020016001820160009054906101000a900473ffffffffffffffffffffffffffffffffffffffff1673ffffffffffffffffffffffffffffffffffffffff1673ffffffffffffffffffffffffffffffffffffffff1681526020016002820180546111409061223a565b80601f016020809104026020016040519081016040528092919081815260200182805461116c9061223a565b80156111b95780601f1061118e576101008083540402835291602001916111b9565b820191906000526020600020905b81548152906001019060200180831161119c57829003601f168201915b505050505081526020016003820180546111d29061223a565b80601f01602080910402602001604051908101604052809291908181526020018280546111fe9061223a565b801561124b5780601f106112205761010080835404028352916020019161124b565b820191906000526020600020905b81548152906001019060200180831161122e57829003601f168201915b505050505081526020016004820180546112649061223a565b80601f01602080910402602001604051908101604052809291908181526020018280546112909061223a565b80156112dd5780601f106112b2576101008083540402835291602001916112dd565b820191906000526020600020905b8154815290600101906020018083116112c057829003601f168201915b505050505081526020016005820154815250509050919050565b6112ff61182c565b600160405180610120016040529081600082015481526020016001820160009054906101000a900473ffffffffffffffffffffffffffffffffffffffff1673ffffffffffffffffffffffffffffffffffffffff1673ffffffffffffffffffffffffffffffffffffffff16815260200160028201805461137d9061223a565b80601f01602080910402602001604051908101604052809291908181526020018280546113a99061223a565b80156113f65780601f106113cb576101008083540402835291602001916113f6565b820191906000526020600020905b8154815290600101906020018083116113d957829003601f168201915b5050505050815260200160038201805461140f9061223a565b80601f016020809104026020016040519081016040528092919081815260200182805461143b9061223a565b80156114885780601f1061145d57610100808354040283529160200191611488565b820191906000526020600020905b81548152906001019060200180831161146b57829003601f168201915b505050505081526020016004820160009054906101000a900473ffffffffffffffffffffffffffffffffffffffff1673ffffffffffffffffffffffffffffffffffffffff1673ffffffffffffffffffffffffffffffffffffffff1681526020016005820160009054906101000a900473ffffffffffffffffffffffffffffffffffffffff1673ffffffffffffffffffffffffffffffffffffffff1673ffffffffffffffffffffffffffffffffffffffff16815260200160068201805461154d9061223a565b80601f01602080910402602001604051908101604052809291908181526020018280546115799061223a565b80156115c65780601f1061159b576101008083540402835291602001916115c6565b820191906000526020600020905b8154815290600101906020018083116115a957829003601f168201915b50505050508152602001600782015481526020016008820160009054906101000a900460ff1660028111156115fe576115fd612070565b5b60028111156116105761160f612070565b5b81525050905090565b6000806001905060005b600b805490508110156116b9578373ffffffffffffffffffffffffffffffffffffffff16600b828154811061165b5761165a6121dc565b5b9060005260206000200160009054906101000a900473ffffffffffffffffffffffffffffffffffffffff1673ffffffffffffffffffffffffffffffffffffffff16036116a657600091505b80806116b19061229a565b915050611623565b5080915050919050565b600160040160009054906101000a900473ffffffffffffffffffffffffffffffffffffffff1673ffffffffffffffffffffffffffffffffffffffff163373ffffffffffffffffffffffffffffffffffffffff1614611756576040517f08c379a000000000000000000000000000000000000000000000000000000000815260040161174d90612417565b60405180910390fd5b600b819080600181540180825580915050600190039060005260206000200160009091909190916101000a81548173ffffffffffffffffffffffffffffffffffffffff021916908373ffffffffffffffffffffffffffffffffffffffff16021790555050565b6001816000016000828254019250508190555050565b600081600001549050919050565b6040518060c0016040528060008152602001600073ffffffffffffffffffffffffffffffffffffffff168152602001606081526020016060815260200160608152602001600081525090565b60405180610120016040528060008152602001600073ffffffffffffffffffffffffffffffffffffffff1681526020016060815260200160608152602001600073ffffffffffffffffffffffffffffffffffffffff168152602001600073ffffffffffffffffffffffffffffffffffffffff1681526020016060815260200160008152602001600060028111156118c6576118c5612070565b5b81525090565b600081519050919050565b600082825260208201905092915050565b6000819050602082019050919050565b600073ffffffffffffffffffffffffffffffffffffffff82169050919050565b6000611923826118f8565b9050919050565b61193381611918565b82525050565b6000611945838361192a565b60208301905092915050565b6000602082019050919050565b6000611969826118cc565b61197381856118d7565b935061197e836118e8565b8060005b838110156119af5781516119968882611939565b97506119a183611951565b925050600181019050611982565b5085935050505092915050565b600060208201905081810360008301526119d6818461195e565b905092915050565b600081519050919050565b600082825260208201905092915050565b6000819050602082019050919050565b6000819050919050565b611a1d81611a0a565b82525050565b600081519050919050565b600082825260208201905092915050565b60005b83811015611a5d578082015181840152602081019050611a42565b60008484015250505050565b6000601f19601f8301169050919050565b6000611a8582611a23565b611a8f8185611a2e565b9350611a9f818560208601611a3f565b611aa881611a69565b840191505092915050565b600060c083016000830151611acb6000860182611a14565b506020830151611ade602086018261192a565b5060408301518482036040860152611af68282611a7a565b91505060608301518482036060860152611b108282611a7a565b91505060808301518482036080860152611b2a8282611a7a565b91505060a0830151611b3f60a0860182611a14565b508091505092915050565b6000611b568383611ab3565b905092915050565b6000602082019050919050565b6000611b76826119de565b611b8081856119e9565b935083602082028501611b92856119fa565b8060005b85811015611bce5784840389528151611baf8582611b4a565b9450611bba83611b5e565b925060208a01995050600181019050611b96565b50829750879550505050505092915050565b60006020820190508181036000830152611bfa8184611b6b565b905092915050565b6000604051905090565b600080fd5b600080fd5b611c1f81611918565b8114611c2a57600080fd5b50565b600081359050611c3c81611c16565b92915050565b60008060408385031215611c5957611c58611c0c565b5b6000611c6785828601611c2d565b9250506020611c7885828601611c2d565b9150509250929050565b60008115159050919050565b611c9781611c82565b82525050565b6000602082019050611cb26000830184611c8e565b92915050565b600080fd5b7f4e487b7100000000000000000000000000000000000000000000000000000000600052604160045260246000fd5b611cf582611a69565b810181811067ffffffffffffffff82111715611d1457611d13611cbd565b5b80604052505050565b6000611d27611c02565b9050611d338282611cec565b919050565b600080fd5b611d4681611a0a565b8114611d5157600080fd5b50565b600081359050611d6381611d3d565b92915050565b600080fd5b600080fd5b600067ffffffffffffffff821115611d8e57611d8d611cbd565b5b611d9782611a69565b9050602081019050919050565b82818337600083830152505050565b6000611dc6611dc184611d73565b611d1d565b905082815260208101848484011115611de257611de1611d6e565b5b611ded848285611da4565b509392505050565b600082601f830112611e0a57611e09611d69565b5b8135611e1a848260208601611db3565b91505092915050565b600060c08284031215611e3957611e38611cb8565b5b611e4360c0611d1d565b90506000611e5384828501611d54565b6000830152506020611e6784828501611c2d565b602083015250604082013567ffffffffffffffff811115611e8b57611e8a611d38565b5b611e9784828501611df5565b604083015250606082013567ffffffffffffffff811115611ebb57611eba611d38565b5b611ec784828501611df5565b606083015250608082013567ffffffffffffffff811115611eeb57611eea611d38565b5b611ef784828501611df5565b60808301525060a0611f0b84828501611d54565b60a08301525092915050565b600060208284031215611f2d57611f2c611c0c565b5b600082013567ffffffffffffffff811115611f4b57611f4a611c11565b5b611f5784828501611e23565b91505092915050565b600060c083016000830151611f786000860182611a14565b506020830151611f8b602086018261192a565b5060408301518482036040860152611fa38282611a7a565b91505060608301518482036060860152611fbd8282611a7a565b91505060808301518482036080860152611fd78282611a7a565b91505060a0830151611fec60a0860182611a14565b508091505092915050565b600060208201905081810360008301526120118184611f60565b905092915050565b61202281611a0a565b82525050565b600060208201905061203d6000830184612019565b92915050565b60006020828403121561205957612058611c0c565b5b600061206784828501611c2d565b91505092915050565b7f4e487b7100000000000000000000000000000000000000000000000000000000600052602160045260246000fd5b600381106120b0576120af612070565b5b50565b60008190506120c18261209f565b919050565b60006120d1826120b3565b9050919050565b6120e1816120c6565b82525050565b6000610120830160008301516121006000860182611a14565b506020830151612113602086018261192a565b506040830151848203604086015261212b8282611a7a565b915050606083015184820360608601526121458282611a7a565b915050608083015161215a608086018261192a565b5060a083015161216d60a086018261192a565b5060c083015184820360c08601526121858282611a7a565b91505060e083015161219a60e0860182611a14565b506101008301516121af6101008601826120d8565b508091505092915050565b600060208201905081810360008301526121d481846120e7565b905092915050565b7f4e487b7100000000000000000000000000000000000000000000000000000000600052603260045260246000fd5b7f4e487b7100000000000000000000000000000000000000000000000000000000600052602260045260246000fd5b6000600282049050600182168061225257607f821691505b6020821081036122655761226461220b565b5b50919050565b7f4e487b7100000000000000000000000000000000000000000000000000000000600052601160045260246000fd5b60006122a582611a0a565b91507fffffffffffffffffffffffffffffffffffffffffffffffffffffffffffffffff82036122d7576122d661226b565b5b600182019050919050565b600082825260208201905092915050565b7f5265717569726520656c656374696f6e20737461727400000000000000000000600082015250565b60006123296016836122e2565b9150612334826122f3565b602082019050919050565b600060208201905081810360008301526123588161231c565b9050919050565b7f55736572206861766520616c726561647920766f746564000000000000000000600082015250565b60006123956017836122e2565b91506123a08261235f565b602082019050919050565b600060208201905081810360008301526123c481612388565b9050919050565b7f5265717569726520636f6e74726163742063726561746f720000000000000000600082015250565b60006124016018836122e2565b915061240c826123cb565b602082019050919050565b60006020820190508181036000830152612430816123f4565b9050919050565b60008190508160005260206000209050919050565b60006020601f8301049050919050565b600082821b905092915050565b6000600883026124997fffffffffffffffffffffffffffffffffffffffffffffffffffffffffffffffff8261245c565b6124a3868361245c565b95508019841693508086168417925050509392505050565b6000819050919050565b60006124e06124db6124d684611a0a565b6124bb565b611a0a565b9050919050565b6000819050919050565b6124fa836124c5565b61250e612506826124e7565b848454612469565b825550505050565b600090565b612523612516565b61252e8184846124f1565b505050565b5b818110156125525761254760008261251b565b600181019050612534565b5050565b601f8211156125975761256881612437565b6125718461244c565b81016020851015612580578190505b61259461258c8561244c565b830182612533565b50505b505050565b600082821c905092915050565b60006125ba6000198460080261259c565b1980831691505092915050565b60006125d383836125a9565b9150826002028217905092915050565b6125ec82611a23565b67ffffffffffffffff81111561260557612604611cbd565b5b61260f825461223a565b61261a828285612556565b600060209050601f83116001811461264d576000841561263b578287015190505b61264585826125c7565b8655506126ad565b601f19841661265b86612437565b60005b828110156126835784890151825560018201915060208501945060208101905061265e565b868310156126a0578489015161269c601f8916826125a9565b8355505b6001600288020188555050505b505050505050565b60006126c082611a0a565b91506126cb83611a0a565b92508282019050808211156126e3576126e261226b565b5b92915050565b60006126f482611a23565b6126fe81856122e2565b935061270e818560208601611a3f565b61271781611a69565b840191505092915050565b60006080820190506127376000830187612019565b818103602083015261274981866126e9565b9050818103604083015261275d81856126e9565b9050818103606083015261277181846126e9565b90509594505050505056fea26469706673582212204780c40038b684541c7208c117df64eb50600f80ea1d26d4f520e13e2ce8512d64736f6c63430008110033",
    "linkReferences": {},
    "deployedLinkReferences": {}
}