{
  "_format": "hh-sol-artifact-1",
  "contractName": "Main",
  "sourceName": "contracts/main.sol",
  "abi": [
    {
      "inputs": [],
      "stateMutability": "nonpayable",
      "type": "constructor"
    },
    {
      "anonymous": false,
      "inputs": [
        {
          "indexed": false,
          "internalType": "uint256",
          "name": "_electionId",
          "type": "uint256"
        },
        {
          "indexed": false,
          "internalType": "address",
          "name": "_electionAddress",
          "type": "address"
        },
        {
          "indexed": true,
          "internalType": "string",
          "name": "_nameElection",
          "type": "string"
        },
        {
          "indexed": true,
          "internalType": "string",
          "name": "_descriptionelection",
          "type": "string"
        },
        {
          "indexed": false,
          "internalType": "address",
          "name": "_controllerAddress",
          "type": "address"
        },
        {
          "indexed": false,
          "internalType": "address",
          "name": "_addressWon",
          "type": "address"
        },
        {
          "indexed": false,
          "internalType": "uint256",
          "name": "_state",
          "type": "uint256"
        },
        {
          "indexed": false,
          "internalType": "string",
          "name": "_IPFS",
          "type": "string"
        }
      ],
      "name": "CreateElection",
      "type": "event"
    },
    {
      "anonymous": false,
      "inputs": [
        {
          "indexed": true,
          "internalType": "address",
          "name": "_electionAddress",
          "type": "address"
        }
      ],
      "name": "EndElection",
      "type": "event"
    },
    {
      "anonymous": false,
      "inputs": [
        {
          "indexed": true,
          "internalType": "address",
          "name": "_electionAddress",
          "type": "address"
        }
      ],
      "name": "StartElection",
      "type": "event"
    },
    {
      "anonymous": false,
      "inputs": [
        {
          "indexed": true,
          "internalType": "address",
          "name": "_electionAddress",
          "type": "address"
        },
        {
          "indexed": true,
          "internalType": "address",
          "name": "_candidateAddress",
          "type": "address"
        },
        {
          "indexed": true,
          "internalType": "address",
          "name": "_userAddress",
          "type": "address"
        }
      ],
      "name": "Vote",
      "type": "event"
    },
    {
      "inputs": [],
      "name": "_electionId",
      "outputs": [
        {
          "internalType": "uint256",
          "name": "_value",
          "type": "uint256"
        }
      ],
      "stateMutability": "view",
      "type": "function"
    },
    {
      "inputs": [
        {
          "internalType": "address",
          "name": "_electionAddress",
          "type": "address"
        },
        {
          "internalType": "address",
          "name": "_candidateAddress",
          "type": "address"
        },
        {
          "internalType": "string",
          "name": "_candidateName",
          "type": "string"
        },
        {
          "internalType": "string",
          "name": "_candidateDescription",
          "type": "string"
        },
        {
          "internalType": "string",
          "name": "_candidateIPFS",
          "type": "string"
        }
      ],
      "name": "addCandidate",
      "outputs": [],
      "stateMutability": "nonpayable",
      "type": "function"
    },
    {
      "inputs": [],
      "name": "admin",
      "outputs": [
        {
          "internalType": "address",
          "name": "",
          "type": "address"
        }
      ],
      "stateMutability": "view",
      "type": "function"
    },
    {
      "inputs": [
        {
          "internalType": "string",
          "name": "_nameElection",
          "type": "string"
        },
        {
          "internalType": "string",
          "name": "_descriptionelection",
          "type": "string"
        },
        {
          "internalType": "string",
          "name": "_IPFS",
          "type": "string"
        }
      ],
      "name": "createElection",
      "outputs": [],
      "stateMutability": "nonpayable",
      "type": "function"
    },
    {
      "inputs": [
        {
          "internalType": "address",
          "name": "_electionAddress",
          "type": "address"
        }
      ],
      "name": "endElection",
      "outputs": [],
      "stateMutability": "nonpayable",
      "type": "function"
    },
    {
      "inputs": [
        {
          "internalType": "address",
          "name": "_electionAddress",
          "type": "address"
        },
        {
          "internalType": "address",
          "name": "_candidateAddress",
          "type": "address"
        }
      ],
      "name": "getCandidate",
      "outputs": [
        {
          "components": [
            {
              "internalType": "uint256",
              "name": "candidateId",
              "type": "uint256"
            },
            {
              "internalType": "address",
              "name": "candidateAddress",
              "type": "address"
            },
            {
              "internalType": "string",
              "name": "candidateName",
              "type": "string"
            },
            {
              "internalType": "string",
              "name": "candidateDescription",
              "type": "string"
            },
            {
              "internalType": "string",
              "name": "candidateIPFS",
              "type": "string"
            },
            {
              "internalType": "uint256",
              "name": "numberVoted",
              "type": "uint256"
            }
          ],
          "internalType": "struct Candidate",
          "name": "",
          "type": "tuple"
        }
      ],
      "stateMutability": "view",
      "type": "function"
    },
    {
      "inputs": [
        {
          "internalType": "address",
          "name": "_electionAddress",
          "type": "address"
        }
      ],
      "name": "getCandidates",
      "outputs": [
        {
          "components": [
            {
              "internalType": "uint256",
              "name": "candidateId",
              "type": "uint256"
            },
            {
              "internalType": "address",
              "name": "candidateAddress",
              "type": "address"
            },
            {
              "internalType": "string",
              "name": "candidateName",
              "type": "string"
            },
            {
              "internalType": "string",
              "name": "candidateDescription",
              "type": "string"
            },
            {
              "internalType": "string",
              "name": "candidateIPFS",
              "type": "string"
            },
            {
              "internalType": "uint256",
              "name": "numberVoted",
              "type": "uint256"
            }
          ],
          "internalType": "struct Candidate[]",
          "name": "",
          "type": "tuple[]"
        }
      ],
      "stateMutability": "view",
      "type": "function"
    },
    {
      "inputs": [
        {
          "internalType": "address",
          "name": "_electionAddress",
          "type": "address"
        }
      ],
      "name": "getElection",
      "outputs": [
        {
          "components": [
            {
              "internalType": "uint256",
              "name": "id",
              "type": "uint256"
            },
            {
              "internalType": "address",
              "name": "electionAddress",
              "type": "address"
            },
            {
              "internalType": "string",
              "name": "name",
              "type": "string"
            },
            {
              "internalType": "string",
              "name": "descriptionElection",
              "type": "string"
            },
            {
              "internalType": "address",
              "name": "controllerAddress",
              "type": "address"
            },
            {
              "internalType": "address",
              "name": "wonAddress",
              "type": "address"
            },
            {
              "internalType": "string",
              "name": "IPFS",
              "type": "string"
            },
            {
              "internalType": "uint256",
              "name": "numberCandidate",
              "type": "uint256"
            },
            {
              "internalType": "enum State",
              "name": "state",
              "type": "uint8"
            }
          ],
          "internalType": "struct ElectionModel",
          "name": "",
          "type": "tuple"
        }
      ],
      "stateMutability": "view",
      "type": "function"
    },
    {
      "inputs": [],
      "name": "getElections",
      "outputs": [
        {
          "components": [
            {
              "internalType": "uint256",
              "name": "id",
              "type": "uint256"
            },
            {
              "internalType": "address",
              "name": "electionAddress",
              "type": "address"
            },
            {
              "internalType": "string",
              "name": "name",
              "type": "string"
            },
            {
              "internalType": "string",
              "name": "descriptionElection",
              "type": "string"
            },
            {
              "internalType": "address",
              "name": "controllerAddress",
              "type": "address"
            },
            {
              "internalType": "address",
              "name": "wonAddress",
              "type": "address"
            },
            {
              "internalType": "string",
              "name": "IPFS",
              "type": "string"
            },
            {
              "internalType": "uint256",
              "name": "numberCandidate",
              "type": "uint256"
            },
            {
              "internalType": "enum State",
              "name": "state",
              "type": "uint8"
            }
          ],
          "internalType": "struct ElectionModel[]",
          "name": "",
          "type": "tuple[]"
        }
      ],
      "stateMutability": "view",
      "type": "function"
    },
    {
      "inputs": [
        {
          "internalType": "address",
          "name": "_electionAddress",
          "type": "address"
        }
      ],
      "name": "getUsers",
      "outputs": [
        {
          "internalType": "address[]",
          "name": "",
          "type": "address[]"
        }
      ],
      "stateMutability": "view",
      "type": "function"
    },
    {
      "inputs": [
        {
          "internalType": "address",
          "name": "_electionAddress",
          "type": "address"
        }
      ],
      "name": "getWonElection",
      "outputs": [
        {
          "components": [
            {
              "internalType": "uint256",
              "name": "candidateId",
              "type": "uint256"
            },
            {
              "internalType": "address",
              "name": "candidateAddress",
              "type": "address"
            },
            {
              "internalType": "string",
              "name": "candidateName",
              "type": "string"
            },
            {
              "internalType": "string",
              "name": "candidateDescription",
              "type": "string"
            },
            {
              "internalType": "string",
              "name": "candidateIPFS",
              "type": "string"
            },
            {
              "internalType": "uint256",
              "name": "numberVoted",
              "type": "uint256"
            }
          ],
          "internalType": "struct Candidate",
          "name": "",
          "type": "tuple"
        }
      ],
      "stateMutability": "nonpayable",
      "type": "function"
    },
    {
      "inputs": [
        {
          "internalType": "address",
          "name": "_electionAddress",
          "type": "address"
        }
      ],
      "name": "startElection",
      "outputs": [],
      "stateMutability": "nonpayable",
      "type": "function"
    },
    {
      "inputs": [
        {
          "internalType": "address",
          "name": "_electionAddress",
          "type": "address"
        },
        {
          "internalType": "address",
          "name": "_candidateAddress",
          "type": "address"
        },
        {
          "internalType": "address",
          "name": "_userAddress",
          "type": "address"
        }
      ],
      "name": "vote",
      "outputs": [
        {
          "internalType": "bool",
          "name": "",
          "type": "bool"
        }
      ],
      "stateMutability": "nonpayable",
      "type": "function"
    }
  ],
  "bytecode": "0x608060405234801561001057600080fd5b5033600160006101000a81548173ffffffffffffffffffffffffffffffffffffffff021916908373ffffffffffffffffffffffffffffffffffffffff1602179055506156ee806100616000396000f3fe60806040523480156200001157600080fd5b5060043610620000e25760003560e01c80639f3a7f521162000099578063e6a5e61d116200006f578063e6a5e61d1462000277578063f32656f81462000297578063f7610be014620002b9578063f851a44014620002ef57620000e2565b80639f3a7f5214620001e9578063a26ac665146200020b578063b275f308146200024157620000e2565b806307e4b70a14620000e75780633bd6b3dd14620001075780633eefa56b146200013d5780634a6cf3a91462000173578063602b386e14620001935780638ff04b4114620001c9575b600080fd5b620001056004803603810190620000ff919062001112565b62000311565b005b6200012560048036038101906200011f919062001112565b62000452565b604051620001349190620012ad565b60405180910390f35b6200015b600480360381019062000155919062001112565b62000575565b6040516200016a919062001444565b60405180910390f35b6200019160048036038101906200018b9190620015b9565b620005fb565b005b620001b16004803603810190620001ab919062001112565b620007d6565b604051620001c091906200172f565b60405180910390f35b620001e76004803603810190620001e1919062001753565b620008ee565b005b620001f362000a5a565b60405162000202919062001a6d565b60405180910390f35b62000229600480360381019062000223919062001a91565b62000bce565b604051620002389190620012ad565b60405180910390f35b6200025f600480360381019062000259919062001112565b62000c6a565b6040516200026e919062001bbd565b60405180910390f35b6200029560048036038101906200028f919062001112565b62000cfe565b005b620002a162000e3f565b604051620002b0919062001bf2565b60405180910390f35b620002d76004803603810190620002d1919062001c0f565b62000e4b565b604051620002e6919062001c88565b60405180910390f35b620002f962000f52565b60405162000308919062001cb6565b60405180910390f35b3373ffffffffffffffffffffffffffffffffffffffff16600160009054906101000a900473ffffffffffffffffffffffffffffffffffffffff1673ffffffffffffffffffffffffffffffffffffffff1614620003a4576040517f08c379a00000000000000000000000000000000000000000000000000000000081526004016200039b9062001d34565b60405180910390fd5b60008190508073ffffffffffffffffffffffffffffffffffffffff166359f784686040518163ffffffff1660e01b8152600401600060405180830381600087803b158015620003f257600080fd5b505af115801562000407573d6000803e3d6000fd5b505050508173ffffffffffffffffffffffffffffffffffffffff167f8dc4e3bb095794e17a0cf619ad12f97089307f149b452bcadca36a21132aabed60405160405180910390a25050565b6200045c62000f9c565b3373ffffffffffffffffffffffffffffffffffffffff16600160009054906101000a900473ffffffffffffffffffffffffffffffffffffffff1673ffffffffffffffffffffffffffffffffffffffff1614620004ef576040517f08c379a0000000000000000000000000000000000000000000000000000000008152600401620004e69062001d34565b60405180910390fd5b60008290508073ffffffffffffffffffffffffffffffffffffffff1663699f074c6040518163ffffffff1660e01b81526004016000604051808303816000875af115801562000542573d6000803e3d6000fd5b505050506040513d6000823e3d601f19601f820116820180604052508101906200056d919062001f34565b915050919050565b606060008290508073ffffffffffffffffffffffffffffffffffffffff166306a49fce6040518163ffffffff1660e01b8152600401600060405180830381865afa158015620005c8573d6000803e3d6000fd5b505050506040513d6000823e3d601f19601f82011682018060405250810190620005f3919062002081565b915050919050565b3373ffffffffffffffffffffffffffffffffffffffff16600160009054906101000a900473ffffffffffffffffffffffffffffffffffffffff1673ffffffffffffffffffffffffffffffffffffffff16146200068e576040517f08c379a0000000000000000000000000000000000000000000000000000000008152600401620006859062001d34565b60405180910390fd5b6200069a600062000f78565b6000620006a8600062000f8e565b9050600081308686866000604051620006c19062000fe8565b620006d29695949392919062002160565b604051809103906000f080158015620006ef573d6000803e3d6000fd5b50905060008190506002819080600181540180825580915050600190039060005260206000200160009091909190916101000a81548173ffffffffffffffffffffffffffffffffffffffff021916908373ffffffffffffffffffffffffffffffffffffffff160217905550846040516200076a919062002224565b60405180910390208660405162000782919062002224565b60405180910390207f27eaf5c2bb40b7e38689ded50914286b3775b7867cc421ed33084d38c88d64678584306000808b604051620007c6969594939291906200223d565b60405180910390a3505050505050565b60603373ffffffffffffffffffffffffffffffffffffffff16600160009054906101000a900473ffffffffffffffffffffffffffffffffffffffff1673ffffffffffffffffffffffffffffffffffffffff16146200086b576040517f08c379a0000000000000000000000000000000000000000000000000000000008152600401620008629062001d34565b60405180910390fd5b60008290508073ffffffffffffffffffffffffffffffffffffffff1662ce8e3e6040518163ffffffff1660e01b8152600401600060405180830381865afa158015620008bb573d6000803e3d6000fd5b505050506040513d6000823e3d601f19601f82011682018060405250810190620008e6919062002387565b915050919050565b3373ffffffffffffffffffffffffffffffffffffffff16600160009054906101000a900473ffffffffffffffffffffffffffffffffffffffff1673ffffffffffffffffffffffffffffffffffffffff161462000981576040517f08c379a0000000000000000000000000000000000000000000000000000000008152600401620009789062001d34565b60405180910390fd5b60006040518060c00160405280600081526020018673ffffffffffffffffffffffffffffffffffffffff1681526020018581526020018481526020018381526020016000815250905060008690508073ffffffffffffffffffffffffffffffffffffffff16635f9c6185836040518263ffffffff1660e01b815260040162000a0a9190620012ad565b6020604051808303816000875af115801562000a2a573d6000803e3d6000fd5b505050506040513d601f19601f8201168201806040525081019062000a50919062002409565b5050505050505050565b6060600060028054905067ffffffffffffffff81111562000a805762000a7f62001472565b5b60405190808252806020026020018201604052801562000abd57816020015b62000aa962000ff6565b81526020019060019003908162000a9f5790505b50905060005b60028054905081101562000bc65760006002828154811062000aea5762000ae96200243b565b5b9060005260206000200160009054906101000a900473ffffffffffffffffffffffffffffffffffffffff1690508073ffffffffffffffffffffffffffffffffffffffff1663eceed3396040518163ffffffff1660e01b8152600401600060405180830381865afa15801562000b63573d6000803e3d6000fd5b505050506040513d6000823e3d601f19601f8201168201806040525081019062000b8e9190620025e6565b83838151811062000ba45762000ba36200243b565b5b602002602001018190525050808062000bbd9062002666565b91505062000ac3565b508091505090565b62000bd862000f9c565b60008390508073ffffffffffffffffffffffffffffffffffffffff1663b7adcf1d846040518263ffffffff1660e01b815260040162000c18919062001cb6565b600060405180830381865afa15801562000c36573d6000803e3d6000fd5b505050506040513d6000823e3d601f19601f8201168201806040525081019062000c61919062001f34565b91505092915050565b62000c7462000ff6565b600082905060008173ffffffffffffffffffffffffffffffffffffffff1663eceed3396040518163ffffffff1660e01b8152600401600060405180830381865afa15801562000cc7573d6000803e3d6000fd5b505050506040513d6000823e3d601f19601f8201168201806040525081019062000cf29190620025e6565b90508092505050919050565b3373ffffffffffffffffffffffffffffffffffffffff16600160009054906101000a900473ffffffffffffffffffffffffffffffffffffffff1673ffffffffffffffffffffffffffffffffffffffff161462000d91576040517f08c379a000000000000000000000000000000000000000000000000000000000815260040162000d889062001d34565b60405180910390fd5b60008190508073ffffffffffffffffffffffffffffffffffffffff166362d73eb86040518163ffffffff1660e01b8152600401600060405180830381600087803b15801562000ddf57600080fd5b505af115801562000df4573d6000803e3d6000fd5b505050508173ffffffffffffffffffffffffffffffffffffffff167f4b0480a2a3eccd94e0ddf44d8678222bdba6d2e5fa3ad05e9f961acf9d10072260405160405180910390a25050565b60008060000154905081565b6000808490508073ffffffffffffffffffffffffffffffffffffffff16631afa74e585856040518363ffffffff1660e01b815260040162000e8e929190620026b3565b6020604051808303816000875af115801562000eae573d6000803e3d6000fd5b505050506040513d601f19601f8201168201806040525081019062000ed4919062002409565b508273ffffffffffffffffffffffffffffffffffffffff168473ffffffffffffffffffffffffffffffffffffffff168673ffffffffffffffffffffffffffffffffffffffff167f9a1e9a86c5c22f04a0baa58da07f5c6bdc81f517b4ada97b420b612d2c3470b260405160405180910390a460019150509392505050565b600160009054906101000a900473ffffffffffffffffffffffffffffffffffffffff1681565b6001816000016000828254019250508190555050565b600081600001549050919050565b6040518060c0016040528060008152602001600073ffffffffffffffffffffffffffffffffffffffff168152602001606081526020016060815260200160608152602001600081525090565b612fd880620026e183390190565b60405180610120016040528060008152602001600073ffffffffffffffffffffffffffffffffffffffff1681526020016060815260200160608152602001600073ffffffffffffffffffffffffffffffffffffffff168152602001600073ffffffffffffffffffffffffffffffffffffffff16815260200160608152602001600081526020016000600281111562001093576200109262001864565b5b81525090565b6000604051905090565b600080fd5b600080fd5b600073ffffffffffffffffffffffffffffffffffffffff82169050919050565b6000620010da82620010ad565b9050919050565b620010ec81620010cd565b8114620010f857600080fd5b50565b6000813590506200110c81620010e1565b92915050565b6000602082840312156200112b576200112a620010a3565b5b60006200113b84828501620010fb565b91505092915050565b6000819050919050565b620011598162001144565b82525050565b6200116a81620010cd565b82525050565b600081519050919050565b600082825260208201905092915050565b60005b83811015620011ac5780820151818401526020810190506200118f565b60008484015250505050565b6000601f19601f8301169050919050565b6000620011d68262001170565b620011e281856200117b565b9350620011f48185602086016200118c565b620011ff81620011b8565b840191505092915050565b600060c0830160008301516200122460008601826200114e565b5060208301516200123960208601826200115f565b5060408301518482036040860152620012538282620011c9565b915050606083015184820360608601526200126f8282620011c9565b915050608083015184820360808601526200128b8282620011c9565b91505060a0830151620012a260a08601826200114e565b508091505092915050565b60006020820190508181036000830152620012c981846200120a565b905092915050565b600081519050919050565b600082825260208201905092915050565b6000819050602082019050919050565b600060c0830160008301516200131760008601826200114e565b5060208301516200132c60208601826200115f565b5060408301518482036040860152620013468282620011c9565b91505060608301518482036060860152620013628282620011c9565b915050608083015184820360808601526200137e8282620011c9565b91505060a08301516200139560a08601826200114e565b508091505092915050565b6000620013ae8383620012fd565b905092915050565b6000602082019050919050565b6000620013d082620012d1565b620013dc8185620012dc565b935083602082028501620013f085620012ed565b8060005b85811015620014325784840389528151620014108582620013a0565b94506200141d83620013b6565b925060208a01995050600181019050620013f4565b50829750879550505050505092915050565b60006020820190508181036000830152620014608184620013c3565b905092915050565b600080fd5b600080fd5b7f4e487b7100000000000000000000000000000000000000000000000000000000600052604160045260246000fd5b620014ac82620011b8565b810181811067ffffffffffffffff82111715620014ce57620014cd62001472565b5b80604052505050565b6000620014e362001099565b9050620014f18282620014a1565b919050565b600067ffffffffffffffff82111562001514576200151362001472565b5b6200151f82620011b8565b9050602081019050919050565b82818337600083830152505050565b6000620015526200154c84620014f6565b620014d7565b9050828152602081018484840111156200157157620015706200146d565b5b6200157e8482856200152c565b509392505050565b600082601f8301126200159e576200159d62001468565b5b8135620015b08482602086016200153b565b91505092915050565b600080600060608486031215620015d557620015d4620010a3565b5b600084013567ffffffffffffffff811115620015f657620015f5620010a8565b5b620016048682870162001586565b935050602084013567ffffffffffffffff811115620016285762001627620010a8565b5b620016368682870162001586565b925050604084013567ffffffffffffffff8111156200165a5762001659620010a8565b5b620016688682870162001586565b9150509250925092565b600081519050919050565b600082825260208201905092915050565b6000819050602082019050919050565b6000620016ac83836200115f565b60208301905092915050565b6000602082019050919050565b6000620016d28262001672565b620016de81856200167d565b9350620016eb836200168e565b8060005b83811015620017225781516200170688826200169e565b97506200171383620016b8565b925050600181019050620016ef565b5085935050505092915050565b600060208201905081810360008301526200174b8184620016c5565b905092915050565b600080600080600060a08688031215620017725762001771620010a3565b5b60006200178288828901620010fb565b95505060206200179588828901620010fb565b945050604086013567ffffffffffffffff811115620017b957620017b8620010a8565b5b620017c78882890162001586565b935050606086013567ffffffffffffffff811115620017eb57620017ea620010a8565b5b620017f98882890162001586565b925050608086013567ffffffffffffffff8111156200181d576200181c620010a8565b5b6200182b8882890162001586565b9150509295509295909350565b600081519050919050565b600082825260208201905092915050565b6000819050602082019050919050565b7f4e487b7100000000000000000000000000000000000000000000000000000000600052602160045260246000fd5b60038110620018a757620018a662001864565b5b50565b6000819050620018ba8262001893565b919050565b6000620018cc82620018aa565b9050919050565b620018de81620018bf565b82525050565b600061012083016000830151620018ff60008601826200114e565b5060208301516200191460208601826200115f565b50604083015184820360408601526200192e8282620011c9565b915050606083015184820360608601526200194a8282620011c9565b91505060808301516200196160808601826200115f565b5060a08301516200197660a08601826200115f565b5060c083015184820360c0860152620019908282620011c9565b91505060e0830151620019a760e08601826200114e565b50610100830151620019be610100860182620018d3565b508091505092915050565b6000620019d78383620018e4565b905092915050565b6000602082019050919050565b6000620019f98262001838565b62001a05818562001843565b93508360208202850162001a198562001854565b8060005b8581101562001a5b578484038952815162001a398582620019c9565b945062001a4683620019df565b925060208a0199505060018101905062001a1d565b50829750879550505050505092915050565b6000602082019050818103600083015262001a898184620019ec565b905092915050565b6000806040838503121562001aab5762001aaa620010a3565b5b600062001abb85828601620010fb565b925050602062001ace85828601620010fb565b9150509250929050565b60006101208301600083015162001af360008601826200114e565b50602083015162001b0860208601826200115f565b506040830151848203604086015262001b228282620011c9565b9150506060830151848203606086015262001b3e8282620011c9565b915050608083015162001b5560808601826200115f565b5060a083015162001b6a60a08601826200115f565b5060c083015184820360c086015262001b848282620011c9565b91505060e083015162001b9b60e08601826200114e565b5061010083015162001bb2610100860182620018d3565b508091505092915050565b6000602082019050818103600083015262001bd9818462001ad8565b905092915050565b62001bec8162001144565b82525050565b600060208201905062001c09600083018462001be1565b92915050565b60008060006060848603121562001c2b5762001c2a620010a3565b5b600062001c3b86828701620010fb565b935050602062001c4e86828701620010fb565b925050604062001c6186828701620010fb565b9150509250925092565b60008115159050919050565b62001c828162001c6b565b82525050565b600060208201905062001c9f600083018462001c77565b92915050565b62001cb081620010cd565b82525050565b600060208201905062001ccd600083018462001ca5565b92915050565b600082825260208201905092915050565b7f526571756972652061646d696e20616363657373000000000000000000000000600082015250565b600062001d1c60148362001cd3565b915062001d298262001ce4565b602082019050919050565b6000602082019050818103600083015262001d4f8162001d0d565b9050919050565b600080fd5b600080fd5b62001d6b8162001144565b811462001d7757600080fd5b50565b60008151905062001d8b8162001d60565b92915050565b60008151905062001da281620010e1565b92915050565b600062001dbf62001db984620014f6565b620014d7565b90508281526020810184848401111562001dde5762001ddd6200146d565b5b62001deb8482856200118c565b509392505050565b600082601f83011262001e0b5762001e0a62001468565b5b815162001e1d84826020860162001da8565b91505092915050565b600060c0828403121562001e3f5762001e3e62001d56565b5b62001e4b60c0620014d7565b9050600062001e5d8482850162001d7a565b600083015250602062001e738482850162001d91565b602083015250604082015167ffffffffffffffff81111562001e9a5762001e9962001d5b565b5b62001ea88482850162001df3565b604083015250606082015167ffffffffffffffff81111562001ecf5762001ece62001d5b565b5b62001edd8482850162001df3565b606083015250608082015167ffffffffffffffff81111562001f045762001f0362001d5b565b5b62001f128482850162001df3565b60808301525060a062001f288482850162001d7a565b60a08301525092915050565b60006020828403121562001f4d5762001f4c620010a3565b5b600082015167ffffffffffffffff81111562001f6e5762001f6d620010a8565b5b62001f7c8482850162001e26565b91505092915050565b600067ffffffffffffffff82111562001fa35762001fa262001472565b5b602082029050602081019050919050565b600080fd5b600062001fd062001fca8462001f85565b620014d7565b9050808382526020820190506020840283018581111562001ff65762001ff562001fb4565b5b835b818110156200204457805167ffffffffffffffff8111156200201f576200201e62001468565b5b8086016200202e898262001e26565b8552602085019450505060208101905062001ff8565b5050509392505050565b600082601f83011262002066576200206562001468565b5b81516200207884826020860162001fb9565b91505092915050565b6000602082840312156200209a5762002099620010a3565b5b600082015167ffffffffffffffff811115620020bb57620020ba620010a8565b5b620020c9848285016200204e565b91505092915050565b6000620020df8262001170565b620020eb818562001cd3565b9350620020fd8185602086016200118c565b6200210881620011b8565b840191505092915050565b6000819050919050565b6000819050919050565b600062002148620021426200213c8462002113565b6200211d565b62001144565b9050919050565b6200215a8162002127565b82525050565b600060c08201905062002177600083018962001be1565b62002186602083018862001ca5565b81810360408301526200219a8187620020d2565b90508181036060830152620021b08186620020d2565b90508181036080830152620021c68185620020d2565b9050620021d760a08301846200214f565b979650505050505050565b600081905092915050565b6000620021fa8262001170565b620022068185620021e2565b9350620022188185602086016200118c565b80840191505092915050565b6000620022328284620021ed565b915081905092915050565b600060c08201905062002254600083018962001be1565b62002263602083018862001ca5565b62002272604083018762001ca5565b62002281606083018662001ca5565b6200229060808301856200214f565b81810360a0830152620022a48184620020d2565b9050979650505050505050565b600067ffffffffffffffff821115620022cf57620022ce62001472565b5b602082029050602081019050919050565b6000620022f7620022f184620022b1565b620014d7565b905080838252602082019050602084028301858111156200231d576200231c62001fb4565b5b835b818110156200234a578062002335888262001d91565b8452602084019350506020810190506200231f565b5050509392505050565b600082601f8301126200236c576200236b62001468565b5b81516200237e848260208601620022e0565b91505092915050565b600060208284031215620023a0576200239f620010a3565b5b600082015167ffffffffffffffff811115620023c157620023c0620010a8565b5b620023cf8482850162002354565b91505092915050565b620023e38162001c6b565b8114620023ef57600080fd5b50565b6000815190506200240381620023d8565b92915050565b600060208284031215620024225762002421620010a3565b5b60006200243284828501620023f2565b91505092915050565b7f4e487b7100000000000000000000000000000000000000000000000000000000600052603260045260246000fd5b600381106200247857600080fd5b50565b6000815190506200248c816200246a565b92915050565b60006101208284031215620024ac57620024ab62001d56565b5b620024b9610120620014d7565b90506000620024cb8482850162001d7a565b6000830152506020620024e18482850162001d91565b602083015250604082015167ffffffffffffffff81111562002508576200250762001d5b565b5b620025168482850162001df3565b604083015250606082015167ffffffffffffffff8111156200253d576200253c62001d5b565b5b6200254b8482850162001df3565b6060830152506080620025618482850162001d91565b60808301525060a0620025778482850162001d91565b60a08301525060c082015167ffffffffffffffff8111156200259e576200259d62001d5b565b5b620025ac8482850162001df3565b60c08301525060e0620025c28482850162001d7a565b60e083015250610100620025d9848285016200247b565b6101008301525092915050565b600060208284031215620025ff57620025fe620010a3565b5b600082015167ffffffffffffffff81111562002620576200261f620010a8565b5b6200262e8482850162002492565b91505092915050565b7f4e487b7100000000000000000000000000000000000000000000000000000000600052601160045260246000fd5b6000620026738262001144565b91507fffffffffffffffffffffffffffffffffffffffffffffffffffffffffffffffff8203620026a857620026a762002637565b5b600182019050919050565b6000604082019050620026ca600083018562001ca5565b620026d9602083018462001ca5565b939250505056fe60806040523480156200001157600080fd5b5060405162002fd838038062002fd88339818101604052810190620000379190620003c6565b856001600001819055506000600160080160006101000a81548160ff021916908360028111156200006d576200006c620004bf565b5b021790555084600160040160006101000a81548173ffffffffffffffffffffffffffffffffffffffff021916908373ffffffffffffffffffffffffffffffffffffffff1602179055508260016003019081620000ca91906200072f565b508360016002019081620000df91906200072f565b508160016006019081620000f491906200072f565b5080600160070181905550306001800160006101000a81548173ffffffffffffffffffffffffffffffffffffffff021916908373ffffffffffffffffffffffffffffffffffffffff1602179055506000600160050160006101000a81548173ffffffffffffffffffffffffffffffffffffffff021916908373ffffffffffffffffffffffffffffffffffffffff16021790555050505050505062000816565b6000604051905090565b600080fd5b600080fd5b6000819050919050565b620001bc81620001a7565b8114620001c857600080fd5b50565b600081519050620001dc81620001b1565b92915050565b600073ffffffffffffffffffffffffffffffffffffffff82169050919050565b60006200020f82620001e2565b9050919050565b620002218162000202565b81146200022d57600080fd5b50565b600081519050620002418162000216565b92915050565b600080fd5b600080fd5b6000601f19601f8301169050919050565b7f4e487b7100000000000000000000000000000000000000000000000000000000600052604160045260246000fd5b6200029c8262000251565b810181811067ffffffffffffffff82111715620002be57620002bd62000262565b5b80604052505050565b6000620002d362000193565b9050620002e1828262000291565b919050565b600067ffffffffffffffff82111562000304576200030362000262565b5b6200030f8262000251565b9050602081019050919050565b60005b838110156200033c5780820151818401526020810190506200031f565b60008484015250505050565b60006200035f6200035984620002e6565b620002c7565b9050828152602081018484840111156200037e576200037d6200024c565b5b6200038b8482856200031c565b509392505050565b600082601f830112620003ab57620003aa62000247565b5b8151620003bd84826020860162000348565b91505092915050565b60008060008060008060c08789031215620003e657620003e56200019d565b5b6000620003f689828a01620001cb565b96505060206200040989828a0162000230565b955050604087015167ffffffffffffffff8111156200042d576200042c620001a2565b5b6200043b89828a0162000393565b945050606087015167ffffffffffffffff8111156200045f576200045e620001a2565b5b6200046d89828a0162000393565b935050608087015167ffffffffffffffff811115620004915762000490620001a2565b5b6200049f89828a0162000393565b92505060a0620004b289828a01620001cb565b9150509295509295509295565b7f4e487b7100000000000000000000000000000000000000000000000000000000600052602160045260246000fd5b600081519050919050565b7f4e487b7100000000000000000000000000000000000000000000000000000000600052602260045260246000fd5b600060028204905060018216806200054157607f821691505b602082108103620005575762000556620004f9565b5b50919050565b60008190508160005260206000209050919050565b60006020601f8301049050919050565b600082821b905092915050565b600060088302620005c17fffffffffffffffffffffffffffffffffffffffffffffffffffffffffffffffff8262000582565b620005cd868362000582565b95508019841693508086168417925050509392505050565b6000819050919050565b6000620006106200060a6200060484620001a7565b620005e5565b620001a7565b9050919050565b6000819050919050565b6200062c83620005ef565b620006446200063b8262000617565b8484546200058f565b825550505050565b600090565b6200065b6200064c565b6200066881848462000621565b505050565b5b8181101562000690576200068460008262000651565b6001810190506200066e565b5050565b601f821115620006df57620006a9816200055d565b620006b48462000572565b81016020851015620006c4578190505b620006dc620006d38562000572565b8301826200066d565b50505b505050565b600082821c905092915050565b60006200070460001984600802620006e4565b1980831691505092915050565b60006200071f8383620006f1565b9150826002028217905092915050565b6200073a82620004ee565b67ffffffffffffffff81111562000756576200075562000262565b5b62000762825462000528565b6200076f82828562000694565b600060209050601f831160018114620007a7576000841562000792578287015190505b6200079e858262000711565b8655506200080e565b601f198416620007b7866200055d565b60005b82811015620007e157848901518255600182019150602085019450602081019050620007ba565b86831015620008015784890151620007fd601f891682620006f1565b8355505b6001600288020188555050505b505050505050565b6127b280620008266000396000f3fe608060405234801561001057600080fd5b506004361061009d5760003560e01c806362d73eb81161006657806362d73eb814610148578063699f074c14610152578063a738896714610170578063b7adcf1d1461018e578063eceed339146101be5761009d565b8062ce8e3e146100a257806306a49fce146100c05780631afa74e5146100de57806359f784681461010e5780635f9c618514610118575b600080fd5b6100aa6101dc565b6040516100b791906119bc565b60405180910390f35b6100c861026a565b6040516100d59190611be0565b60405180910390f35b6100f860048036038101906100f39190611c42565b6105c1565b6040516101059190611c9d565b60405180910390f35b610116610782565b005b610132600480360381019061012d9190611f17565b610845565b60405161013f9190611c9d565b60405180910390f35b610150610aef565b005b61015a610bb1565b6040516101679190611ff7565b60405180910390f35b610178611072565b6040516101859190612028565b60405180910390f35b6101a860048036038101906101a39190612043565b61107e565b6040516101b59190611ff7565b60405180910390f35b6101c66112f7565b6040516101d391906121ba565b60405180910390f35b6060600b80548060200260200160405190810160405280929190818152602001828054801561026057602002820191906000526020600020905b8160009054906101000a900473ffffffffffffffffffffffffffffffffffffffff1673ffffffffffffffffffffffffffffffffffffffff1681526020019060010190808311610216575b5050505050905090565b60606000600a80549050905060008167ffffffffffffffff81111561029257610291611cbd565b5b6040519080825280602002602001820160405280156102cb57816020015b6102b86117e0565b8152602001906001900390816102b05790505b50905060005b828110156105b8576000600a82815481106102ef576102ee6121dc565b5b9060005260206000200160009054906101000a900473ffffffffffffffffffffffffffffffffffffffff169050600c60008273ffffffffffffffffffffffffffffffffffffffff1673ffffffffffffffffffffffffffffffffffffffff1681526020019081526020016000206040518060c0016040529081600082015481526020016001820160009054906101000a900473ffffffffffffffffffffffffffffffffffffffff1673ffffffffffffffffffffffffffffffffffffffff1673ffffffffffffffffffffffffffffffffffffffff1681526020016002820180546103d69061223a565b80601f01602080910402602001604051908101604052809291908181526020018280546104029061223a565b801561044f5780601f106104245761010080835404028352916020019161044f565b820191906000526020600020905b81548152906001019060200180831161043257829003601f168201915b505050505081526020016003820180546104689061223a565b80601f01602080910402602001604051908101604052809291908181526020018280546104949061223a565b80156104e15780601f106104b6576101008083540402835291602001916104e1565b820191906000526020600020905b8154815290600101906020018083116104c457829003601f168201915b505050505081526020016004820180546104fa9061223a565b80601f01602080910402602001604051908101604052809291908181526020018280546105269061223a565b80156105735780601f1061054857610100808354040283529160200191610573565b820191906000526020600020905b81548152906001019060200180831161055657829003601f168201915b50505050508152602001600582015481525050838381518110610599576105986121dc565b5b60200260200101819052505080806105b09061229a565b9150506102d1565b50809250505090565b6000600160028111156105d7576105d6612070565b5b600160080160009054906101000a900460ff1660028111156105fc576105fb612070565b5b1461063c576040517f08c379a00000000000000000000000000000000000000000000000000000000081526004016106339061233f565b60405180910390fd5b600061064783611619565b90506001151581151514610690576040517f08c379a0000000000000000000000000000000000000000000000000000000008152600401610687906123ab565b60405180910390fd5b610699836116c3565b6000600d60008673ffffffffffffffffffffffffffffffffffffffff1673ffffffffffffffffffffffffffffffffffffffff16815260200190815260200160002054905080806106e89061229a565b91505080600d60008773ffffffffffffffffffffffffffffffffffffffff1673ffffffffffffffffffffffffffffffffffffffff1681526020019081526020016000208190555080600c60008773ffffffffffffffffffffffffffffffffffffffff1673ffffffffffffffffffffffffffffffffffffffff1681526020019081526020016000206005018190555060019250505092915050565b600160040160009054906101000a900473ffffffffffffffffffffffffffffffffffffffff1673ffffffffffffffffffffffffffffffffffffffff163373ffffffffffffffffffffffffffffffffffffffff1614610815576040517f08c379a000000000000000000000000000000000000000000000000000000000815260040161080c90612417565b60405180910390fd5b6002600160080160006101000a81548160ff0219169083600281111561083e5761083d612070565b5b0217905550565b6000600160040160009054906101000a900473ffffffffffffffffffffffffffffffffffffffff1673ffffffffffffffffffffffffffffffffffffffff163373ffffffffffffffffffffffffffffffffffffffff16146108da576040517f08c379a00000000000000000000000000000000000000000000000000000000081526004016108d190612417565b60405180910390fd5b6108e460006117bc565b60006108f060006117d2565b905060008360200151905081846000018181525050600a819080600181540180825580915050600190039060005260206000200160009091909190916101000a81548173ffffffffffffffffffffffffffffffffffffffff021916908373ffffffffffffffffffffffffffffffffffffffff16021790555083600c60008373ffffffffffffffffffffffffffffffffffffffff1673ffffffffffffffffffffffffffffffffffffffff1681526020019081526020016000206000820151816000015560208201518160010160006101000a81548173ffffffffffffffffffffffffffffffffffffffff021916908373ffffffffffffffffffffffffffffffffffffffff1602179055506040820151816002019081610a0e91906125e3565b506060820151816003019081610a2491906125e3565b506080820151816004019081610a3a91906125e3565b5060a0820151816005015590505060006001600701549050600181610a5f91906126b5565b600160070181905550846020015173ffffffffffffffffffffffffffffffffffffffff163073ffffffffffffffffffffffffffffffffffffffff167f573cc6d4f25132c88bb92c351a84060d943d95788fa8bc0033a0330fa97f68eb85886040015189606001518a60800151604051610adb9493929190612722565b60405180910390a360019350505050919050565b600160040160009054906101000a900473ffffffffffffffffffffffffffffffffffffffff1673ffffffffffffffffffffffffffffffffffffffff163373ffffffffffffffffffffffffffffffffffffffff1614610b82576040517f08c379a0000000000000000000000000000000000000000000000000000000008152600401610b7990612417565b60405180910390fd5b60018060080160006101000a81548160ff02191690836002811115610baa57610ba9612070565b5b0217905550565b610bb96117e0565b600160040160009054906101000a900473ffffffffffffffffffffffffffffffffffffffff1673ffffffffffffffffffffffffffffffffffffffff163373ffffffffffffffffffffffffffffffffffffffff1614610c4c576040517f08c379a0000000000000000000000000000000000000000000000000000000008152600401610c4390612417565b60405180910390fd5b60008080600090505b600a80549050811015610dbc57600d6000600a8381548110610c7a57610c796121dc565b5b9060005260206000200160009054906101000a900473ffffffffffffffffffffffffffffffffffffffff1673ffffffffffffffffffffffffffffffffffffffff1673ffffffffffffffffffffffffffffffffffffffff16815260200190815260200160002054831015610da957600d6000600a8381548110610cff57610cfe6121dc565b5b9060005260206000200160009054906101000a900473ffffffffffffffffffffffffffffffffffffffff1673ffffffffffffffffffffffffffffffffffffffff1673ffffffffffffffffffffffffffffffffffffffff168152602001908152602001600020549250600a8181548110610d7b57610d7a6121dc565b5b9060005260206000200160009054906101000a900473ffffffffffffffffffffffffffffffffffffffff1691505b8080610db49061229a565b915050610c55565b5080600160050160006101000a81548173ffffffffffffffffffffffffffffffffffffffff021916908373ffffffffffffffffffffffffffffffffffffffff160217905550600c60008273ffffffffffffffffffffffffffffffffffffffff1673ffffffffffffffffffffffffffffffffffffffff1681526020019081526020016000206040518060c0016040529081600082015481526020016001820160009054906101000a900473ffffffffffffffffffffffffffffffffffffffff1673ffffffffffffffffffffffffffffffffffffffff1673ffffffffffffffffffffffffffffffffffffffff168152602001600282018054610ebb9061223a565b80601f0160208091040260200160405190810160405280929190818152602001828054610ee79061223a565b8015610f345780601f10610f0957610100808354040283529160200191610f34565b820191906000526020600020905b815481529060010190602001808311610f1757829003601f168201915b50505050508152602001600382018054610f4d9061223a565b80601f0160208091040260200160405190810160405280929190818152602001828054610f799061223a565b8015610fc65780601f10610f9b57610100808354040283529160200191610fc6565b820191906000526020600020905b815481529060010190602001808311610fa957829003601f168201915b50505050508152602001600482018054610fdf9061223a565b80601f016020809104026020016040519081016040528092919081815260200182805461100b9061223a565b80156110585780601f1061102d57610100808354040283529160200191611058565b820191906000526020600020905b81548152906001019060200180831161103b57829003601f168201915b505050505081526020016005820154815250509250505090565b60008060000154905081565b6110866117e0565b600c60008373ffffffffffffffffffffffffffffffffffffffff1673ffffffffffffffffffffffffffffffffffffffff1681526020019081526020016000206040518060c0016040529081600082015481526020016001820160009054906101000a900473ffffffffffffffffffffffffffffffffffffffff1673ffffffffffffffffffffffffffffffffffffffff1673ffffffffffffffffffffffffffffffffffffffff1681526020016002820180546111409061223a565b80601f016020809104026020016040519081016040528092919081815260200182805461116c9061223a565b80156111b95780601f1061118e576101008083540402835291602001916111b9565b820191906000526020600020905b81548152906001019060200180831161119c57829003601f168201915b505050505081526020016003820180546111d29061223a565b80601f01602080910402602001604051908101604052809291908181526020018280546111fe9061223a565b801561124b5780601f106112205761010080835404028352916020019161124b565b820191906000526020600020905b81548152906001019060200180831161122e57829003601f168201915b505050505081526020016004820180546112649061223a565b80601f01602080910402602001604051908101604052809291908181526020018280546112909061223a565b80156112dd5780601f106112b2576101008083540402835291602001916112dd565b820191906000526020600020905b8154815290600101906020018083116112c057829003601f168201915b505050505081526020016005820154815250509050919050565b6112ff61182c565b600160405180610120016040529081600082015481526020016001820160009054906101000a900473ffffffffffffffffffffffffffffffffffffffff1673ffffffffffffffffffffffffffffffffffffffff1673ffffffffffffffffffffffffffffffffffffffff16815260200160028201805461137d9061223a565b80601f01602080910402602001604051908101604052809291908181526020018280546113a99061223a565b80156113f65780601f106113cb576101008083540402835291602001916113f6565b820191906000526020600020905b8154815290600101906020018083116113d957829003601f168201915b5050505050815260200160038201805461140f9061223a565b80601f016020809104026020016040519081016040528092919081815260200182805461143b9061223a565b80156114885780601f1061145d57610100808354040283529160200191611488565b820191906000526020600020905b81548152906001019060200180831161146b57829003601f168201915b505050505081526020016004820160009054906101000a900473ffffffffffffffffffffffffffffffffffffffff1673ffffffffffffffffffffffffffffffffffffffff1673ffffffffffffffffffffffffffffffffffffffff1681526020016005820160009054906101000a900473ffffffffffffffffffffffffffffffffffffffff1673ffffffffffffffffffffffffffffffffffffffff1673ffffffffffffffffffffffffffffffffffffffff16815260200160068201805461154d9061223a565b80601f01602080910402602001604051908101604052809291908181526020018280546115799061223a565b80156115c65780601f1061159b576101008083540402835291602001916115c6565b820191906000526020600020905b8154815290600101906020018083116115a957829003601f168201915b50505050508152602001600782015481526020016008820160009054906101000a900460ff1660028111156115fe576115fd612070565b5b60028111156116105761160f612070565b5b81525050905090565b6000806001905060005b600b805490508110156116b9578373ffffffffffffffffffffffffffffffffffffffff16600b828154811061165b5761165a6121dc565b5b9060005260206000200160009054906101000a900473ffffffffffffffffffffffffffffffffffffffff1673ffffffffffffffffffffffffffffffffffffffff16036116a657600091505b80806116b19061229a565b915050611623565b5080915050919050565b600160040160009054906101000a900473ffffffffffffffffffffffffffffffffffffffff1673ffffffffffffffffffffffffffffffffffffffff163373ffffffffffffffffffffffffffffffffffffffff1614611756576040517f08c379a000000000000000000000000000000000000000000000000000000000815260040161174d90612417565b60405180910390fd5b600b819080600181540180825580915050600190039060005260206000200160009091909190916101000a81548173ffffffffffffffffffffffffffffffffffffffff021916908373ffffffffffffffffffffffffffffffffffffffff16021790555050565b6001816000016000828254019250508190555050565b600081600001549050919050565b6040518060c0016040528060008152602001600073ffffffffffffffffffffffffffffffffffffffff168152602001606081526020016060815260200160608152602001600081525090565b60405180610120016040528060008152602001600073ffffffffffffffffffffffffffffffffffffffff1681526020016060815260200160608152602001600073ffffffffffffffffffffffffffffffffffffffff168152602001600073ffffffffffffffffffffffffffffffffffffffff1681526020016060815260200160008152602001600060028111156118c6576118c5612070565b5b81525090565b600081519050919050565b600082825260208201905092915050565b6000819050602082019050919050565b600073ffffffffffffffffffffffffffffffffffffffff82169050919050565b6000611923826118f8565b9050919050565b61193381611918565b82525050565b6000611945838361192a565b60208301905092915050565b6000602082019050919050565b6000611969826118cc565b61197381856118d7565b935061197e836118e8565b8060005b838110156119af5781516119968882611939565b97506119a183611951565b925050600181019050611982565b5085935050505092915050565b600060208201905081810360008301526119d6818461195e565b905092915050565b600081519050919050565b600082825260208201905092915050565b6000819050602082019050919050565b6000819050919050565b611a1d81611a0a565b82525050565b600081519050919050565b600082825260208201905092915050565b60005b83811015611a5d578082015181840152602081019050611a42565b60008484015250505050565b6000601f19601f8301169050919050565b6000611a8582611a23565b611a8f8185611a2e565b9350611a9f818560208601611a3f565b611aa881611a69565b840191505092915050565b600060c083016000830151611acb6000860182611a14565b506020830151611ade602086018261192a565b5060408301518482036040860152611af68282611a7a565b91505060608301518482036060860152611b108282611a7a565b91505060808301518482036080860152611b2a8282611a7a565b91505060a0830151611b3f60a0860182611a14565b508091505092915050565b6000611b568383611ab3565b905092915050565b6000602082019050919050565b6000611b76826119de565b611b8081856119e9565b935083602082028501611b92856119fa565b8060005b85811015611bce5784840389528151611baf8582611b4a565b9450611bba83611b5e565b925060208a01995050600181019050611b96565b50829750879550505050505092915050565b60006020820190508181036000830152611bfa8184611b6b565b905092915050565b6000604051905090565b600080fd5b600080fd5b611c1f81611918565b8114611c2a57600080fd5b50565b600081359050611c3c81611c16565b92915050565b60008060408385031215611c5957611c58611c0c565b5b6000611c6785828601611c2d565b9250506020611c7885828601611c2d565b9150509250929050565b60008115159050919050565b611c9781611c82565b82525050565b6000602082019050611cb26000830184611c8e565b92915050565b600080fd5b7f4e487b7100000000000000000000000000000000000000000000000000000000600052604160045260246000fd5b611cf582611a69565b810181811067ffffffffffffffff82111715611d1457611d13611cbd565b5b80604052505050565b6000611d27611c02565b9050611d338282611cec565b919050565b600080fd5b611d4681611a0a565b8114611d5157600080fd5b50565b600081359050611d6381611d3d565b92915050565b600080fd5b600080fd5b600067ffffffffffffffff821115611d8e57611d8d611cbd565b5b611d9782611a69565b9050602081019050919050565b82818337600083830152505050565b6000611dc6611dc184611d73565b611d1d565b905082815260208101848484011115611de257611de1611d6e565b5b611ded848285611da4565b509392505050565b600082601f830112611e0a57611e09611d69565b5b8135611e1a848260208601611db3565b91505092915050565b600060c08284031215611e3957611e38611cb8565b5b611e4360c0611d1d565b90506000611e5384828501611d54565b6000830152506020611e6784828501611c2d565b602083015250604082013567ffffffffffffffff811115611e8b57611e8a611d38565b5b611e9784828501611df5565b604083015250606082013567ffffffffffffffff811115611ebb57611eba611d38565b5b611ec784828501611df5565b606083015250608082013567ffffffffffffffff811115611eeb57611eea611d38565b5b611ef784828501611df5565b60808301525060a0611f0b84828501611d54565b60a08301525092915050565b600060208284031215611f2d57611f2c611c0c565b5b600082013567ffffffffffffffff811115611f4b57611f4a611c11565b5b611f5784828501611e23565b91505092915050565b600060c083016000830151611f786000860182611a14565b506020830151611f8b602086018261192a565b5060408301518482036040860152611fa38282611a7a565b91505060608301518482036060860152611fbd8282611a7a565b91505060808301518482036080860152611fd78282611a7a565b91505060a0830151611fec60a0860182611a14565b508091505092915050565b600060208201905081810360008301526120118184611f60565b905092915050565b61202281611a0a565b82525050565b600060208201905061203d6000830184612019565b92915050565b60006020828403121561205957612058611c0c565b5b600061206784828501611c2d565b91505092915050565b7f4e487b7100000000000000000000000000000000000000000000000000000000600052602160045260246000fd5b600381106120b0576120af612070565b5b50565b60008190506120c18261209f565b919050565b60006120d1826120b3565b9050919050565b6120e1816120c6565b82525050565b6000610120830160008301516121006000860182611a14565b506020830151612113602086018261192a565b506040830151848203604086015261212b8282611a7a565b915050606083015184820360608601526121458282611a7a565b915050608083015161215a608086018261192a565b5060a083015161216d60a086018261192a565b5060c083015184820360c08601526121858282611a7a565b91505060e083015161219a60e0860182611a14565b506101008301516121af6101008601826120d8565b508091505092915050565b600060208201905081810360008301526121d481846120e7565b905092915050565b7f4e487b7100000000000000000000000000000000000000000000000000000000600052603260045260246000fd5b7f4e487b7100000000000000000000000000000000000000000000000000000000600052602260045260246000fd5b6000600282049050600182168061225257607f821691505b6020821081036122655761226461220b565b5b50919050565b7f4e487b7100000000000000000000000000000000000000000000000000000000600052601160045260246000fd5b60006122a582611a0a565b91507fffffffffffffffffffffffffffffffffffffffffffffffffffffffffffffffff82036122d7576122d661226b565b5b600182019050919050565b600082825260208201905092915050565b7f5265717569726520656c656374696f6e20737461727400000000000000000000600082015250565b60006123296016836122e2565b9150612334826122f3565b602082019050919050565b600060208201905081810360008301526123588161231c565b9050919050565b7f55736572206861766520616c726561647920766f746564000000000000000000600082015250565b60006123956017836122e2565b91506123a08261235f565b602082019050919050565b600060208201905081810360008301526123c481612388565b9050919050565b7f5265717569726520636f6e74726163742063726561746f720000000000000000600082015250565b60006124016018836122e2565b915061240c826123cb565b602082019050919050565b60006020820190508181036000830152612430816123f4565b9050919050565b60008190508160005260206000209050919050565b60006020601f8301049050919050565b600082821b905092915050565b6000600883026124997fffffffffffffffffffffffffffffffffffffffffffffffffffffffffffffffff8261245c565b6124a3868361245c565b95508019841693508086168417925050509392505050565b6000819050919050565b60006124e06124db6124d684611a0a565b6124bb565b611a0a565b9050919050565b6000819050919050565b6124fa836124c5565b61250e612506826124e7565b848454612469565b825550505050565b600090565b612523612516565b61252e8184846124f1565b505050565b5b818110156125525761254760008261251b565b600181019050612534565b5050565b601f8211156125975761256881612437565b6125718461244c565b81016020851015612580578190505b61259461258c8561244c565b830182612533565b50505b505050565b600082821c905092915050565b60006125ba6000198460080261259c565b1980831691505092915050565b60006125d383836125a9565b9150826002028217905092915050565b6125ec82611a23565b67ffffffffffffffff81111561260557612604611cbd565b5b61260f825461223a565b61261a828285612556565b600060209050601f83116001811461264d576000841561263b578287015190505b61264585826125c7565b8655506126ad565b601f19841661265b86612437565b60005b828110156126835784890151825560018201915060208501945060208101905061265e565b868310156126a0578489015161269c601f8916826125a9565b8355505b6001600288020188555050505b505050505050565b60006126c082611a0a565b91506126cb83611a0a565b92508282019050808211156126e3576126e261226b565b5b92915050565b60006126f482611a23565b6126fe81856122e2565b935061270e818560208601611a3f565b61271781611a69565b840191505092915050565b60006080820190506127376000830187612019565b818103602083015261274981866126e9565b9050818103604083015261275d81856126e9565b9050818103606083015261277181846126e9565b90509594505050505056fea26469706673582212204780c40038b684541c7208c117df64eb50600f80ea1d26d4f520e13e2ce8512d64736f6c63430008110033a264697066735822122026285a2d5e17661cb1ff435ebd85265e8d73cdababfdfc86add4a3289c6ecaa164736f6c63430008110033",
  "linkReferences": {},
  "deployedLinkReferences": {}
}